{
	"contracts/twitter.sol": {
		"Twitter": {
			"abi": [
				{
					"inputs": [],
					"stateMutability": "nonpayable",
					"type": "constructor"
				},
				{
					"anonymous": false,
					"inputs": [
						{
							"indexed": false,
							"internalType": "uint256",
							"name": "id",
							"type": "uint256"
						},
						{
							"indexed": false,
							"internalType": "address",
							"name": "author",
							"type": "address"
						},
						{
							"indexed": false,
							"internalType": "string",
							"name": "content",
							"type": "string"
						},
						{
							"indexed": false,
							"internalType": "uint256",
							"name": "timestamp",
							"type": "uint256"
						}
					],
					"name": "tweetCreated",
					"type": "event"
				},
				{
					"anonymous": false,
					"inputs": [
						{
							"indexed": false,
							"internalType": "address",
							"name": "liker",
							"type": "address"
						},
						{
							"indexed": false,
							"internalType": "address",
							"name": "tweetAuthur",
							"type": "address"
						},
						{
							"indexed": false,
							"internalType": "uint256",
							"name": "tweekId",
							"type": "uint256"
						},
						{
							"indexed": false,
							"internalType": "uint256",
							"name": "newLikedCount",
							"type": "uint256"
						}
					],
					"name": "tweetLiked",
					"type": "event"
				},
				{
					"anonymous": false,
					"inputs": [
						{
							"indexed": false,
							"internalType": "address",
							"name": "liker",
							"type": "address"
						},
						{
							"indexed": false,
							"internalType": "address",
							"name": "tweetAuthur",
							"type": "address"
						},
						{
							"indexed": false,
							"internalType": "uint256",
							"name": "tweekId",
							"type": "uint256"
						},
						{
							"indexed": false,
							"internalType": "uint256",
							"name": "newLikedCount",
							"type": "uint256"
						}
					],
					"name": "tweetUnliked",
					"type": "event"
				},
				{
					"inputs": [],
					"name": "MAX_TWEET_LENGTH",
					"outputs": [
						{
							"internalType": "uint256",
							"name": "",
							"type": "uint256"
						}
					],
					"stateMutability": "view",
					"type": "function"
				},
				{
					"inputs": [
						{
							"internalType": "address",
							"name": "author",
							"type": "address"
						},
						{
							"internalType": "uint256",
							"name": "id",
							"type": "uint256"
						}
					],
					"name": "addLikes",
					"outputs": [],
					"stateMutability": "nonpayable",
					"type": "function"
				},
				{
					"inputs": [
						{
							"internalType": "uint16",
							"name": "newTweetLeght",
							"type": "uint16"
						}
					],
					"name": "changeTweetLength",
					"outputs": [],
					"stateMutability": "nonpayable",
					"type": "function"
				},
				{
					"inputs": [
						{
							"internalType": "string",
							"name": "_tweet",
							"type": "string"
						}
					],
					"name": "createTweet",
					"outputs": [],
					"stateMutability": "nonpayable",
					"type": "function"
				},
				{
					"inputs": [],
					"name": "getAllTweets",
					"outputs": [
						{
							"components": [
								{
									"internalType": "uint256",
									"name": "id",
									"type": "uint256"
								},
								{
									"internalType": "address",
									"name": "author",
									"type": "address"
								},
								{
									"internalType": "string",
									"name": "content",
									"type": "string"
								},
								{
									"internalType": "uint256",
									"name": "timestamp",
									"type": "uint256"
								},
								{
									"internalType": "uint256",
									"name": "likes",
									"type": "uint256"
								}
							],
							"internalType": "struct Twitter.Tweet[]",
							"name": "",
							"type": "tuple[]"
						}
					],
					"stateMutability": "view",
					"type": "function"
				},
				{
					"inputs": [
						{
							"internalType": "uint256",
							"name": "_index",
							"type": "uint256"
						}
					],
					"name": "getTweet",
					"outputs": [
						{
							"components": [
								{
									"internalType": "uint256",
									"name": "id",
									"type": "uint256"
								},
								{
									"internalType": "address",
									"name": "author",
									"type": "address"
								},
								{
									"internalType": "string",
									"name": "content",
									"type": "string"
								},
								{
									"internalType": "uint256",
									"name": "timestamp",
									"type": "uint256"
								},
								{
									"internalType": "uint256",
									"name": "likes",
									"type": "uint256"
								}
							],
							"internalType": "struct Twitter.Tweet",
							"name": "",
							"type": "tuple"
						}
					],
					"stateMutability": "view",
					"type": "function"
				},
				{
					"inputs": [],
					"name": "owner",
					"outputs": [
						{
							"internalType": "address",
							"name": "",
							"type": "address"
						}
					],
					"stateMutability": "view",
					"type": "function"
				},
				{
					"inputs": [
						{
							"internalType": "address",
							"name": "author",
							"type": "address"
						},
						{
							"internalType": "uint256",
							"name": "id",
							"type": "uint256"
						}
					],
					"name": "removeLikes",
					"outputs": [],
					"stateMutability": "nonpayable",
					"type": "function"
				},
				{
					"inputs": [
						{
							"internalType": "address",
							"name": "",
							"type": "address"
						},
						{
							"internalType": "uint256",
							"name": "",
							"type": "uint256"
						}
					],
					"name": "tweets",
					"outputs": [
						{
							"internalType": "uint256",
							"name": "id",
							"type": "uint256"
						},
						{
							"internalType": "address",
							"name": "author",
							"type": "address"
						},
						{
							"internalType": "string",
							"name": "content",
							"type": "string"
						},
						{
							"internalType": "uint256",
							"name": "timestamp",
							"type": "uint256"
						},
						{
							"internalType": "uint256",
							"name": "likes",
							"type": "uint256"
						}
					],
					"stateMutability": "view",
					"type": "function"
				}
			],
			"devdoc": {
				"kind": "dev",
				"methods": {},
				"version": 1
			},
			"evm": {
				"assembly": "    /* \"contracts/twitter.sol\":57:2226  contract Twitter {... */\n  mstore(0x40, 0x80)\n    /* \"contracts/twitter.sol\":115:118  280 */\n  0x0118\n    /* \"contracts/twitter.sol\":81:118  uint256 public MAX_TWEET_LENGTH = 280 */\n  0x00\n  sstore\n    /* \"contracts/twitter.sol\":344:393  constructor() {... */\n  callvalue\n  dup1\n  iszero\n  tag_1\n  jumpi\n  revert(0x00, 0x00)\ntag_1:\n  pop\n    /* \"contracts/twitter.sol\":376:386  msg.sender */\n  caller\n    /* \"contracts/twitter.sol\":368:373  owner */\n  0x02\n  0x00\n    /* \"contracts/twitter.sol\":368:386  owner = msg.sender */\n  0x0100\n  exp\n  dup2\n  sload\n  dup2\n  0xffffffffffffffffffffffffffffffffffffffff\n  mul\n  not\n  and\n  swap1\n  dup4\n  0xffffffffffffffffffffffffffffffffffffffff\n  and\n  mul\n  or\n  swap1\n  sstore\n  pop\n    /* \"contracts/twitter.sol\":57:2226  contract Twitter {... */\n  dataSize(sub_0)\n  dup1\n  dataOffset(sub_0)\n  0x00\n  codecopy\n  0x00\n  return\nstop\n\nsub_0: assembly {\n        /* \"contracts/twitter.sol\":57:2226  contract Twitter {... */\n      mstore(0x40, 0x80)\n      callvalue\n      dup1\n      iszero\n      tag_1\n      jumpi\n      revert(0x00, 0x00)\n    tag_1:\n      pop\n      jumpi(tag_2, lt(calldatasize, 0x04))\n      shr(0xe0, calldataload(0x00))\n      dup1\n      0x5f484677\n      gt\n      tag_12\n      jumpi\n      dup1\n      0x5f484677\n      eq\n      tag_7\n      jumpi\n      dup1\n      0x6eb10797\n      eq\n      tag_8\n      jumpi\n      dup1\n      0x7c9cd2bc\n      eq\n      tag_9\n      jumpi\n      dup1\n      0x8da5cb5b\n      eq\n      tag_10\n      jumpi\n      dup1\n      0xc3ad5ecb\n      eq\n      tag_11\n      jumpi\n      jump(tag_2)\n    tag_12:\n      dup1\n      0x05a1b4a9\n      eq\n      tag_3\n      jumpi\n      dup1\n      0x15bf4006\n      eq\n      tag_4\n      jumpi\n      dup1\n      0x53256135\n      eq\n      tag_5\n      jumpi\n      dup1\n      0x58bfa4ab\n      eq\n      tag_6\n      jumpi\n    tag_2:\n      revert(0x00, 0x00)\n        /* \"contracts/twitter.sol\":269:310  mapping(address => Tweet[]) public tweets */\n    tag_3:\n      tag_13\n      0x04\n      dup1\n      calldatasize\n      sub\n      dup2\n      add\n      swap1\n      tag_14\n      swap2\n      swap1\n      tag_15\n      jump\t// in\n    tag_14:\n      tag_16\n      jump\t// in\n    tag_13:\n      mload(0x40)\n      tag_17\n      swap6\n      swap5\n      swap4\n      swap3\n      swap2\n      swap1\n      tag_18\n      jump\t// in\n    tag_17:\n      mload(0x40)\n      dup1\n      swap2\n      sub\n      swap1\n      return\n        /* \"contracts/twitter.sol\":915:1161  function addLikes(address author, uint256 id) external  {... */\n    tag_4:\n      tag_19\n      0x04\n      dup1\n      calldatasize\n      sub\n      dup2\n      add\n      swap1\n      tag_20\n      swap2\n      swap1\n      tag_15\n      jump\t// in\n    tag_20:\n      tag_21\n      jump\t// in\n    tag_19:\n      stop\n        /* \"contracts/twitter.sol\":2121:2224  function getAllTweets() public view returns (Tweet[] memory) {... */\n    tag_5:\n      tag_22\n      tag_23\n      jump\t// in\n    tag_22:\n      mload(0x40)\n      tag_24\n      swap2\n      swap1\n      tag_25\n      jump\t// in\n    tag_24:\n      mload(0x40)\n      dup1\n      swap2\n      sub\n      swap1\n      return\n        /* \"contracts/twitter.sol\":794:909  function changeTweetLength(uint16 newTweetLeght) public onlyOwner {... */\n    tag_6:\n      tag_26\n      0x04\n      dup1\n      calldatasize\n      sub\n      dup2\n      add\n      swap1\n      tag_27\n      swap2\n      swap1\n      tag_28\n      jump\t// in\n    tag_27:\n      tag_29\n      jump\t// in\n    tag_26:\n      stop\n        /* \"contracts/twitter.sol\":1168:1488  function removeLikes(address author, uint256 id) external  {... */\n    tag_7:\n      tag_30\n      0x04\n      dup1\n      calldatasize\n      sub\n      dup2\n      add\n      swap1\n      tag_31\n      swap2\n      swap1\n      tag_15\n      jump\t// in\n    tag_31:\n      tag_32\n      jump\t// in\n    tag_30:\n      stop\n        /* \"contracts/twitter.sol\":81:118  uint256 public MAX_TWEET_LENGTH = 280 */\n    tag_8:\n      tag_33\n      tag_34\n      jump\t// in\n    tag_33:\n      mload(0x40)\n      tag_35\n      swap2\n      swap1\n      tag_36\n      jump\t// in\n    tag_35:\n      mload(0x40)\n      dup1\n      swap2\n      sub\n      swap1\n      return\n        /* \"contracts/twitter.sol\":1495:1989  function createTweet(string memory _tweet) public {... */\n    tag_9:\n      tag_37\n      0x04\n      dup1\n      calldatasize\n      sub\n      dup2\n      add\n      swap1\n      tag_38\n      swap2\n      swap1\n      tag_39\n      jump\t// in\n    tag_38:\n      tag_40\n      jump\t// in\n    tag_37:\n      stop\n        /* \"contracts/twitter.sol\":317:337  address public owner */\n    tag_10:\n      tag_41\n      tag_42\n      jump\t// in\n    tag_41:\n      mload(0x40)\n      tag_43\n      swap2\n      swap1\n      tag_44\n      jump\t// in\n    tag_43:\n      mload(0x40)\n      dup1\n      swap2\n      sub\n      swap1\n      return\n        /* \"contracts/twitter.sol\":1995:2115  function getTweet( uint256 _index) public view returns (Tweet memory) {... */\n    tag_11:\n      tag_45\n      0x04\n      dup1\n      calldatasize\n      sub\n      dup2\n      add\n      swap1\n      tag_46\n      swap2\n      swap1\n      tag_47\n      jump\t// in\n    tag_46:\n      tag_48\n      jump\t// in\n    tag_45:\n      mload(0x40)\n      tag_49\n      swap2\n      swap1\n      tag_50\n      jump\t// in\n    tag_49:\n      mload(0x40)\n      dup1\n      swap2\n      sub\n      swap1\n      return\n        /* \"contracts/twitter.sol\":269:310  mapping(address => Tweet[]) public tweets */\n    tag_16:\n      mstore(0x20, 0x01)\n      dup2\n      0x00\n      mstore\n      keccak256(0x00, 0x40)\n      dup2\n      dup2\n      sload\n      dup2\n      lt\n      tag_51\n      jumpi\n      0x00\n      dup1\n      revert\n    tag_51:\n      swap1\n      0x00\n      mstore\n      keccak256(0x00, 0x20)\n      swap1\n      0x05\n      mul\n      add\n      0x00\n      swap2\n      pop\n      swap2\n      pop\n      pop\n      dup1\n      0x00\n      add\n      sload\n      swap1\n      dup1\n      0x01\n      add\n      0x00\n      swap1\n      sload\n      swap1\n      0x0100\n      exp\n      swap1\n      div\n      0xffffffffffffffffffffffffffffffffffffffff\n      and\n      swap1\n      dup1\n      0x02\n      add\n      dup1\n      sload\n      tag_53\n      swap1\n      tag_54\n      jump\t// in\n    tag_53:\n      dup1\n      0x1f\n      add\n      0x20\n      dup1\n      swap2\n      div\n      mul\n      0x20\n      add\n      mload(0x40)\n      swap1\n      dup2\n      add\n      0x40\n      mstore\n      dup1\n      swap3\n      swap2\n      swap1\n      dup2\n      dup2\n      mstore\n      0x20\n      add\n      dup3\n      dup1\n      sload\n      tag_55\n      swap1\n      tag_54\n      jump\t// in\n    tag_55:\n      dup1\n      iszero\n      tag_56\n      jumpi\n      dup1\n      0x1f\n      lt\n      tag_57\n      jumpi\n      0x0100\n      dup1\n      dup4\n      sload\n      div\n      mul\n      dup4\n      mstore\n      swap2\n      0x20\n      add\n      swap2\n      jump(tag_56)\n    tag_57:\n      dup3\n      add\n      swap2\n      swap1\n      0x00\n      mstore\n      keccak256(0x00, 0x20)\n      swap1\n    tag_58:\n      dup2\n      sload\n      dup2\n      mstore\n      swap1\n      0x01\n      add\n      swap1\n      0x20\n      add\n      dup1\n      dup4\n      gt\n      tag_58\n      jumpi\n      dup3\n      swap1\n      sub\n      0x1f\n      and\n      dup3\n      add\n      swap2\n    tag_56:\n      pop\n      pop\n      pop\n      pop\n      pop\n      swap1\n      dup1\n      0x03\n      add\n      sload\n      swap1\n      dup1\n      0x04\n      add\n      sload\n      swap1\n      pop\n      dup6\n      jump\t// out\n        /* \"contracts/twitter.sol\":915:1161  function addLikes(address author, uint256 id) external  {... */\n    tag_21:\n        /* \"contracts/twitter.sol\":1014:1016  id */\n      dup1\n        /* \"contracts/twitter.sol\":989:995  tweets */\n      0x01\n        /* \"contracts/twitter.sol\":989:1003  tweets[author] */\n      0x00\n        /* \"contracts/twitter.sol\":996:1002  author */\n      dup5\n        /* \"contracts/twitter.sol\":989:1003  tweets[author] */\n      0xffffffffffffffffffffffffffffffffffffffff\n      and\n      0xffffffffffffffffffffffffffffffffffffffff\n      and\n      dup2\n      mstore\n      0x20\n      add\n      swap1\n      dup2\n      mstore\n      0x20\n      add\n      0x00\n      keccak256\n        /* \"contracts/twitter.sol\":1004:1006  id */\n      dup3\n        /* \"contracts/twitter.sol\":989:1007  tweets[author][id] */\n      dup2\n      sload\n      dup2\n      lt\n      tag_60\n      jumpi\n      tag_61\n      tag_62\n      jump\t// in\n    tag_61:\n    tag_60:\n      swap1\n      0x00\n      mstore\n      keccak256(0x00, 0x20)\n      swap1\n      0x05\n      mul\n      add\n        /* \"contracts/twitter.sol\":989:1010  tweets[author][id].id */\n      0x00\n      add\n      sload\n        /* \"contracts/twitter.sol\":989:1016  tweets[author][id].id == id */\n      eq\n        /* \"contracts/twitter.sol\":981:1041  require(tweets[author][id].id == id, \"Tweet does not exit!\") */\n      tag_64\n      jumpi\n      mload(0x40)\n      0x08c379a000000000000000000000000000000000000000000000000000000000\n      dup2\n      mstore\n      0x04\n      add\n      tag_65\n      swap1\n      tag_66\n      jump\t// in\n    tag_65:\n      mload(0x40)\n      dup1\n      swap2\n      sub\n      swap1\n      revert\n    tag_64:\n        /* \"contracts/twitter.sol\":1051:1057  tweets */\n      0x01\n        /* \"contracts/twitter.sol\":1051:1065  tweets[author] */\n      0x00\n        /* \"contracts/twitter.sol\":1058:1064  author */\n      dup4\n        /* \"contracts/twitter.sol\":1051:1065  tweets[author] */\n      0xffffffffffffffffffffffffffffffffffffffff\n      and\n      0xffffffffffffffffffffffffffffffffffffffff\n      and\n      dup2\n      mstore\n      0x20\n      add\n      swap1\n      dup2\n      mstore\n      0x20\n      add\n      0x00\n      keccak256\n        /* \"contracts/twitter.sol\":1066:1068  id */\n      dup2\n        /* \"contracts/twitter.sol\":1051:1069  tweets[author][id] */\n      dup2\n      sload\n      dup2\n      lt\n      tag_67\n      jumpi\n      tag_68\n      tag_62\n      jump\t// in\n    tag_68:\n    tag_67:\n      swap1\n      0x00\n      mstore\n      keccak256(0x00, 0x20)\n      swap1\n      0x05\n      mul\n      add\n        /* \"contracts/twitter.sol\":1051:1075  tweets[author][id].likes */\n      0x04\n      add\n      0x00\n        /* \"contracts/twitter.sol\":1051:1077  tweets[author][id].likes++ */\n      dup2\n      sload\n      dup1\n      swap3\n      swap2\n      swap1\n      tag_70\n      swap1\n      tag_71\n      jump\t// in\n    tag_70:\n      swap2\n      swap1\n      pop\n      sstore\n      pop\n        /* \"contracts/twitter.sol\":1094:1154  tweetLiked(msg.sender, author, id, tweets[author][id].likes) */\n      0xa3c9ad75b0736706936cfe2646da2d2a6539dfdefbe5267580b75d1750151981\n        /* \"contracts/twitter.sol\":1105:1115  msg.sender */\n      caller\n        /* \"contracts/twitter.sol\":1117:1123  author */\n      dup4\n        /* \"contracts/twitter.sol\":1125:1127  id */\n      dup4\n        /* \"contracts/twitter.sol\":1129:1135  tweets */\n      0x01\n        /* \"contracts/twitter.sol\":1129:1143  tweets[author] */\n      0x00\n        /* \"contracts/twitter.sol\":1136:1142  author */\n      dup8\n        /* \"contracts/twitter.sol\":1129:1143  tweets[author] */\n      0xffffffffffffffffffffffffffffffffffffffff\n      and\n      0xffffffffffffffffffffffffffffffffffffffff\n      and\n      dup2\n      mstore\n      0x20\n      add\n      swap1\n      dup2\n      mstore\n      0x20\n      add\n      0x00\n      keccak256\n        /* \"contracts/twitter.sol\":1144:1146  id */\n      dup6\n        /* \"contracts/twitter.sol\":1129:1147  tweets[author][id] */\n      dup2\n      sload\n      dup2\n      lt\n      tag_72\n      jumpi\n      tag_73\n      tag_62\n      jump\t// in\n    tag_73:\n    tag_72:\n      swap1\n      0x00\n      mstore\n      keccak256(0x00, 0x20)\n      swap1\n      0x05\n      mul\n      add\n        /* \"contracts/twitter.sol\":1129:1153  tweets[author][id].likes */\n      0x04\n      add\n      sload\n        /* \"contracts/twitter.sol\":1094:1154  tweetLiked(msg.sender, author, id, tweets[author][id].likes) */\n      mload(0x40)\n      tag_75\n      swap5\n      swap4\n      swap3\n      swap2\n      swap1\n      tag_76\n      jump\t// in\n    tag_75:\n      mload(0x40)\n      dup1\n      swap2\n      sub\n      swap1\n      log1\n        /* \"contracts/twitter.sol\":915:1161  function addLikes(address author, uint256 id) external  {... */\n      pop\n      pop\n      jump\t// out\n        /* \"contracts/twitter.sol\":2121:2224  function getAllTweets() public view returns (Tweet[] memory) {... */\n    tag_23:\n        /* \"contracts/twitter.sol\":2166:2180  Tweet[] memory */\n      0x60\n        /* \"contracts/twitter.sol\":2199:2205  tweets */\n      0x01\n        /* \"contracts/twitter.sol\":2199:2217  tweets[msg.sender] */\n      0x00\n        /* \"contracts/twitter.sol\":2206:2216  msg.sender */\n      caller\n        /* \"contracts/twitter.sol\":2199:2217  tweets[msg.sender] */\n      0xffffffffffffffffffffffffffffffffffffffff\n      and\n      0xffffffffffffffffffffffffffffffffffffffff\n      and\n      dup2\n      mstore\n      0x20\n      add\n      swap1\n      dup2\n      mstore\n      0x20\n      add\n      0x00\n      keccak256\n        /* \"contracts/twitter.sol\":2192:2217  return tweets[msg.sender] */\n      dup1\n      sload\n      dup1\n      0x20\n      mul\n      0x20\n      add\n      mload(0x40)\n      swap1\n      dup2\n      add\n      0x40\n      mstore\n      dup1\n      swap3\n      swap2\n      swap1\n      dup2\n      dup2\n      mstore\n      0x20\n      add\n      0x00\n      swap1\n    tag_78:\n      dup3\n      dup3\n      lt\n      iszero\n      tag_79\n      jumpi\n      dup4\n      dup3\n      swap1\n      0x00\n      mstore\n      keccak256(0x00, 0x20)\n      swap1\n      0x05\n      mul\n      add\n      mload(0x40)\n      dup1\n      0xa0\n      add\n      0x40\n      mstore\n      swap1\n      dup2\n      0x00\n      dup3\n      add\n      sload\n      dup2\n      mstore\n      0x20\n      add\n      0x01\n      dup3\n      add\n      0x00\n      swap1\n      sload\n      swap1\n      0x0100\n      exp\n      swap1\n      div\n      0xffffffffffffffffffffffffffffffffffffffff\n      and\n      0xffffffffffffffffffffffffffffffffffffffff\n      and\n      0xffffffffffffffffffffffffffffffffffffffff\n      and\n      dup2\n      mstore\n      0x20\n      add\n      0x02\n      dup3\n      add\n      dup1\n      sload\n      tag_81\n      swap1\n      tag_54\n      jump\t// in\n    tag_81:\n      dup1\n      0x1f\n      add\n      0x20\n      dup1\n      swap2\n      div\n      mul\n      0x20\n      add\n      mload(0x40)\n      swap1\n      dup2\n      add\n      0x40\n      mstore\n      dup1\n      swap3\n      swap2\n      swap1\n      dup2\n      dup2\n      mstore\n      0x20\n      add\n      dup3\n      dup1\n      sload\n      tag_82\n      swap1\n      tag_54\n      jump\t// in\n    tag_82:\n      dup1\n      iszero\n      tag_83\n      jumpi\n      dup1\n      0x1f\n      lt\n      tag_84\n      jumpi\n      0x0100\n      dup1\n      dup4\n      sload\n      div\n      mul\n      dup4\n      mstore\n      swap2\n      0x20\n      add\n      swap2\n      jump(tag_83)\n    tag_84:\n      dup3\n      add\n      swap2\n      swap1\n      0x00\n      mstore\n      keccak256(0x00, 0x20)\n      swap1\n    tag_85:\n      dup2\n      sload\n      dup2\n      mstore\n      swap1\n      0x01\n      add\n      swap1\n      0x20\n      add\n      dup1\n      dup4\n      gt\n      tag_85\n      jumpi\n      dup3\n      swap1\n      sub\n      0x1f\n      and\n      dup3\n      add\n      swap2\n    tag_83:\n      pop\n      pop\n      pop\n      pop\n      pop\n      dup2\n      mstore\n      0x20\n      add\n      0x03\n      dup3\n      add\n      sload\n      dup2\n      mstore\n      0x20\n      add\n      0x04\n      dup3\n      add\n      sload\n      dup2\n      mstore\n      pop\n      pop\n      dup2\n      mstore\n      0x20\n      add\n      swap1\n      0x01\n      add\n      swap1\n      jump(tag_78)\n    tag_79:\n      pop\n      pop\n      pop\n      pop\n      swap1\n      pop\n        /* \"contracts/twitter.sol\":2121:2224  function getAllTweets() public view returns (Tweet[] memory) {... */\n      swap1\n      jump\t// out\n        /* \"contracts/twitter.sol\":794:909  function changeTweetLength(uint16 newTweetLeght) public onlyOwner {... */\n    tag_29:\n        /* \"contracts/twitter.sol\":733:743  msg.sender */\n      caller\n        /* \"contracts/twitter.sol\":724:743  owner == msg.sender */\n      0xffffffffffffffffffffffffffffffffffffffff\n      and\n        /* \"contracts/twitter.sol\":724:729  owner */\n      0x02\n      0x00\n      swap1\n      sload\n      swap1\n      0x0100\n      exp\n      swap1\n      div\n      0xffffffffffffffffffffffffffffffffffffffff\n      and\n        /* \"contracts/twitter.sol\":724:743  owner == msg.sender */\n      0xffffffffffffffffffffffffffffffffffffffff\n      and\n      eq\n        /* \"contracts/twitter.sol\":716:770  require(owner == msg.sender, \"You are not the owner!\") */\n      tag_87\n      jumpi\n      mload(0x40)\n      0x08c379a000000000000000000000000000000000000000000000000000000000\n      dup2\n      mstore\n      0x04\n      add\n      tag_88\n      swap1\n      tag_89\n      jump\t// in\n    tag_88:\n      mload(0x40)\n      dup1\n      swap2\n      sub\n      swap1\n      revert\n    tag_87:\n        /* \"contracts/twitter.sol\":889:902  newTweetLeght */\n      dup1\n        /* \"contracts/twitter.sol\":870:902  MAX_TWEET_LENGTH = newTweetLeght */\n      0xffff\n      and\n        /* \"contracts/twitter.sol\":870:886  MAX_TWEET_LENGTH */\n      0x00\n        /* \"contracts/twitter.sol\":870:902  MAX_TWEET_LENGTH = newTweetLeght */\n      dup2\n      swap1\n      sstore\n      pop\n        /* \"contracts/twitter.sol\":794:909  function changeTweetLength(uint16 newTweetLeght) public onlyOwner {... */\n      pop\n      jump\t// out\n        /* \"contracts/twitter.sol\":1168:1488  function removeLikes(address author, uint256 id) external  {... */\n    tag_32:\n        /* \"contracts/twitter.sol\":1270:1272  id */\n      dup1\n        /* \"contracts/twitter.sol\":1245:1251  tweets */\n      0x01\n        /* \"contracts/twitter.sol\":1245:1259  tweets[author] */\n      0x00\n        /* \"contracts/twitter.sol\":1252:1258  author */\n      dup5\n        /* \"contracts/twitter.sol\":1245:1259  tweets[author] */\n      0xffffffffffffffffffffffffffffffffffffffff\n      and\n      0xffffffffffffffffffffffffffffffffffffffff\n      and\n      dup2\n      mstore\n      0x20\n      add\n      swap1\n      dup2\n      mstore\n      0x20\n      add\n      0x00\n      keccak256\n        /* \"contracts/twitter.sol\":1260:1262  id */\n      dup3\n        /* \"contracts/twitter.sol\":1245:1263  tweets[author][id] */\n      dup2\n      sload\n      dup2\n      lt\n      tag_92\n      jumpi\n      tag_93\n      tag_62\n      jump\t// in\n    tag_93:\n    tag_92:\n      swap1\n      0x00\n      mstore\n      keccak256(0x00, 0x20)\n      swap1\n      0x05\n      mul\n      add\n        /* \"contracts/twitter.sol\":1245:1266  tweets[author][id].id */\n      0x00\n      add\n      sload\n        /* \"contracts/twitter.sol\":1245:1272  tweets[author][id].id == id */\n      eq\n        /* \"contracts/twitter.sol\":1237:1297  require(tweets[author][id].id == id, \"Tweet does not exit!\") */\n      tag_95\n      jumpi\n      mload(0x40)\n      0x08c379a000000000000000000000000000000000000000000000000000000000\n      dup2\n      mstore\n      0x04\n      add\n      tag_96\n      swap1\n      tag_66\n      jump\t// in\n    tag_96:\n      mload(0x40)\n      dup1\n      swap2\n      sub\n      swap1\n      revert\n    tag_95:\n        /* \"contracts/twitter.sol\":1342:1343  0 */\n      0x00\n        /* \"contracts/twitter.sol\":1315:1321  tweets */\n      0x01\n        /* \"contracts/twitter.sol\":1315:1329  tweets[author] */\n      0x00\n        /* \"contracts/twitter.sol\":1322:1328  author */\n      dup5\n        /* \"contracts/twitter.sol\":1315:1329  tweets[author] */\n      0xffffffffffffffffffffffffffffffffffffffff\n      and\n      0xffffffffffffffffffffffffffffffffffffffff\n      and\n      dup2\n      mstore\n      0x20\n      add\n      swap1\n      dup2\n      mstore\n      0x20\n      add\n      0x00\n      keccak256\n        /* \"contracts/twitter.sol\":1330:1332  id */\n      dup3\n        /* \"contracts/twitter.sol\":1315:1333  tweets[author][id] */\n      dup2\n      sload\n      dup2\n      lt\n      tag_97\n      jumpi\n      tag_98\n      tag_62\n      jump\t// in\n    tag_98:\n    tag_97:\n      swap1\n      0x00\n      mstore\n      keccak256(0x00, 0x20)\n      swap1\n      0x05\n      mul\n      add\n        /* \"contracts/twitter.sol\":1315:1339  tweets[author][id].likes */\n      0x04\n      add\n      sload\n        /* \"contracts/twitter.sol\":1315:1343  tweets[author][id].likes > 0 */\n      gt\n        /* \"contracts/twitter.sol\":1307:1366  require(tweets[author][id].likes > 0, \"There are no likes\") */\n      tag_100\n      jumpi\n      mload(0x40)\n      0x08c379a000000000000000000000000000000000000000000000000000000000\n      dup2\n      mstore\n      0x04\n      add\n      tag_101\n      swap1\n      tag_102\n      jump\t// in\n    tag_101:\n      mload(0x40)\n      dup1\n      swap2\n      sub\n      swap1\n      revert\n    tag_100:\n        /* \"contracts/twitter.sol\":1376:1382  tweets */\n      0x01\n        /* \"contracts/twitter.sol\":1376:1390  tweets[author] */\n      0x00\n        /* \"contracts/twitter.sol\":1383:1389  author */\n      dup4\n        /* \"contracts/twitter.sol\":1376:1390  tweets[author] */\n      0xffffffffffffffffffffffffffffffffffffffff\n      and\n      0xffffffffffffffffffffffffffffffffffffffff\n      and\n      dup2\n      mstore\n      0x20\n      add\n      swap1\n      dup2\n      mstore\n      0x20\n      add\n      0x00\n      keccak256\n        /* \"contracts/twitter.sol\":1391:1393  id */\n      dup2\n        /* \"contracts/twitter.sol\":1376:1394  tweets[author][id] */\n      dup2\n      sload\n      dup2\n      lt\n      tag_103\n      jumpi\n      tag_104\n      tag_62\n      jump\t// in\n    tag_104:\n    tag_103:\n      swap1\n      0x00\n      mstore\n      keccak256(0x00, 0x20)\n      swap1\n      0x05\n      mul\n      add\n        /* \"contracts/twitter.sol\":1376:1400  tweets[author][id].likes */\n      0x04\n      add\n      0x00\n        /* \"contracts/twitter.sol\":1376:1402  tweets[author][id].likes-- */\n      dup2\n      sload\n      dup1\n      swap3\n      swap2\n      swap1\n      tag_106\n      swap1\n      tag_107\n      jump\t// in\n    tag_106:\n      swap2\n      swap1\n      pop\n      sstore\n      pop\n        /* \"contracts/twitter.sol\":1419:1481  tweetUnliked(msg.sender, author, id, tweets[author][id].likes) */\n      0x58269e846e627224af1e738ac3cbb32d4320094d60695e377df7e94cc6392ca3\n        /* \"contracts/twitter.sol\":1432:1442  msg.sender */\n      caller\n        /* \"contracts/twitter.sol\":1444:1450  author */\n      dup4\n        /* \"contracts/twitter.sol\":1452:1454  id */\n      dup4\n        /* \"contracts/twitter.sol\":1456:1462  tweets */\n      0x01\n        /* \"contracts/twitter.sol\":1456:1470  tweets[author] */\n      0x00\n        /* \"contracts/twitter.sol\":1463:1469  author */\n      dup8\n        /* \"contracts/twitter.sol\":1456:1470  tweets[author] */\n      0xffffffffffffffffffffffffffffffffffffffff\n      and\n      0xffffffffffffffffffffffffffffffffffffffff\n      and\n      dup2\n      mstore\n      0x20\n      add\n      swap1\n      dup2\n      mstore\n      0x20\n      add\n      0x00\n      keccak256\n        /* \"contracts/twitter.sol\":1471:1473  id */\n      dup6\n        /* \"contracts/twitter.sol\":1456:1474  tweets[author][id] */\n      dup2\n      sload\n      dup2\n      lt\n      tag_108\n      jumpi\n      tag_109\n      tag_62\n      jump\t// in\n    tag_109:\n    tag_108:\n      swap1\n      0x00\n      mstore\n      keccak256(0x00, 0x20)\n      swap1\n      0x05\n      mul\n      add\n        /* \"contracts/twitter.sol\":1456:1480  tweets[author][id].likes */\n      0x04\n      add\n      sload\n        /* \"contracts/twitter.sol\":1419:1481  tweetUnliked(msg.sender, author, id, tweets[author][id].likes) */\n      mload(0x40)\n      tag_111\n      swap5\n      swap4\n      swap3\n      swap2\n      swap1\n      tag_76\n      jump\t// in\n    tag_111:\n      mload(0x40)\n      dup1\n      swap2\n      sub\n      swap1\n      log1\n        /* \"contracts/twitter.sol\":1168:1488  function removeLikes(address author, uint256 id) external  {... */\n      pop\n      pop\n      jump\t// out\n        /* \"contracts/twitter.sol\":81:118  uint256 public MAX_TWEET_LENGTH = 280 */\n    tag_34:\n      sload(0x00)\n      dup2\n      jump\t// out\n        /* \"contracts/twitter.sol\":1495:1989  function createTweet(string memory _tweet) public {... */\n    tag_40:\n        /* \"contracts/twitter.sol\":1588:1604  MAX_TWEET_LENGTH */\n      sload(0x00)\n        /* \"contracts/twitter.sol\":1570:1576  _tweet */\n      dup2\n        /* \"contracts/twitter.sol\":1564:1584  bytes(_tweet).length */\n      mload\n        /* \"contracts/twitter.sol\":1564:1604  bytes(_tweet).length <= MAX_TWEET_LENGTH */\n      gt\n      iszero\n        /* \"contracts/twitter.sol\":1556:1624  require(bytes(_tweet).length <= MAX_TWEET_LENGTH, \"Tweet too long!\") */\n      tag_113\n      jumpi\n      mload(0x40)\n      0x08c379a000000000000000000000000000000000000000000000000000000000\n      dup2\n      mstore\n      0x04\n      add\n      tag_114\n      swap1\n      tag_115\n      jump\t// in\n    tag_114:\n      mload(0x40)\n      dup1\n      swap2\n      sub\n      swap1\n      revert\n    tag_113:\n        /* \"contracts/twitter.sol\":1635:1656  Tweet memory newTweet */\n      0x00\n        /* \"contracts/twitter.sol\":1659:1843  Tweet({... */\n      mload(0x40)\n      dup1\n      0xa0\n      add\n      0x40\n      mstore\n      dup1\n        /* \"contracts/twitter.sol\":1683:1689  tweets */\n      0x01\n        /* \"contracts/twitter.sol\":1683:1701  tweets[msg.sender] */\n      0x00\n        /* \"contracts/twitter.sol\":1690:1700  msg.sender */\n      caller\n        /* \"contracts/twitter.sol\":1683:1701  tweets[msg.sender] */\n      0xffffffffffffffffffffffffffffffffffffffff\n      and\n      0xffffffffffffffffffffffffffffffffffffffff\n      and\n      dup2\n      mstore\n      0x20\n      add\n      swap1\n      dup2\n      mstore\n      0x20\n      add\n      0x00\n      keccak256\n        /* \"contracts/twitter.sol\":1683:1708  tweets[msg.sender].length */\n      dup1\n      sload\n      swap1\n      pop\n        /* \"contracts/twitter.sol\":1659:1843  Tweet({... */\n      dup2\n      mstore\n      0x20\n      add\n        /* \"contracts/twitter.sol\":1730:1740  msg.sender */\n      caller\n        /* \"contracts/twitter.sol\":1659:1843  Tweet({... */\n      0xffffffffffffffffffffffffffffffffffffffff\n      and\n      dup2\n      mstore\n      0x20\n      add\n        /* \"contracts/twitter.sol\":1763:1769  _tweet */\n      dup4\n        /* \"contracts/twitter.sol\":1659:1843  Tweet({... */\n      dup2\n      mstore\n      0x20\n      add\n        /* \"contracts/twitter.sol\":1794:1809  block.timestamp */\n      timestamp\n        /* \"contracts/twitter.sol\":1659:1843  Tweet({... */\n      dup2\n      mstore\n      0x20\n      add\n        /* \"contracts/twitter.sol\":1830:1831  0 */\n      0x00\n        /* \"contracts/twitter.sol\":1659:1843  Tweet({... */\n      dup2\n      mstore\n      pop\n        /* \"contracts/twitter.sol\":1635:1843  Tweet memory newTweet = Tweet({... */\n      swap1\n      pop\n        /* \"contracts/twitter.sol\":1853:1859  tweets */\n      0x01\n        /* \"contracts/twitter.sol\":1853:1871  tweets[msg.sender] */\n      0x00\n        /* \"contracts/twitter.sol\":1860:1870  msg.sender */\n      caller\n        /* \"contracts/twitter.sol\":1853:1871  tweets[msg.sender] */\n      0xffffffffffffffffffffffffffffffffffffffff\n      and\n      0xffffffffffffffffffffffffffffffffffffffff\n      and\n      dup2\n      mstore\n      0x20\n      add\n      swap1\n      dup2\n      mstore\n      0x20\n      add\n      0x00\n      keccak256\n        /* \"contracts/twitter.sol\":1877:1885  newTweet */\n      dup2\n        /* \"contracts/twitter.sol\":1853:1886  tweets[msg.sender].push(newTweet) */\n      swap1\n      dup1\n      0x01\n      dup2\n      sload\n      add\n      dup1\n      dup3\n      sstore\n      dup1\n      swap2\n      pop\n      pop\n      0x01\n      swap1\n      sub\n      swap1\n      0x00\n      mstore\n      keccak256(0x00, 0x20)\n      swap1\n      0x05\n      mul\n      add\n      0x00\n      swap1\n      swap2\n      swap1\n      swap2\n      swap1\n      swap2\n      pop\n      0x00\n      dup3\n      add\n      mload\n      dup2\n      0x00\n      add\n      sstore\n      0x20\n      dup3\n      add\n      mload\n      dup2\n      0x01\n      add\n      exp(0x0100, 0x00)\n      dup2\n      sload\n      dup2\n      0xffffffffffffffffffffffffffffffffffffffff\n      mul\n      not\n      and\n      swap1\n      dup4\n      0xffffffffffffffffffffffffffffffffffffffff\n      and\n      mul\n      or\n      swap1\n      sstore\n      pop\n      0x40\n      dup3\n      add\n      mload\n      dup2\n      0x02\n      add\n      swap1\n      dup2\n      tag_117\n      swap2\n      swap1\n      tag_118\n      jump\t// in\n    tag_117:\n      pop\n      0x60\n      dup3\n      add\n      mload\n      dup2\n      0x03\n      add\n      sstore\n      0x80\n      dup3\n      add\n      mload\n      dup2\n      0x04\n      add\n      sstore\n      pop\n      pop\n        /* \"contracts/twitter.sol\":1902:1982  tweetCreated(newTweet.id, newTweet.author, newTweet.content, newTweet.timestamp) */\n      0x6e5546a74a8ef6731872256d3bbbf86208675b875b179abed63f4ed747a30cfb\n        /* \"contracts/twitter.sol\":1915:1923  newTweet */\n      dup2\n        /* \"contracts/twitter.sol\":1915:1926  newTweet.id */\n      0x00\n      add\n      mload\n        /* \"contracts/twitter.sol\":1928:1936  newTweet */\n      dup3\n        /* \"contracts/twitter.sol\":1928:1943  newTweet.author */\n      0x20\n      add\n      mload\n        /* \"contracts/twitter.sol\":1945:1953  newTweet */\n      dup4\n        /* \"contracts/twitter.sol\":1945:1961  newTweet.content */\n      0x40\n      add\n      mload\n        /* \"contracts/twitter.sol\":1963:1971  newTweet */\n      dup5\n        /* \"contracts/twitter.sol\":1963:1981  newTweet.timestamp */\n      0x60\n      add\n      mload\n        /* \"contracts/twitter.sol\":1902:1982  tweetCreated(newTweet.id, newTweet.author, newTweet.content, newTweet.timestamp) */\n      mload(0x40)\n      tag_119\n      swap5\n      swap4\n      swap3\n      swap2\n      swap1\n      tag_120\n      jump\t// in\n    tag_119:\n      mload(0x40)\n      dup1\n      swap2\n      sub\n      swap1\n      log1\n        /* \"contracts/twitter.sol\":1545:1989  {... */\n      pop\n        /* \"contracts/twitter.sol\":1495:1989  function createTweet(string memory _tweet) public {... */\n      pop\n      jump\t// out\n        /* \"contracts/twitter.sol\":317:337  address public owner */\n    tag_42:\n      0x02\n      0x00\n      swap1\n      sload\n      swap1\n      0x0100\n      exp\n      swap1\n      div\n      0xffffffffffffffffffffffffffffffffffffffff\n      and\n      dup2\n      jump\t// out\n        /* \"contracts/twitter.sol\":1995:2115  function getTweet( uint256 _index) public view returns (Tweet memory) {... */\n    tag_48:\n        /* \"contracts/twitter.sol\":2051:2063  Tweet memory */\n      tag_121\n      tag_122\n      jump\t// in\n    tag_121:\n        /* \"contracts/twitter.sol\":2082:2088  tweets */\n      0x01\n        /* \"contracts/twitter.sol\":2082:2100  tweets[msg.sender] */\n      0x00\n        /* \"contracts/twitter.sol\":2089:2099  msg.sender */\n      caller\n        /* \"contracts/twitter.sol\":2082:2100  tweets[msg.sender] */\n      0xffffffffffffffffffffffffffffffffffffffff\n      and\n      0xffffffffffffffffffffffffffffffffffffffff\n      and\n      dup2\n      mstore\n      0x20\n      add\n      swap1\n      dup2\n      mstore\n      0x20\n      add\n      0x00\n      keccak256\n        /* \"contracts/twitter.sol\":2101:2107  _index */\n      dup3\n        /* \"contracts/twitter.sol\":2082:2108  tweets[msg.sender][_index] */\n      dup2\n      sload\n      dup2\n      lt\n      tag_124\n      jumpi\n      tag_125\n      tag_62\n      jump\t// in\n    tag_125:\n    tag_124:\n      swap1\n      0x00\n      mstore\n      keccak256(0x00, 0x20)\n      swap1\n      0x05\n      mul\n      add\n        /* \"contracts/twitter.sol\":2075:2108  return tweets[msg.sender][_index] */\n      mload(0x40)\n      dup1\n      0xa0\n      add\n      0x40\n      mstore\n      swap1\n      dup2\n      0x00\n      dup3\n      add\n      sload\n      dup2\n      mstore\n      0x20\n      add\n      0x01\n      dup3\n      add\n      0x00\n      swap1\n      sload\n      swap1\n      0x0100\n      exp\n      swap1\n      div\n      0xffffffffffffffffffffffffffffffffffffffff\n      and\n      0xffffffffffffffffffffffffffffffffffffffff\n      and\n      0xffffffffffffffffffffffffffffffffffffffff\n      and\n      dup2\n      mstore\n      0x20\n      add\n      0x02\n      dup3\n      add\n      dup1\n      sload\n      tag_127\n      swap1\n      tag_54\n      jump\t// in\n    tag_127:\n      dup1\n      0x1f\n      add\n      0x20\n      dup1\n      swap2\n      div\n      mul\n      0x20\n      add\n      mload(0x40)\n      swap1\n      dup2\n      add\n      0x40\n      mstore\n      dup1\n      swap3\n      swap2\n      swap1\n      dup2\n      dup2\n      mstore\n      0x20\n      add\n      dup3\n      dup1\n      sload\n      tag_128\n      swap1\n      tag_54\n      jump\t// in\n    tag_128:\n      dup1\n      iszero\n      tag_129\n      jumpi\n      dup1\n      0x1f\n      lt\n      tag_130\n      jumpi\n      0x0100\n      dup1\n      dup4\n      sload\n      div\n      mul\n      dup4\n      mstore\n      swap2\n      0x20\n      add\n      swap2\n      jump(tag_129)\n    tag_130:\n      dup3\n      add\n      swap2\n      swap1\n      0x00\n      mstore\n      keccak256(0x00, 0x20)\n      swap1\n    tag_131:\n      dup2\n      sload\n      dup2\n      mstore\n      swap1\n      0x01\n      add\n      swap1\n      0x20\n      add\n      dup1\n      dup4\n      gt\n      tag_131\n      jumpi\n      dup3\n      swap1\n      sub\n      0x1f\n      and\n      dup3\n      add\n      swap2\n    tag_129:\n      pop\n      pop\n      pop\n      pop\n      pop\n      dup2\n      mstore\n      0x20\n      add\n      0x03\n      dup3\n      add\n      sload\n      dup2\n      mstore\n      0x20\n      add\n      0x04\n      dup3\n      add\n      sload\n      dup2\n      mstore\n      pop\n      pop\n      swap1\n      pop\n        /* \"contracts/twitter.sol\":1995:2115  function getTweet( uint256 _index) public view returns (Tweet memory) {... */\n      swap2\n      swap1\n      pop\n      jump\t// out\n    tag_122:\n      mload(0x40)\n      dup1\n      0xa0\n      add\n      0x40\n      mstore\n      dup1\n      0x00\n      dup2\n      mstore\n      0x20\n      add\n      and(0xffffffffffffffffffffffffffffffffffffffff, 0x00)\n      dup2\n      mstore\n      0x20\n      add\n      0x60\n      dup2\n      mstore\n      0x20\n      add\n      0x00\n      dup2\n      mstore\n      0x20\n      add\n      0x00\n      dup2\n      mstore\n      pop\n      swap1\n      jump\t// out\n        /* \"#utility.yul\":7:82   */\n    tag_132:\n        /* \"#utility.yul\":40:46   */\n      0x00\n        /* \"#utility.yul\":73:75   */\n      0x40\n        /* \"#utility.yul\":67:76   */\n      mload\n        /* \"#utility.yul\":57:76   */\n      swap1\n      pop\n        /* \"#utility.yul\":7:82   */\n      swap1\n      jump\t// out\n        /* \"#utility.yul\":88:205   */\n    tag_133:\n        /* \"#utility.yul\":197:198   */\n      0x00\n        /* \"#utility.yul\":194:195   */\n      0x00\n        /* \"#utility.yul\":187:199   */\n      revert\n        /* \"#utility.yul\":211:328   */\n    tag_134:\n        /* \"#utility.yul\":320:321   */\n      0x00\n        /* \"#utility.yul\":317:318   */\n      0x00\n        /* \"#utility.yul\":310:322   */\n      revert\n        /* \"#utility.yul\":334:460   */\n    tag_135:\n        /* \"#utility.yul\":371:378   */\n      0x00\n        /* \"#utility.yul\":411:453   */\n      0xffffffffffffffffffffffffffffffffffffffff\n        /* \"#utility.yul\":404:409   */\n      dup3\n        /* \"#utility.yul\":400:454   */\n      and\n        /* \"#utility.yul\":389:454   */\n      swap1\n      pop\n        /* \"#utility.yul\":334:460   */\n      swap2\n      swap1\n      pop\n      jump\t// out\n        /* \"#utility.yul\":466:562   */\n    tag_136:\n        /* \"#utility.yul\":503:510   */\n      0x00\n        /* \"#utility.yul\":532:556   */\n      tag_204\n        /* \"#utility.yul\":550:555   */\n      dup3\n        /* \"#utility.yul\":532:556   */\n      tag_135\n      jump\t// in\n    tag_204:\n        /* \"#utility.yul\":521:556   */\n      swap1\n      pop\n        /* \"#utility.yul\":466:562   */\n      swap2\n      swap1\n      pop\n      jump\t// out\n        /* \"#utility.yul\":568:690   */\n    tag_137:\n        /* \"#utility.yul\":641:665   */\n      tag_206\n        /* \"#utility.yul\":659:664   */\n      dup2\n        /* \"#utility.yul\":641:665   */\n      tag_136\n      jump\t// in\n    tag_206:\n        /* \"#utility.yul\":634:639   */\n      dup2\n        /* \"#utility.yul\":631:666   */\n      eq\n        /* \"#utility.yul\":621:684   */\n      tag_207\n      jumpi\n        /* \"#utility.yul\":680:681   */\n      0x00\n        /* \"#utility.yul\":677:678   */\n      0x00\n        /* \"#utility.yul\":670:682   */\n      revert\n        /* \"#utility.yul\":621:684   */\n    tag_207:\n        /* \"#utility.yul\":568:690   */\n      pop\n      jump\t// out\n        /* \"#utility.yul\":696:835   */\n    tag_138:\n        /* \"#utility.yul\":742:747   */\n      0x00\n        /* \"#utility.yul\":780:786   */\n      dup2\n        /* \"#utility.yul\":767:787   */\n      calldataload\n        /* \"#utility.yul\":758:787   */\n      swap1\n      pop\n        /* \"#utility.yul\":796:829   */\n      tag_209\n        /* \"#utility.yul\":823:828   */\n      dup2\n        /* \"#utility.yul\":796:829   */\n      tag_137\n      jump\t// in\n    tag_209:\n        /* \"#utility.yul\":696:835   */\n      swap3\n      swap2\n      pop\n      pop\n      jump\t// out\n        /* \"#utility.yul\":841:918   */\n    tag_139:\n        /* \"#utility.yul\":878:885   */\n      0x00\n        /* \"#utility.yul\":907:912   */\n      dup2\n        /* \"#utility.yul\":896:912   */\n      swap1\n      pop\n        /* \"#utility.yul\":841:918   */\n      swap2\n      swap1\n      pop\n      jump\t// out\n        /* \"#utility.yul\":924:1046   */\n    tag_140:\n        /* \"#utility.yul\":997:1021   */\n      tag_212\n        /* \"#utility.yul\":1015:1020   */\n      dup2\n        /* \"#utility.yul\":997:1021   */\n      tag_139\n      jump\t// in\n    tag_212:\n        /* \"#utility.yul\":990:995   */\n      dup2\n        /* \"#utility.yul\":987:1022   */\n      eq\n        /* \"#utility.yul\":977:1040   */\n      tag_213\n      jumpi\n        /* \"#utility.yul\":1036:1037   */\n      0x00\n        /* \"#utility.yul\":1033:1034   */\n      0x00\n        /* \"#utility.yul\":1026:1038   */\n      revert\n        /* \"#utility.yul\":977:1040   */\n    tag_213:\n        /* \"#utility.yul\":924:1046   */\n      pop\n      jump\t// out\n        /* \"#utility.yul\":1052:1191   */\n    tag_141:\n        /* \"#utility.yul\":1098:1103   */\n      0x00\n        /* \"#utility.yul\":1136:1142   */\n      dup2\n        /* \"#utility.yul\":1123:1143   */\n      calldataload\n        /* \"#utility.yul\":1114:1143   */\n      swap1\n      pop\n        /* \"#utility.yul\":1152:1185   */\n      tag_215\n        /* \"#utility.yul\":1179:1184   */\n      dup2\n        /* \"#utility.yul\":1152:1185   */\n      tag_140\n      jump\t// in\n    tag_215:\n        /* \"#utility.yul\":1052:1191   */\n      swap3\n      swap2\n      pop\n      pop\n      jump\t// out\n        /* \"#utility.yul\":1197:1671   */\n    tag_15:\n        /* \"#utility.yul\":1265:1271   */\n      0x00\n        /* \"#utility.yul\":1273:1279   */\n      0x00\n        /* \"#utility.yul\":1322:1324   */\n      0x40\n        /* \"#utility.yul\":1310:1319   */\n      dup4\n        /* \"#utility.yul\":1301:1308   */\n      dup6\n        /* \"#utility.yul\":1297:1320   */\n      sub\n        /* \"#utility.yul\":1293:1325   */\n      slt\n        /* \"#utility.yul\":1290:1409   */\n      iszero\n      tag_217\n      jumpi\n        /* \"#utility.yul\":1328:1407   */\n      tag_218\n      tag_133\n      jump\t// in\n    tag_218:\n        /* \"#utility.yul\":1290:1409   */\n    tag_217:\n        /* \"#utility.yul\":1448:1449   */\n      0x00\n        /* \"#utility.yul\":1473:1526   */\n      tag_219\n        /* \"#utility.yul\":1518:1525   */\n      dup6\n        /* \"#utility.yul\":1509:1515   */\n      dup3\n        /* \"#utility.yul\":1498:1507   */\n      dup7\n        /* \"#utility.yul\":1494:1516   */\n      add\n        /* \"#utility.yul\":1473:1526   */\n      tag_138\n      jump\t// in\n    tag_219:\n        /* \"#utility.yul\":1463:1526   */\n      swap3\n      pop\n        /* \"#utility.yul\":1419:1536   */\n      pop\n        /* \"#utility.yul\":1575:1577   */\n      0x20\n        /* \"#utility.yul\":1601:1654   */\n      tag_220\n        /* \"#utility.yul\":1646:1653   */\n      dup6\n        /* \"#utility.yul\":1637:1643   */\n      dup3\n        /* \"#utility.yul\":1626:1635   */\n      dup7\n        /* \"#utility.yul\":1622:1644   */\n      add\n        /* \"#utility.yul\":1601:1654   */\n      tag_141\n      jump\t// in\n    tag_220:\n        /* \"#utility.yul\":1591:1654   */\n      swap2\n      pop\n        /* \"#utility.yul\":1546:1664   */\n      pop\n        /* \"#utility.yul\":1197:1671   */\n      swap3\n      pop\n      swap3\n      swap1\n      pop\n      jump\t// out\n        /* \"#utility.yul\":1677:1795   */\n    tag_142:\n        /* \"#utility.yul\":1764:1788   */\n      tag_222\n        /* \"#utility.yul\":1782:1787   */\n      dup2\n        /* \"#utility.yul\":1764:1788   */\n      tag_139\n      jump\t// in\n    tag_222:\n        /* \"#utility.yul\":1759:1762   */\n      dup3\n        /* \"#utility.yul\":1752:1789   */\n      mstore\n        /* \"#utility.yul\":1677:1795   */\n      pop\n      pop\n      jump\t// out\n        /* \"#utility.yul\":1801:1919   */\n    tag_143:\n        /* \"#utility.yul\":1888:1912   */\n      tag_224\n        /* \"#utility.yul\":1906:1911   */\n      dup2\n        /* \"#utility.yul\":1888:1912   */\n      tag_136\n      jump\t// in\n    tag_224:\n        /* \"#utility.yul\":1883:1886   */\n      dup3\n        /* \"#utility.yul\":1876:1913   */\n      mstore\n        /* \"#utility.yul\":1801:1919   */\n      pop\n      pop\n      jump\t// out\n        /* \"#utility.yul\":1925:2024   */\n    tag_144:\n        /* \"#utility.yul\":1977:1983   */\n      0x00\n        /* \"#utility.yul\":2011:2016   */\n      dup2\n        /* \"#utility.yul\":2005:2017   */\n      mload\n        /* \"#utility.yul\":1995:2017   */\n      swap1\n      pop\n        /* \"#utility.yul\":1925:2024   */\n      swap2\n      swap1\n      pop\n      jump\t// out\n        /* \"#utility.yul\":2030:2199   */\n    tag_145:\n        /* \"#utility.yul\":2114:2125   */\n      0x00\n        /* \"#utility.yul\":2148:2154   */\n      dup3\n        /* \"#utility.yul\":2143:2146   */\n      dup3\n        /* \"#utility.yul\":2136:2155   */\n      mstore\n        /* \"#utility.yul\":2188:2192   */\n      0x20\n        /* \"#utility.yul\":2183:2186   */\n      dup3\n        /* \"#utility.yul\":2179:2193   */\n      add\n        /* \"#utility.yul\":2164:2193   */\n      swap1\n      pop\n        /* \"#utility.yul\":2030:2199   */\n      swap3\n      swap2\n      pop\n      pop\n      jump\t// out\n        /* \"#utility.yul\":2205:2344   */\n    tag_146:\n        /* \"#utility.yul\":2294:2300   */\n      dup3\n        /* \"#utility.yul\":2289:2292   */\n      dup2\n        /* \"#utility.yul\":2284:2287   */\n      dup4\n        /* \"#utility.yul\":2278:2301   */\n      mcopy\n        /* \"#utility.yul\":2335:2336   */\n      0x00\n        /* \"#utility.yul\":2326:2332   */\n      dup4\n        /* \"#utility.yul\":2321:2324   */\n      dup4\n        /* \"#utility.yul\":2317:2333   */\n      add\n        /* \"#utility.yul\":2310:2337   */\n      mstore\n        /* \"#utility.yul\":2205:2344   */\n      pop\n      pop\n      pop\n      jump\t// out\n        /* \"#utility.yul\":2350:2452   */\n    tag_147:\n        /* \"#utility.yul\":2391:2397   */\n      0x00\n        /* \"#utility.yul\":2442:2444   */\n      0x1f\n        /* \"#utility.yul\":2438:2445   */\n      not\n        /* \"#utility.yul\":2433:2435   */\n      0x1f\n        /* \"#utility.yul\":2426:2431   */\n      dup4\n        /* \"#utility.yul\":2422:2436   */\n      add\n        /* \"#utility.yul\":2418:2446   */\n      and\n        /* \"#utility.yul\":2408:2446   */\n      swap1\n      pop\n        /* \"#utility.yul\":2350:2452   */\n      swap2\n      swap1\n      pop\n      jump\t// out\n        /* \"#utility.yul\":2458:2835   */\n    tag_148:\n        /* \"#utility.yul\":2546:2549   */\n      0x00\n        /* \"#utility.yul\":2574:2613   */\n      tag_230\n        /* \"#utility.yul\":2607:2612   */\n      dup3\n        /* \"#utility.yul\":2574:2613   */\n      tag_144\n      jump\t// in\n    tag_230:\n        /* \"#utility.yul\":2629:2700   */\n      tag_231\n        /* \"#utility.yul\":2693:2699   */\n      dup2\n        /* \"#utility.yul\":2688:2691   */\n      dup6\n        /* \"#utility.yul\":2629:2700   */\n      tag_145\n      jump\t// in\n    tag_231:\n        /* \"#utility.yul\":2622:2700   */\n      swap4\n      pop\n        /* \"#utility.yul\":2709:2774   */\n      tag_232\n        /* \"#utility.yul\":2767:2773   */\n      dup2\n        /* \"#utility.yul\":2762:2765   */\n      dup6\n        /* \"#utility.yul\":2755:2759   */\n      0x20\n        /* \"#utility.yul\":2748:2753   */\n      dup7\n        /* \"#utility.yul\":2744:2760   */\n      add\n        /* \"#utility.yul\":2709:2774   */\n      tag_146\n      jump\t// in\n    tag_232:\n        /* \"#utility.yul\":2799:2828   */\n      tag_233\n        /* \"#utility.yul\":2821:2827   */\n      dup2\n        /* \"#utility.yul\":2799:2828   */\n      tag_147\n      jump\t// in\n    tag_233:\n        /* \"#utility.yul\":2794:2797   */\n      dup5\n        /* \"#utility.yul\":2790:2829   */\n      add\n        /* \"#utility.yul\":2783:2829   */\n      swap2\n      pop\n        /* \"#utility.yul\":2550:2835   */\n      pop\n        /* \"#utility.yul\":2458:2835   */\n      swap3\n      swap2\n      pop\n      pop\n      jump\t// out\n        /* \"#utility.yul\":2841:3596   */\n    tag_18:\n        /* \"#utility.yul\":3066:3070   */\n      0x00\n        /* \"#utility.yul\":3104:3107   */\n      0xa0\n        /* \"#utility.yul\":3093:3102   */\n      dup3\n        /* \"#utility.yul\":3089:3108   */\n      add\n        /* \"#utility.yul\":3081:3108   */\n      swap1\n      pop\n        /* \"#utility.yul\":3118:3189   */\n      tag_235\n        /* \"#utility.yul\":3186:3187   */\n      0x00\n        /* \"#utility.yul\":3175:3184   */\n      dup4\n        /* \"#utility.yul\":3171:3188   */\n      add\n        /* \"#utility.yul\":3162:3168   */\n      dup9\n        /* \"#utility.yul\":3118:3189   */\n      tag_142\n      jump\t// in\n    tag_235:\n        /* \"#utility.yul\":3199:3271   */\n      tag_236\n        /* \"#utility.yul\":3267:3269   */\n      0x20\n        /* \"#utility.yul\":3256:3265   */\n      dup4\n        /* \"#utility.yul\":3252:3270   */\n      add\n        /* \"#utility.yul\":3243:3249   */\n      dup8\n        /* \"#utility.yul\":3199:3271   */\n      tag_143\n      jump\t// in\n    tag_236:\n        /* \"#utility.yul\":3318:3327   */\n      dup2\n        /* \"#utility.yul\":3312:3316   */\n      dup2\n        /* \"#utility.yul\":3308:3328   */\n      sub\n        /* \"#utility.yul\":3303:3305   */\n      0x40\n        /* \"#utility.yul\":3292:3301   */\n      dup4\n        /* \"#utility.yul\":3288:3306   */\n      add\n        /* \"#utility.yul\":3281:3329   */\n      mstore\n        /* \"#utility.yul\":3346:3424   */\n      tag_237\n        /* \"#utility.yul\":3419:3423   */\n      dup2\n        /* \"#utility.yul\":3410:3416   */\n      dup7\n        /* \"#utility.yul\":3346:3424   */\n      tag_148\n      jump\t// in\n    tag_237:\n        /* \"#utility.yul\":3338:3424   */\n      swap1\n      pop\n        /* \"#utility.yul\":3434:3506   */\n      tag_238\n        /* \"#utility.yul\":3502:3504   */\n      0x60\n        /* \"#utility.yul\":3491:3500   */\n      dup4\n        /* \"#utility.yul\":3487:3505   */\n      add\n        /* \"#utility.yul\":3478:3484   */\n      dup6\n        /* \"#utility.yul\":3434:3506   */\n      tag_142\n      jump\t// in\n    tag_238:\n        /* \"#utility.yul\":3516:3589   */\n      tag_239\n        /* \"#utility.yul\":3584:3587   */\n      0x80\n        /* \"#utility.yul\":3573:3582   */\n      dup4\n        /* \"#utility.yul\":3569:3588   */\n      add\n        /* \"#utility.yul\":3560:3566   */\n      dup5\n        /* \"#utility.yul\":3516:3589   */\n      tag_142\n      jump\t// in\n    tag_239:\n        /* \"#utility.yul\":2841:3596   */\n      swap7\n      swap6\n      pop\n      pop\n      pop\n      pop\n      pop\n      pop\n      jump\t// out\n        /* \"#utility.yul\":3602:3737   */\n    tag_149:\n        /* \"#utility.yul\":3690:3696   */\n      0x00\n        /* \"#utility.yul\":3724:3729   */\n      dup2\n        /* \"#utility.yul\":3718:3730   */\n      mload\n        /* \"#utility.yul\":3708:3730   */\n      swap1\n      pop\n        /* \"#utility.yul\":3602:3737   */\n      swap2\n      swap1\n      pop\n      jump\t// out\n        /* \"#utility.yul\":3743:3948   */\n    tag_150:\n        /* \"#utility.yul\":3863:3874   */\n      0x00\n        /* \"#utility.yul\":3897:3903   */\n      dup3\n        /* \"#utility.yul\":3892:3895   */\n      dup3\n        /* \"#utility.yul\":3885:3904   */\n      mstore\n        /* \"#utility.yul\":3937:3941   */\n      0x20\n        /* \"#utility.yul\":3932:3935   */\n      dup3\n        /* \"#utility.yul\":3928:3942   */\n      add\n        /* \"#utility.yul\":3913:3942   */\n      swap1\n      pop\n        /* \"#utility.yul\":3743:3948   */\n      swap3\n      swap2\n      pop\n      pop\n      jump\t// out\n        /* \"#utility.yul\":3954:4107   */\n    tag_151:\n        /* \"#utility.yul\":4042:4046   */\n      0x00\n        /* \"#utility.yul\":4065:4068   */\n      dup2\n        /* \"#utility.yul\":4057:4068   */\n      swap1\n      pop\n        /* \"#utility.yul\":4095:4099   */\n      0x20\n        /* \"#utility.yul\":4090:4093   */\n      dup3\n        /* \"#utility.yul\":4086:4100   */\n      add\n        /* \"#utility.yul\":4078:4100   */\n      swap1\n      pop\n        /* \"#utility.yul\":3954:4107   */\n      swap2\n      swap1\n      pop\n      jump\t// out\n        /* \"#utility.yul\":4113:4221   */\n    tag_152:\n        /* \"#utility.yul\":4190:4214   */\n      tag_244\n        /* \"#utility.yul\":4208:4213   */\n      dup2\n        /* \"#utility.yul\":4190:4214   */\n      tag_139\n      jump\t// in\n    tag_244:\n        /* \"#utility.yul\":4185:4188   */\n      dup3\n        /* \"#utility.yul\":4178:4215   */\n      mstore\n        /* \"#utility.yul\":4113:4221   */\n      pop\n      pop\n      jump\t// out\n        /* \"#utility.yul\":4227:4335   */\n    tag_153:\n        /* \"#utility.yul\":4304:4328   */\n      tag_246\n        /* \"#utility.yul\":4322:4327   */\n      dup2\n        /* \"#utility.yul\":4304:4328   */\n      tag_136\n      jump\t// in\n    tag_246:\n        /* \"#utility.yul\":4299:4302   */\n      dup3\n        /* \"#utility.yul\":4292:4329   */\n      mstore\n        /* \"#utility.yul\":4227:4335   */\n      pop\n      pop\n      jump\t// out\n        /* \"#utility.yul\":4341:4500   */\n    tag_154:\n        /* \"#utility.yul\":4415:4426   */\n      0x00\n        /* \"#utility.yul\":4449:4455   */\n      dup3\n        /* \"#utility.yul\":4444:4447   */\n      dup3\n        /* \"#utility.yul\":4437:4456   */\n      mstore\n        /* \"#utility.yul\":4489:4493   */\n      0x20\n        /* \"#utility.yul\":4484:4487   */\n      dup3\n        /* \"#utility.yul\":4480:4494   */\n      add\n        /* \"#utility.yul\":4465:4494   */\n      swap1\n      pop\n        /* \"#utility.yul\":4341:4500   */\n      swap3\n      swap2\n      pop\n      pop\n      jump\t// out\n        /* \"#utility.yul\":4506:4863   */\n    tag_155:\n        /* \"#utility.yul\":4584:4587   */\n      0x00\n        /* \"#utility.yul\":4612:4651   */\n      tag_249\n        /* \"#utility.yul\":4645:4650   */\n      dup3\n        /* \"#utility.yul\":4612:4651   */\n      tag_144\n      jump\t// in\n    tag_249:\n        /* \"#utility.yul\":4667:4728   */\n      tag_250\n        /* \"#utility.yul\":4721:4727   */\n      dup2\n        /* \"#utility.yul\":4716:4719   */\n      dup6\n        /* \"#utility.yul\":4667:4728   */\n      tag_154\n      jump\t// in\n    tag_250:\n        /* \"#utility.yul\":4660:4728   */\n      swap4\n      pop\n        /* \"#utility.yul\":4737:4802   */\n      tag_251\n        /* \"#utility.yul\":4795:4801   */\n      dup2\n        /* \"#utility.yul\":4790:4793   */\n      dup6\n        /* \"#utility.yul\":4783:4787   */\n      0x20\n        /* \"#utility.yul\":4776:4781   */\n      dup7\n        /* \"#utility.yul\":4772:4788   */\n      add\n        /* \"#utility.yul\":4737:4802   */\n      tag_146\n      jump\t// in\n    tag_251:\n        /* \"#utility.yul\":4827:4856   */\n      tag_252\n        /* \"#utility.yul\":4849:4855   */\n      dup2\n        /* \"#utility.yul\":4827:4856   */\n      tag_147\n      jump\t// in\n    tag_252:\n        /* \"#utility.yul\":4822:4825   */\n      dup5\n        /* \"#utility.yul\":4818:4857   */\n      add\n        /* \"#utility.yul\":4811:4857   */\n      swap2\n      pop\n        /* \"#utility.yul\":4588:4863   */\n      pop\n        /* \"#utility.yul\":4506:4863   */\n      swap3\n      swap2\n      pop\n      pop\n      jump\t// out\n        /* \"#utility.yul\":4921:6040   */\n    tag_156:\n        /* \"#utility.yul\":5022:5025   */\n      0x00\n        /* \"#utility.yul\":5058:5062   */\n      0xa0\n        /* \"#utility.yul\":5053:5056   */\n      dup4\n        /* \"#utility.yul\":5049:5063   */\n      add\n        /* \"#utility.yul\":5143:5147   */\n      0x00\n        /* \"#utility.yul\":5136:5141   */\n      dup4\n        /* \"#utility.yul\":5132:5148   */\n      add\n        /* \"#utility.yul\":5126:5149   */\n      mload\n        /* \"#utility.yul\":5162:5225   */\n      tag_254\n        /* \"#utility.yul\":5219:5223   */\n      0x00\n        /* \"#utility.yul\":5214:5217   */\n      dup7\n        /* \"#utility.yul\":5210:5224   */\n      add\n        /* \"#utility.yul\":5196:5208   */\n      dup3\n        /* \"#utility.yul\":5162:5225   */\n      tag_152\n      jump\t// in\n    tag_254:\n        /* \"#utility.yul\":5073:5235   */\n      pop\n        /* \"#utility.yul\":5319:5323   */\n      0x20\n        /* \"#utility.yul\":5312:5317   */\n      dup4\n        /* \"#utility.yul\":5308:5324   */\n      add\n        /* \"#utility.yul\":5302:5325   */\n      mload\n        /* \"#utility.yul\":5338:5401   */\n      tag_255\n        /* \"#utility.yul\":5395:5399   */\n      0x20\n        /* \"#utility.yul\":5390:5393   */\n      dup7\n        /* \"#utility.yul\":5386:5400   */\n      add\n        /* \"#utility.yul\":5372:5384   */\n      dup3\n        /* \"#utility.yul\":5338:5401   */\n      tag_153\n      jump\t// in\n    tag_255:\n        /* \"#utility.yul\":5245:5411   */\n      pop\n        /* \"#utility.yul\":5496:5500   */\n      0x40\n        /* \"#utility.yul\":5489:5494   */\n      dup4\n        /* \"#utility.yul\":5485:5501   */\n      add\n        /* \"#utility.yul\":5479:5502   */\n      mload\n        /* \"#utility.yul\":5549:5552   */\n      dup5\n        /* \"#utility.yul\":5543:5547   */\n      dup3\n        /* \"#utility.yul\":5539:5553   */\n      sub\n        /* \"#utility.yul\":5532:5536   */\n      0x40\n        /* \"#utility.yul\":5527:5530   */\n      dup7\n        /* \"#utility.yul\":5523:5537   */\n      add\n        /* \"#utility.yul\":5516:5554   */\n      mstore\n        /* \"#utility.yul\":5575:5648   */\n      tag_256\n        /* \"#utility.yul\":5643:5647   */\n      dup3\n        /* \"#utility.yul\":5629:5641   */\n      dup3\n        /* \"#utility.yul\":5575:5648   */\n      tag_155\n      jump\t// in\n    tag_256:\n        /* \"#utility.yul\":5567:5648   */\n      swap2\n      pop\n        /* \"#utility.yul\":5421:5659   */\n      pop\n        /* \"#utility.yul\":5746:5750   */\n      0x60\n        /* \"#utility.yul\":5739:5744   */\n      dup4\n        /* \"#utility.yul\":5735:5751   */\n      add\n        /* \"#utility.yul\":5729:5752   */\n      mload\n        /* \"#utility.yul\":5765:5828   */\n      tag_257\n        /* \"#utility.yul\":5822:5826   */\n      0x60\n        /* \"#utility.yul\":5817:5820   */\n      dup7\n        /* \"#utility.yul\":5813:5827   */\n      add\n        /* \"#utility.yul\":5799:5811   */\n      dup3\n        /* \"#utility.yul\":5765:5828   */\n      tag_152\n      jump\t// in\n    tag_257:\n        /* \"#utility.yul\":5669:5838   */\n      pop\n        /* \"#utility.yul\":5921:5925   */\n      0x80\n        /* \"#utility.yul\":5914:5919   */\n      dup4\n        /* \"#utility.yul\":5910:5926   */\n      add\n        /* \"#utility.yul\":5904:5927   */\n      mload\n        /* \"#utility.yul\":5940:6003   */\n      tag_258\n        /* \"#utility.yul\":5997:6001   */\n      0x80\n        /* \"#utility.yul\":5992:5995   */\n      dup7\n        /* \"#utility.yul\":5988:6002   */\n      add\n        /* \"#utility.yul\":5974:5986   */\n      dup3\n        /* \"#utility.yul\":5940:6003   */\n      tag_152\n      jump\t// in\n    tag_258:\n        /* \"#utility.yul\":5848:6013   */\n      pop\n        /* \"#utility.yul\":6030:6034   */\n      dup1\n        /* \"#utility.yul\":6023:6034   */\n      swap2\n      pop\n        /* \"#utility.yul\":5027:6040   */\n      pop\n        /* \"#utility.yul\":4921:6040   */\n      swap3\n      swap2\n      pop\n      pop\n      jump\t// out\n        /* \"#utility.yul\":6046:6286   */\n    tag_157:\n        /* \"#utility.yul\":6157:6167   */\n      0x00\n        /* \"#utility.yul\":6192:6280   */\n      tag_260\n        /* \"#utility.yul\":6276:6279   */\n      dup4\n        /* \"#utility.yul\":6268:6274   */\n      dup4\n        /* \"#utility.yul\":6192:6280   */\n      tag_156\n      jump\t// in\n    tag_260:\n        /* \"#utility.yul\":6178:6280   */\n      swap1\n      pop\n        /* \"#utility.yul\":6046:6286   */\n      swap3\n      swap2\n      pop\n      pop\n      jump\t// out\n        /* \"#utility.yul\":6292:6426   */\n    tag_158:\n        /* \"#utility.yul\":6383:6387   */\n      0x00\n        /* \"#utility.yul\":6415:6419   */\n      0x20\n        /* \"#utility.yul\":6410:6413   */\n      dup3\n        /* \"#utility.yul\":6406:6420   */\n      add\n        /* \"#utility.yul\":6398:6420   */\n      swap1\n      pop\n        /* \"#utility.yul\":6292:6426   */\n      swap2\n      swap1\n      pop\n      jump\t// out\n        /* \"#utility.yul\":6488:7567   */\n    tag_159:\n        /* \"#utility.yul\":6649:6652   */\n      0x00\n        /* \"#utility.yul\":6678:6753   */\n      tag_263\n        /* \"#utility.yul\":6747:6752   */\n      dup3\n        /* \"#utility.yul\":6678:6753   */\n      tag_149\n      jump\t// in\n    tag_263:\n        /* \"#utility.yul\":6769:6876   */\n      tag_264\n        /* \"#utility.yul\":6869:6875   */\n      dup2\n        /* \"#utility.yul\":6864:6867   */\n      dup6\n        /* \"#utility.yul\":6769:6876   */\n      tag_150\n      jump\t// in\n    tag_264:\n        /* \"#utility.yul\":6762:6876   */\n      swap4\n      pop\n        /* \"#utility.yul\":6902:6905   */\n      dup4\n        /* \"#utility.yul\":6947:6951   */\n      0x20\n        /* \"#utility.yul\":6939:6945   */\n      dup3\n        /* \"#utility.yul\":6935:6952   */\n      mul\n        /* \"#utility.yul\":6930:6933   */\n      dup6\n        /* \"#utility.yul\":6926:6953   */\n      add\n        /* \"#utility.yul\":6977:7054   */\n      tag_265\n        /* \"#utility.yul\":7048:7053   */\n      dup6\n        /* \"#utility.yul\":6977:7054   */\n      tag_151\n      jump\t// in\n    tag_265:\n        /* \"#utility.yul\":7077:7084   */\n      dup1\n        /* \"#utility.yul\":7108:7109   */\n      0x00\n        /* \"#utility.yul\":7093:7522   */\n    tag_266:\n        /* \"#utility.yul\":7118:7124   */\n      dup6\n        /* \"#utility.yul\":7115:7116   */\n      dup2\n        /* \"#utility.yul\":7112:7125   */\n      lt\n        /* \"#utility.yul\":7093:7522   */\n      iszero\n      tag_268\n      jumpi\n        /* \"#utility.yul\":7189:7198   */\n      dup5\n        /* \"#utility.yul\":7183:7187   */\n      dup5\n        /* \"#utility.yul\":7179:7199   */\n      sub\n        /* \"#utility.yul\":7174:7177   */\n      dup10\n        /* \"#utility.yul\":7167:7200   */\n      mstore\n        /* \"#utility.yul\":7240:7246   */\n      dup2\n        /* \"#utility.yul\":7234:7247   */\n      mload\n        /* \"#utility.yul\":7268:7374   */\n      tag_269\n        /* \"#utility.yul\":7369:7373   */\n      dup6\n        /* \"#utility.yul\":7354:7367   */\n      dup3\n        /* \"#utility.yul\":7268:7374   */\n      tag_157\n      jump\t// in\n    tag_269:\n        /* \"#utility.yul\":7260:7374   */\n      swap5\n      pop\n        /* \"#utility.yul\":7397:7478   */\n      tag_270\n        /* \"#utility.yul\":7471:7477   */\n      dup4\n        /* \"#utility.yul\":7397:7478   */\n      tag_158\n      jump\t// in\n    tag_270:\n        /* \"#utility.yul\":7387:7478   */\n      swap3\n      pop\n        /* \"#utility.yul\":7507:7511   */\n      0x20\n        /* \"#utility.yul\":7502:7505   */\n      dup11\n        /* \"#utility.yul\":7498:7512   */\n      add\n        /* \"#utility.yul\":7491:7512   */\n      swap10\n      pop\n        /* \"#utility.yul\":7153:7522   */\n      pop\n        /* \"#utility.yul\":7140:7141   */\n      0x01\n        /* \"#utility.yul\":7137:7138   */\n      dup2\n        /* \"#utility.yul\":7133:7142   */\n      add\n        /* \"#utility.yul\":7128:7142   */\n      swap1\n      pop\n        /* \"#utility.yul\":7093:7522   */\n      jump(tag_266)\n    tag_268:\n        /* \"#utility.yul\":7097:7111   */\n      pop\n        /* \"#utility.yul\":7538:7542   */\n      dup3\n        /* \"#utility.yul\":7531:7542   */\n      swap8\n      pop\n        /* \"#utility.yul\":7558:7561   */\n      dup8\n        /* \"#utility.yul\":7551:7561   */\n      swap6\n      pop\n        /* \"#utility.yul\":6654:7567   */\n      pop\n      pop\n      pop\n      pop\n      pop\n        /* \"#utility.yul\":6488:7567   */\n      swap3\n      swap2\n      pop\n      pop\n      jump\t// out\n        /* \"#utility.yul\":7573:8030   */\n    tag_25:\n        /* \"#utility.yul\":7758:7762   */\n      0x00\n        /* \"#utility.yul\":7796:7798   */\n      0x20\n        /* \"#utility.yul\":7785:7794   */\n      dup3\n        /* \"#utility.yul\":7781:7799   */\n      add\n        /* \"#utility.yul\":7773:7799   */\n      swap1\n      pop\n        /* \"#utility.yul\":7845:7854   */\n      dup2\n        /* \"#utility.yul\":7839:7843   */\n      dup2\n        /* \"#utility.yul\":7835:7855   */\n      sub\n        /* \"#utility.yul\":7831:7832   */\n      0x00\n        /* \"#utility.yul\":7820:7829   */\n      dup4\n        /* \"#utility.yul\":7816:7833   */\n      add\n        /* \"#utility.yul\":7809:7856   */\n      mstore\n        /* \"#utility.yul\":7873:8023   */\n      tag_272\n        /* \"#utility.yul\":8018:8022   */\n      dup2\n        /* \"#utility.yul\":8009:8015   */\n      dup5\n        /* \"#utility.yul\":7873:8023   */\n      tag_159\n      jump\t// in\n    tag_272:\n        /* \"#utility.yul\":7865:8023   */\n      swap1\n      pop\n        /* \"#utility.yul\":7573:8030   */\n      swap3\n      swap2\n      pop\n      pop\n      jump\t// out\n        /* \"#utility.yul\":8036:8125   */\n    tag_160:\n        /* \"#utility.yul\":8072:8079   */\n      0x00\n        /* \"#utility.yul\":8112:8118   */\n      0xffff\n        /* \"#utility.yul\":8105:8110   */\n      dup3\n        /* \"#utility.yul\":8101:8119   */\n      and\n        /* \"#utility.yul\":8090:8119   */\n      swap1\n      pop\n        /* \"#utility.yul\":8036:8125   */\n      swap2\n      swap1\n      pop\n      jump\t// out\n        /* \"#utility.yul\":8131:8251   */\n    tag_161:\n        /* \"#utility.yul\":8203:8226   */\n      tag_275\n        /* \"#utility.yul\":8220:8225   */\n      dup2\n        /* \"#utility.yul\":8203:8226   */\n      tag_160\n      jump\t// in\n    tag_275:\n        /* \"#utility.yul\":8196:8201   */\n      dup2\n        /* \"#utility.yul\":8193:8227   */\n      eq\n        /* \"#utility.yul\":8183:8245   */\n      tag_276\n      jumpi\n        /* \"#utility.yul\":8241:8242   */\n      0x00\n        /* \"#utility.yul\":8238:8239   */\n      0x00\n        /* \"#utility.yul\":8231:8243   */\n      revert\n        /* \"#utility.yul\":8183:8245   */\n    tag_276:\n        /* \"#utility.yul\":8131:8251   */\n      pop\n      jump\t// out\n        /* \"#utility.yul\":8257:8394   */\n    tag_162:\n        /* \"#utility.yul\":8302:8307   */\n      0x00\n        /* \"#utility.yul\":8340:8346   */\n      dup2\n        /* \"#utility.yul\":8327:8347   */\n      calldataload\n        /* \"#utility.yul\":8318:8347   */\n      swap1\n      pop\n        /* \"#utility.yul\":8356:8388   */\n      tag_278\n        /* \"#utility.yul\":8382:8387   */\n      dup2\n        /* \"#utility.yul\":8356:8388   */\n      tag_161\n      jump\t// in\n    tag_278:\n        /* \"#utility.yul\":8257:8394   */\n      swap3\n      swap2\n      pop\n      pop\n      jump\t// out\n        /* \"#utility.yul\":8400:8727   */\n    tag_28:\n        /* \"#utility.yul\":8458:8464   */\n      0x00\n        /* \"#utility.yul\":8507:8509   */\n      0x20\n        /* \"#utility.yul\":8495:8504   */\n      dup3\n        /* \"#utility.yul\":8486:8493   */\n      dup5\n        /* \"#utility.yul\":8482:8505   */\n      sub\n        /* \"#utility.yul\":8478:8510   */\n      slt\n        /* \"#utility.yul\":8475:8594   */\n      iszero\n      tag_280\n      jumpi\n        /* \"#utility.yul\":8513:8592   */\n      tag_281\n      tag_133\n      jump\t// in\n    tag_281:\n        /* \"#utility.yul\":8475:8594   */\n    tag_280:\n        /* \"#utility.yul\":8633:8634   */\n      0x00\n        /* \"#utility.yul\":8658:8710   */\n      tag_282\n        /* \"#utility.yul\":8702:8709   */\n      dup5\n        /* \"#utility.yul\":8693:8699   */\n      dup3\n        /* \"#utility.yul\":8682:8691   */\n      dup6\n        /* \"#utility.yul\":8678:8700   */\n      add\n        /* \"#utility.yul\":8658:8710   */\n      tag_162\n      jump\t// in\n    tag_282:\n        /* \"#utility.yul\":8648:8710   */\n      swap2\n      pop\n        /* \"#utility.yul\":8604:8720   */\n      pop\n        /* \"#utility.yul\":8400:8727   */\n      swap3\n      swap2\n      pop\n      pop\n      jump\t// out\n        /* \"#utility.yul\":8733:8955   */\n    tag_36:\n        /* \"#utility.yul\":8826:8830   */\n      0x00\n        /* \"#utility.yul\":8864:8866   */\n      0x20\n        /* \"#utility.yul\":8853:8862   */\n      dup3\n        /* \"#utility.yul\":8849:8867   */\n      add\n        /* \"#utility.yul\":8841:8867   */\n      swap1\n      pop\n        /* \"#utility.yul\":8877:8948   */\n      tag_284\n        /* \"#utility.yul\":8945:8946   */\n      0x00\n        /* \"#utility.yul\":8934:8943   */\n      dup4\n        /* \"#utility.yul\":8930:8947   */\n      add\n        /* \"#utility.yul\":8921:8927   */\n      dup5\n        /* \"#utility.yul\":8877:8948   */\n      tag_142\n      jump\t// in\n    tag_284:\n        /* \"#utility.yul\":8733:8955   */\n      swap3\n      swap2\n      pop\n      pop\n      jump\t// out\n        /* \"#utility.yul\":8961:9078   */\n    tag_163:\n        /* \"#utility.yul\":9070:9071   */\n      0x00\n        /* \"#utility.yul\":9067:9068   */\n      0x00\n        /* \"#utility.yul\":9060:9072   */\n      revert\n        /* \"#utility.yul\":9084:9201   */\n    tag_164:\n        /* \"#utility.yul\":9193:9194   */\n      0x00\n        /* \"#utility.yul\":9190:9191   */\n      0x00\n        /* \"#utility.yul\":9183:9195   */\n      revert\n        /* \"#utility.yul\":9207:9387   */\n    tag_165:\n        /* \"#utility.yul\":9255:9332   */\n      0x4e487b7100000000000000000000000000000000000000000000000000000000\n        /* \"#utility.yul\":9252:9253   */\n      0x00\n        /* \"#utility.yul\":9245:9333   */\n      mstore\n        /* \"#utility.yul\":9352:9356   */\n      0x41\n        /* \"#utility.yul\":9349:9350   */\n      0x04\n        /* \"#utility.yul\":9342:9357   */\n      mstore\n        /* \"#utility.yul\":9376:9380   */\n      0x24\n        /* \"#utility.yul\":9373:9374   */\n      0x00\n        /* \"#utility.yul\":9366:9381   */\n      revert\n        /* \"#utility.yul\":9393:9674   */\n    tag_166:\n        /* \"#utility.yul\":9476:9503   */\n      tag_289\n        /* \"#utility.yul\":9498:9502   */\n      dup3\n        /* \"#utility.yul\":9476:9503   */\n      tag_147\n      jump\t// in\n    tag_289:\n        /* \"#utility.yul\":9468:9474   */\n      dup2\n        /* \"#utility.yul\":9464:9504   */\n      add\n        /* \"#utility.yul\":9606:9612   */\n      dup2\n        /* \"#utility.yul\":9594:9604   */\n      dup2\n        /* \"#utility.yul\":9591:9613   */\n      lt\n        /* \"#utility.yul\":9570:9588   */\n      0xffffffffffffffff\n        /* \"#utility.yul\":9558:9568   */\n      dup3\n        /* \"#utility.yul\":9555:9589   */\n      gt\n        /* \"#utility.yul\":9552:9614   */\n      or\n        /* \"#utility.yul\":9549:9637   */\n      iszero\n      tag_290\n      jumpi\n        /* \"#utility.yul\":9617:9635   */\n      tag_291\n      tag_165\n      jump\t// in\n    tag_291:\n        /* \"#utility.yul\":9549:9637   */\n    tag_290:\n        /* \"#utility.yul\":9657:9667   */\n      dup1\n        /* \"#utility.yul\":9653:9655   */\n      0x40\n        /* \"#utility.yul\":9646:9668   */\n      mstore\n        /* \"#utility.yul\":9436:9674   */\n      pop\n        /* \"#utility.yul\":9393:9674   */\n      pop\n      pop\n      jump\t// out\n        /* \"#utility.yul\":9680:9809   */\n    tag_167:\n        /* \"#utility.yul\":9714:9720   */\n      0x00\n        /* \"#utility.yul\":9741:9761   */\n      tag_293\n      tag_132\n      jump\t// in\n    tag_293:\n        /* \"#utility.yul\":9731:9761   */\n      swap1\n      pop\n        /* \"#utility.yul\":9770:9803   */\n      tag_294\n        /* \"#utility.yul\":9798:9802   */\n      dup3\n        /* \"#utility.yul\":9790:9796   */\n      dup3\n        /* \"#utility.yul\":9770:9803   */\n      tag_166\n      jump\t// in\n    tag_294:\n        /* \"#utility.yul\":9680:9809   */\n      swap2\n      swap1\n      pop\n      jump\t// out\n        /* \"#utility.yul\":9815:10123   */\n    tag_168:\n        /* \"#utility.yul\":9877:9881   */\n      0x00\n        /* \"#utility.yul\":9967:9985   */\n      0xffffffffffffffff\n        /* \"#utility.yul\":9959:9965   */\n      dup3\n        /* \"#utility.yul\":9956:9986   */\n      gt\n        /* \"#utility.yul\":9953:10009   */\n      iszero\n      tag_296\n      jumpi\n        /* \"#utility.yul\":9989:10007   */\n      tag_297\n      tag_165\n      jump\t// in\n    tag_297:\n        /* \"#utility.yul\":9953:10009   */\n    tag_296:\n        /* \"#utility.yul\":10027:10056   */\n      tag_298\n        /* \"#utility.yul\":10049:10055   */\n      dup3\n        /* \"#utility.yul\":10027:10056   */\n      tag_147\n      jump\t// in\n    tag_298:\n        /* \"#utility.yul\":10019:10056   */\n      swap1\n      pop\n        /* \"#utility.yul\":10111:10115   */\n      0x20\n        /* \"#utility.yul\":10105:10109   */\n      dup2\n        /* \"#utility.yul\":10101:10116   */\n      add\n        /* \"#utility.yul\":10093:10116   */\n      swap1\n      pop\n        /* \"#utility.yul\":9815:10123   */\n      swap2\n      swap1\n      pop\n      jump\t// out\n        /* \"#utility.yul\":10129:10277   */\n    tag_169:\n        /* \"#utility.yul\":10227:10233   */\n      dup3\n        /* \"#utility.yul\":10222:10225   */\n      dup2\n        /* \"#utility.yul\":10217:10220   */\n      dup4\n        /* \"#utility.yul\":10204:10234   */\n      calldatacopy\n        /* \"#utility.yul\":10268:10269   */\n      0x00\n        /* \"#utility.yul\":10259:10265   */\n      dup4\n        /* \"#utility.yul\":10254:10257   */\n      dup4\n        /* \"#utility.yul\":10250:10266   */\n      add\n        /* \"#utility.yul\":10243:10270   */\n      mstore\n        /* \"#utility.yul\":10129:10277   */\n      pop\n      pop\n      pop\n      jump\t// out\n        /* \"#utility.yul\":10283:10708   */\n    tag_170:\n        /* \"#utility.yul\":10361:10366   */\n      0x00\n        /* \"#utility.yul\":10386:10452   */\n      tag_301\n        /* \"#utility.yul\":10402:10451   */\n      tag_302\n        /* \"#utility.yul\":10444:10450   */\n      dup5\n        /* \"#utility.yul\":10402:10451   */\n      tag_168\n      jump\t// in\n    tag_302:\n        /* \"#utility.yul\":10386:10452   */\n      tag_167\n      jump\t// in\n    tag_301:\n        /* \"#utility.yul\":10377:10452   */\n      swap1\n      pop\n        /* \"#utility.yul\":10475:10481   */\n      dup3\n        /* \"#utility.yul\":10468:10473   */\n      dup2\n        /* \"#utility.yul\":10461:10482   */\n      mstore\n        /* \"#utility.yul\":10513:10517   */\n      0x20\n        /* \"#utility.yul\":10506:10511   */\n      dup2\n        /* \"#utility.yul\":10502:10518   */\n      add\n        /* \"#utility.yul\":10551:10554   */\n      dup5\n        /* \"#utility.yul\":10542:10548   */\n      dup5\n        /* \"#utility.yul\":10537:10540   */\n      dup5\n        /* \"#utility.yul\":10533:10549   */\n      add\n        /* \"#utility.yul\":10530:10555   */\n      gt\n        /* \"#utility.yul\":10527:10639   */\n      iszero\n      tag_303\n      jumpi\n        /* \"#utility.yul\":10558:10637   */\n      tag_304\n      tag_164\n      jump\t// in\n    tag_304:\n        /* \"#utility.yul\":10527:10639   */\n    tag_303:\n        /* \"#utility.yul\":10648:10702   */\n      tag_305\n        /* \"#utility.yul\":10695:10701   */\n      dup5\n        /* \"#utility.yul\":10690:10693   */\n      dup3\n        /* \"#utility.yul\":10685:10688   */\n      dup6\n        /* \"#utility.yul\":10648:10702   */\n      tag_169\n      jump\t// in\n    tag_305:\n        /* \"#utility.yul\":10367:10708   */\n      pop\n        /* \"#utility.yul\":10283:10708   */\n      swap4\n      swap3\n      pop\n      pop\n      pop\n      jump\t// out\n        /* \"#utility.yul\":10728:11068   */\n    tag_171:\n        /* \"#utility.yul\":10784:10789   */\n      0x00\n        /* \"#utility.yul\":10833:10836   */\n      dup3\n        /* \"#utility.yul\":10826:10830   */\n      0x1f\n        /* \"#utility.yul\":10818:10824   */\n      dup4\n        /* \"#utility.yul\":10814:10831   */\n      add\n        /* \"#utility.yul\":10810:10837   */\n      slt\n        /* \"#utility.yul\":10800:10922   */\n      tag_307\n      jumpi\n        /* \"#utility.yul\":10841:10920   */\n      tag_308\n      tag_163\n      jump\t// in\n    tag_308:\n        /* \"#utility.yul\":10800:10922   */\n    tag_307:\n        /* \"#utility.yul\":10958:10964   */\n      dup2\n        /* \"#utility.yul\":10945:10965   */\n      calldataload\n        /* \"#utility.yul\":10983:11062   */\n      tag_309\n        /* \"#utility.yul\":11058:11061   */\n      dup5\n        /* \"#utility.yul\":11050:11056   */\n      dup3\n        /* \"#utility.yul\":11043:11047   */\n      0x20\n        /* \"#utility.yul\":11035:11041   */\n      dup7\n        /* \"#utility.yul\":11031:11048   */\n      add\n        /* \"#utility.yul\":10983:11062   */\n      tag_170\n      jump\t// in\n    tag_309:\n        /* \"#utility.yul\":10974:11062   */\n      swap2\n      pop\n        /* \"#utility.yul\":10790:11068   */\n      pop\n        /* \"#utility.yul\":10728:11068   */\n      swap3\n      swap2\n      pop\n      pop\n      jump\t// out\n        /* \"#utility.yul\":11074:11583   */\n    tag_39:\n        /* \"#utility.yul\":11143:11149   */\n      0x00\n        /* \"#utility.yul\":11192:11194   */\n      0x20\n        /* \"#utility.yul\":11180:11189   */\n      dup3\n        /* \"#utility.yul\":11171:11178   */\n      dup5\n        /* \"#utility.yul\":11167:11190   */\n      sub\n        /* \"#utility.yul\":11163:11195   */\n      slt\n        /* \"#utility.yul\":11160:11279   */\n      iszero\n      tag_311\n      jumpi\n        /* \"#utility.yul\":11198:11277   */\n      tag_312\n      tag_133\n      jump\t// in\n    tag_312:\n        /* \"#utility.yul\":11160:11279   */\n    tag_311:\n        /* \"#utility.yul\":11346:11347   */\n      0x00\n        /* \"#utility.yul\":11335:11344   */\n      dup3\n        /* \"#utility.yul\":11331:11348   */\n      add\n        /* \"#utility.yul\":11318:11349   */\n      calldataload\n        /* \"#utility.yul\":11376:11394   */\n      0xffffffffffffffff\n        /* \"#utility.yul\":11368:11374   */\n      dup2\n        /* \"#utility.yul\":11365:11395   */\n      gt\n        /* \"#utility.yul\":11362:11479   */\n      iszero\n      tag_313\n      jumpi\n        /* \"#utility.yul\":11398:11477   */\n      tag_314\n      tag_134\n      jump\t// in\n    tag_314:\n        /* \"#utility.yul\":11362:11479   */\n    tag_313:\n        /* \"#utility.yul\":11503:11566   */\n      tag_315\n        /* \"#utility.yul\":11558:11565   */\n      dup5\n        /* \"#utility.yul\":11549:11555   */\n      dup3\n        /* \"#utility.yul\":11538:11547   */\n      dup6\n        /* \"#utility.yul\":11534:11556   */\n      add\n        /* \"#utility.yul\":11503:11566   */\n      tag_171\n      jump\t// in\n    tag_315:\n        /* \"#utility.yul\":11493:11566   */\n      swap2\n      pop\n        /* \"#utility.yul\":11289:11576   */\n      pop\n        /* \"#utility.yul\":11074:11583   */\n      swap3\n      swap2\n      pop\n      pop\n      jump\t// out\n        /* \"#utility.yul\":11589:11811   */\n    tag_44:\n        /* \"#utility.yul\":11682:11686   */\n      0x00\n        /* \"#utility.yul\":11720:11722   */\n      0x20\n        /* \"#utility.yul\":11709:11718   */\n      dup3\n        /* \"#utility.yul\":11705:11723   */\n      add\n        /* \"#utility.yul\":11697:11723   */\n      swap1\n      pop\n        /* \"#utility.yul\":11733:11804   */\n      tag_317\n        /* \"#utility.yul\":11801:11802   */\n      0x00\n        /* \"#utility.yul\":11790:11799   */\n      dup4\n        /* \"#utility.yul\":11786:11803   */\n      add\n        /* \"#utility.yul\":11777:11783   */\n      dup5\n        /* \"#utility.yul\":11733:11804   */\n      tag_143\n      jump\t// in\n    tag_317:\n        /* \"#utility.yul\":11589:11811   */\n      swap3\n      swap2\n      pop\n      pop\n      jump\t// out\n        /* \"#utility.yul\":11817:12146   */\n    tag_47:\n        /* \"#utility.yul\":11876:11882   */\n      0x00\n        /* \"#utility.yul\":11925:11927   */\n      0x20\n        /* \"#utility.yul\":11913:11922   */\n      dup3\n        /* \"#utility.yul\":11904:11911   */\n      dup5\n        /* \"#utility.yul\":11900:11923   */\n      sub\n        /* \"#utility.yul\":11896:11928   */\n      slt\n        /* \"#utility.yul\":11893:12012   */\n      iszero\n      tag_319\n      jumpi\n        /* \"#utility.yul\":11931:12010   */\n      tag_320\n      tag_133\n      jump\t// in\n    tag_320:\n        /* \"#utility.yul\":11893:12012   */\n    tag_319:\n        /* \"#utility.yul\":12051:12052   */\n      0x00\n        /* \"#utility.yul\":12076:12129   */\n      tag_321\n        /* \"#utility.yul\":12121:12128   */\n      dup5\n        /* \"#utility.yul\":12112:12118   */\n      dup3\n        /* \"#utility.yul\":12101:12110   */\n      dup6\n        /* \"#utility.yul\":12097:12119   */\n      add\n        /* \"#utility.yul\":12076:12129   */\n      tag_141\n      jump\t// in\n    tag_321:\n        /* \"#utility.yul\":12066:12129   */\n      swap2\n      pop\n        /* \"#utility.yul\":12022:12139   */\n      pop\n        /* \"#utility.yul\":11817:12146   */\n      swap3\n      swap2\n      pop\n      pop\n      jump\t// out\n        /* \"#utility.yul\":12204:13333   */\n    tag_172:\n        /* \"#utility.yul\":12315:12318   */\n      0x00\n        /* \"#utility.yul\":12351:12355   */\n      0xa0\n        /* \"#utility.yul\":12346:12349   */\n      dup4\n        /* \"#utility.yul\":12342:12356   */\n      add\n        /* \"#utility.yul\":12436:12440   */\n      0x00\n        /* \"#utility.yul\":12429:12434   */\n      dup4\n        /* \"#utility.yul\":12425:12441   */\n      add\n        /* \"#utility.yul\":12419:12442   */\n      mload\n        /* \"#utility.yul\":12455:12518   */\n      tag_323\n        /* \"#utility.yul\":12512:12516   */\n      0x00\n        /* \"#utility.yul\":12507:12510   */\n      dup7\n        /* \"#utility.yul\":12503:12517   */\n      add\n        /* \"#utility.yul\":12489:12501   */\n      dup3\n        /* \"#utility.yul\":12455:12518   */\n      tag_152\n      jump\t// in\n    tag_323:\n        /* \"#utility.yul\":12366:12528   */\n      pop\n        /* \"#utility.yul\":12612:12616   */\n      0x20\n        /* \"#utility.yul\":12605:12610   */\n      dup4\n        /* \"#utility.yul\":12601:12617   */\n      add\n        /* \"#utility.yul\":12595:12618   */\n      mload\n        /* \"#utility.yul\":12631:12694   */\n      tag_324\n        /* \"#utility.yul\":12688:12692   */\n      0x20\n        /* \"#utility.yul\":12683:12686   */\n      dup7\n        /* \"#utility.yul\":12679:12693   */\n      add\n        /* \"#utility.yul\":12665:12677   */\n      dup3\n        /* \"#utility.yul\":12631:12694   */\n      tag_153\n      jump\t// in\n    tag_324:\n        /* \"#utility.yul\":12538:12704   */\n      pop\n        /* \"#utility.yul\":12789:12793   */\n      0x40\n        /* \"#utility.yul\":12782:12787   */\n      dup4\n        /* \"#utility.yul\":12778:12794   */\n      add\n        /* \"#utility.yul\":12772:12795   */\n      mload\n        /* \"#utility.yul\":12842:12845   */\n      dup5\n        /* \"#utility.yul\":12836:12840   */\n      dup3\n        /* \"#utility.yul\":12832:12846   */\n      sub\n        /* \"#utility.yul\":12825:12829   */\n      0x40\n        /* \"#utility.yul\":12820:12823   */\n      dup7\n        /* \"#utility.yul\":12816:12830   */\n      add\n        /* \"#utility.yul\":12809:12847   */\n      mstore\n        /* \"#utility.yul\":12868:12941   */\n      tag_325\n        /* \"#utility.yul\":12936:12940   */\n      dup3\n        /* \"#utility.yul\":12922:12934   */\n      dup3\n        /* \"#utility.yul\":12868:12941   */\n      tag_155\n      jump\t// in\n    tag_325:\n        /* \"#utility.yul\":12860:12941   */\n      swap2\n      pop\n        /* \"#utility.yul\":12714:12952   */\n      pop\n        /* \"#utility.yul\":13039:13043   */\n      0x60\n        /* \"#utility.yul\":13032:13037   */\n      dup4\n        /* \"#utility.yul\":13028:13044   */\n      add\n        /* \"#utility.yul\":13022:13045   */\n      mload\n        /* \"#utility.yul\":13058:13121   */\n      tag_326\n        /* \"#utility.yul\":13115:13119   */\n      0x60\n        /* \"#utility.yul\":13110:13113   */\n      dup7\n        /* \"#utility.yul\":13106:13120   */\n      add\n        /* \"#utility.yul\":13092:13104   */\n      dup3\n        /* \"#utility.yul\":13058:13121   */\n      tag_152\n      jump\t// in\n    tag_326:\n        /* \"#utility.yul\":12962:13131   */\n      pop\n        /* \"#utility.yul\":13214:13218   */\n      0x80\n        /* \"#utility.yul\":13207:13212   */\n      dup4\n        /* \"#utility.yul\":13203:13219   */\n      add\n        /* \"#utility.yul\":13197:13220   */\n      mload\n        /* \"#utility.yul\":13233:13296   */\n      tag_327\n        /* \"#utility.yul\":13290:13294   */\n      0x80\n        /* \"#utility.yul\":13285:13288   */\n      dup7\n        /* \"#utility.yul\":13281:13295   */\n      add\n        /* \"#utility.yul\":13267:13279   */\n      dup3\n        /* \"#utility.yul\":13233:13296   */\n      tag_152\n      jump\t// in\n    tag_327:\n        /* \"#utility.yul\":13141:13306   */\n      pop\n        /* \"#utility.yul\":13323:13327   */\n      dup1\n        /* \"#utility.yul\":13316:13327   */\n      swap2\n      pop\n        /* \"#utility.yul\":12320:13333   */\n      pop\n        /* \"#utility.yul\":12204:13333   */\n      swap3\n      swap2\n      pop\n      pop\n      jump\t// out\n        /* \"#utility.yul\":13339:13696   */\n    tag_50:\n        /* \"#utility.yul\":13474:13478   */\n      0x00\n        /* \"#utility.yul\":13512:13514   */\n      0x20\n        /* \"#utility.yul\":13501:13510   */\n      dup3\n        /* \"#utility.yul\":13497:13515   */\n      add\n        /* \"#utility.yul\":13489:13515   */\n      swap1\n      pop\n        /* \"#utility.yul\":13561:13570   */\n      dup2\n        /* \"#utility.yul\":13555:13559   */\n      dup2\n        /* \"#utility.yul\":13551:13571   */\n      sub\n        /* \"#utility.yul\":13547:13548   */\n      0x00\n        /* \"#utility.yul\":13536:13545   */\n      dup4\n        /* \"#utility.yul\":13532:13549   */\n      add\n        /* \"#utility.yul\":13525:13572   */\n      mstore\n        /* \"#utility.yul\":13589:13689   */\n      tag_329\n        /* \"#utility.yul\":13684:13688   */\n      dup2\n        /* \"#utility.yul\":13675:13681   */\n      dup5\n        /* \"#utility.yul\":13589:13689   */\n      tag_172\n      jump\t// in\n    tag_329:\n        /* \"#utility.yul\":13581:13689   */\n      swap1\n      pop\n        /* \"#utility.yul\":13339:13696   */\n      swap3\n      swap2\n      pop\n      pop\n      jump\t// out\n        /* \"#utility.yul\":13702:13882   */\n    tag_173:\n        /* \"#utility.yul\":13750:13827   */\n      0x4e487b7100000000000000000000000000000000000000000000000000000000\n        /* \"#utility.yul\":13747:13748   */\n      0x00\n        /* \"#utility.yul\":13740:13828   */\n      mstore\n        /* \"#utility.yul\":13847:13851   */\n      0x22\n        /* \"#utility.yul\":13844:13845   */\n      0x04\n        /* \"#utility.yul\":13837:13852   */\n      mstore\n        /* \"#utility.yul\":13871:13875   */\n      0x24\n        /* \"#utility.yul\":13868:13869   */\n      0x00\n        /* \"#utility.yul\":13861:13876   */\n      revert\n        /* \"#utility.yul\":13888:14208   */\n    tag_54:\n        /* \"#utility.yul\":13932:13938   */\n      0x00\n        /* \"#utility.yul\":13969:13970   */\n      0x02\n        /* \"#utility.yul\":13963:13967   */\n      dup3\n        /* \"#utility.yul\":13959:13971   */\n      div\n        /* \"#utility.yul\":13949:13971   */\n      swap1\n      pop\n        /* \"#utility.yul\":14016:14017   */\n      0x01\n        /* \"#utility.yul\":14010:14014   */\n      dup3\n        /* \"#utility.yul\":14006:14018   */\n      and\n        /* \"#utility.yul\":14037:14055   */\n      dup1\n        /* \"#utility.yul\":14027:14108   */\n      tag_332\n      jumpi\n        /* \"#utility.yul\":14093:14097   */\n      0x7f\n        /* \"#utility.yul\":14085:14091   */\n      dup3\n        /* \"#utility.yul\":14081:14098   */\n      and\n        /* \"#utility.yul\":14071:14098   */\n      swap2\n      pop\n        /* \"#utility.yul\":14027:14108   */\n    tag_332:\n        /* \"#utility.yul\":14155:14157   */\n      0x20\n        /* \"#utility.yul\":14147:14153   */\n      dup3\n        /* \"#utility.yul\":14144:14158   */\n      lt\n        /* \"#utility.yul\":14124:14142   */\n      dup2\n        /* \"#utility.yul\":14121:14159   */\n      sub\n        /* \"#utility.yul\":14118:14202   */\n      tag_333\n      jumpi\n        /* \"#utility.yul\":14174:14192   */\n      tag_334\n      tag_173\n      jump\t// in\n    tag_334:\n        /* \"#utility.yul\":14118:14202   */\n    tag_333:\n        /* \"#utility.yul\":13939:14208   */\n      pop\n        /* \"#utility.yul\":13888:14208   */\n      swap2\n      swap1\n      pop\n      jump\t// out\n        /* \"#utility.yul\":14214:14394   */\n    tag_62:\n        /* \"#utility.yul\":14262:14339   */\n      0x4e487b7100000000000000000000000000000000000000000000000000000000\n        /* \"#utility.yul\":14259:14260   */\n      0x00\n        /* \"#utility.yul\":14252:14340   */\n      mstore\n        /* \"#utility.yul\":14359:14363   */\n      0x32\n        /* \"#utility.yul\":14356:14357   */\n      0x04\n        /* \"#utility.yul\":14349:14364   */\n      mstore\n        /* \"#utility.yul\":14383:14387   */\n      0x24\n        /* \"#utility.yul\":14380:14381   */\n      0x00\n        /* \"#utility.yul\":14373:14388   */\n      revert\n        /* \"#utility.yul\":14400:14570   */\n    tag_174:\n        /* \"#utility.yul\":14540:14562   */\n      0x547765657420646f6573206e6f74206578697421000000000000000000000000\n        /* \"#utility.yul\":14536:14537   */\n      0x00\n        /* \"#utility.yul\":14528:14534   */\n      dup3\n        /* \"#utility.yul\":14524:14538   */\n      add\n        /* \"#utility.yul\":14517:14563   */\n      mstore\n        /* \"#utility.yul\":14400:14570   */\n      pop\n      jump\t// out\n        /* \"#utility.yul\":14576:14942   */\n    tag_175:\n        /* \"#utility.yul\":14718:14721   */\n      0x00\n        /* \"#utility.yul\":14739:14806   */\n      tag_338\n        /* \"#utility.yul\":14803:14805   */\n      0x14\n        /* \"#utility.yul\":14798:14801   */\n      dup4\n        /* \"#utility.yul\":14739:14806   */\n      tag_145\n      jump\t// in\n    tag_338:\n        /* \"#utility.yul\":14732:14806   */\n      swap2\n      pop\n        /* \"#utility.yul\":14815:14908   */\n      tag_339\n        /* \"#utility.yul\":14904:14907   */\n      dup3\n        /* \"#utility.yul\":14815:14908   */\n      tag_174\n      jump\t// in\n    tag_339:\n        /* \"#utility.yul\":14933:14935   */\n      0x20\n        /* \"#utility.yul\":14928:14931   */\n      dup3\n        /* \"#utility.yul\":14924:14936   */\n      add\n        /* \"#utility.yul\":14917:14936   */\n      swap1\n      pop\n        /* \"#utility.yul\":14576:14942   */\n      swap2\n      swap1\n      pop\n      jump\t// out\n        /* \"#utility.yul\":14948:15367   */\n    tag_66:\n        /* \"#utility.yul\":15114:15118   */\n      0x00\n        /* \"#utility.yul\":15152:15154   */\n      0x20\n        /* \"#utility.yul\":15141:15150   */\n      dup3\n        /* \"#utility.yul\":15137:15155   */\n      add\n        /* \"#utility.yul\":15129:15155   */\n      swap1\n      pop\n        /* \"#utility.yul\":15201:15210   */\n      dup2\n        /* \"#utility.yul\":15195:15199   */\n      dup2\n        /* \"#utility.yul\":15191:15211   */\n      sub\n        /* \"#utility.yul\":15187:15188   */\n      0x00\n        /* \"#utility.yul\":15176:15185   */\n      dup4\n        /* \"#utility.yul\":15172:15189   */\n      add\n        /* \"#utility.yul\":15165:15212   */\n      mstore\n        /* \"#utility.yul\":15229:15360   */\n      tag_341\n        /* \"#utility.yul\":15355:15359   */\n      dup2\n        /* \"#utility.yul\":15229:15360   */\n      tag_175\n      jump\t// in\n    tag_341:\n        /* \"#utility.yul\":15221:15360   */\n      swap1\n      pop\n        /* \"#utility.yul\":14948:15367   */\n      swap2\n      swap1\n      pop\n      jump\t// out\n        /* \"#utility.yul\":15373:15553   */\n    tag_176:\n        /* \"#utility.yul\":15421:15498   */\n      0x4e487b7100000000000000000000000000000000000000000000000000000000\n        /* \"#utility.yul\":15418:15419   */\n      0x00\n        /* \"#utility.yul\":15411:15499   */\n      mstore\n        /* \"#utility.yul\":15518:15522   */\n      0x11\n        /* \"#utility.yul\":15515:15516   */\n      0x04\n        /* \"#utility.yul\":15508:15523   */\n      mstore\n        /* \"#utility.yul\":15542:15546   */\n      0x24\n        /* \"#utility.yul\":15539:15540   */\n      0x00\n        /* \"#utility.yul\":15532:15547   */\n      revert\n        /* \"#utility.yul\":15559:15792   */\n    tag_71:\n        /* \"#utility.yul\":15598:15601   */\n      0x00\n        /* \"#utility.yul\":15621:15645   */\n      tag_344\n        /* \"#utility.yul\":15639:15644   */\n      dup3\n        /* \"#utility.yul\":15621:15645   */\n      tag_139\n      jump\t// in\n    tag_344:\n        /* \"#utility.yul\":15612:15645   */\n      swap2\n      pop\n        /* \"#utility.yul\":15667:15733   */\n      0xffffffffffffffffffffffffffffffffffffffffffffffffffffffffffffffff\n        /* \"#utility.yul\":15660:15665   */\n      dup3\n        /* \"#utility.yul\":15657:15734   */\n      sub\n        /* \"#utility.yul\":15654:15757   */\n      tag_345\n      jumpi\n        /* \"#utility.yul\":15737:15755   */\n      tag_346\n      tag_176\n      jump\t// in\n    tag_346:\n        /* \"#utility.yul\":15654:15757   */\n    tag_345:\n        /* \"#utility.yul\":15784:15785   */\n      0x01\n        /* \"#utility.yul\":15777:15782   */\n      dup3\n        /* \"#utility.yul\":15773:15786   */\n      add\n        /* \"#utility.yul\":15766:15786   */\n      swap1\n      pop\n        /* \"#utility.yul\":15559:15792   */\n      swap2\n      swap1\n      pop\n      jump\t// out\n        /* \"#utility.yul\":15798:16351   */\n    tag_76:\n        /* \"#utility.yul\":15975:15979   */\n      0x00\n        /* \"#utility.yul\":16013:16016   */\n      0x80\n        /* \"#utility.yul\":16002:16011   */\n      dup3\n        /* \"#utility.yul\":15998:16017   */\n      add\n        /* \"#utility.yul\":15990:16017   */\n      swap1\n      pop\n        /* \"#utility.yul\":16027:16098   */\n      tag_348\n        /* \"#utility.yul\":16095:16096   */\n      0x00\n        /* \"#utility.yul\":16084:16093   */\n      dup4\n        /* \"#utility.yul\":16080:16097   */\n      add\n        /* \"#utility.yul\":16071:16077   */\n      dup8\n        /* \"#utility.yul\":16027:16098   */\n      tag_143\n      jump\t// in\n    tag_348:\n        /* \"#utility.yul\":16108:16180   */\n      tag_349\n        /* \"#utility.yul\":16176:16178   */\n      0x20\n        /* \"#utility.yul\":16165:16174   */\n      dup4\n        /* \"#utility.yul\":16161:16179   */\n      add\n        /* \"#utility.yul\":16152:16158   */\n      dup7\n        /* \"#utility.yul\":16108:16180   */\n      tag_143\n      jump\t// in\n    tag_349:\n        /* \"#utility.yul\":16190:16262   */\n      tag_350\n        /* \"#utility.yul\":16258:16260   */\n      0x40\n        /* \"#utility.yul\":16247:16256   */\n      dup4\n        /* \"#utility.yul\":16243:16261   */\n      add\n        /* \"#utility.yul\":16234:16240   */\n      dup6\n        /* \"#utility.yul\":16190:16262   */\n      tag_142\n      jump\t// in\n    tag_350:\n        /* \"#utility.yul\":16272:16344   */\n      tag_351\n        /* \"#utility.yul\":16340:16342   */\n      0x60\n        /* \"#utility.yul\":16329:16338   */\n      dup4\n        /* \"#utility.yul\":16325:16343   */\n      add\n        /* \"#utility.yul\":16316:16322   */\n      dup5\n        /* \"#utility.yul\":16272:16344   */\n      tag_142\n      jump\t// in\n    tag_351:\n        /* \"#utility.yul\":15798:16351   */\n      swap6\n      swap5\n      pop\n      pop\n      pop\n      pop\n      pop\n      jump\t// out\n        /* \"#utility.yul\":16357:16529   */\n    tag_177:\n        /* \"#utility.yul\":16497:16521   */\n      0x596f7520617265206e6f7420746865206f776e65722100000000000000000000\n        /* \"#utility.yul\":16493:16494   */\n      0x00\n        /* \"#utility.yul\":16485:16491   */\n      dup3\n        /* \"#utility.yul\":16481:16495   */\n      add\n        /* \"#utility.yul\":16474:16522   */\n      mstore\n        /* \"#utility.yul\":16357:16529   */\n      pop\n      jump\t// out\n        /* \"#utility.yul\":16535:16901   */\n    tag_178:\n        /* \"#utility.yul\":16677:16680   */\n      0x00\n        /* \"#utility.yul\":16698:16765   */\n      tag_354\n        /* \"#utility.yul\":16762:16764   */\n      0x16\n        /* \"#utility.yul\":16757:16760   */\n      dup4\n        /* \"#utility.yul\":16698:16765   */\n      tag_145\n      jump\t// in\n    tag_354:\n        /* \"#utility.yul\":16691:16765   */\n      swap2\n      pop\n        /* \"#utility.yul\":16774:16867   */\n      tag_355\n        /* \"#utility.yul\":16863:16866   */\n      dup3\n        /* \"#utility.yul\":16774:16867   */\n      tag_177\n      jump\t// in\n    tag_355:\n        /* \"#utility.yul\":16892:16894   */\n      0x20\n        /* \"#utility.yul\":16887:16890   */\n      dup3\n        /* \"#utility.yul\":16883:16895   */\n      add\n        /* \"#utility.yul\":16876:16895   */\n      swap1\n      pop\n        /* \"#utility.yul\":16535:16901   */\n      swap2\n      swap1\n      pop\n      jump\t// out\n        /* \"#utility.yul\":16907:17326   */\n    tag_89:\n        /* \"#utility.yul\":17073:17077   */\n      0x00\n        /* \"#utility.yul\":17111:17113   */\n      0x20\n        /* \"#utility.yul\":17100:17109   */\n      dup3\n        /* \"#utility.yul\":17096:17114   */\n      add\n        /* \"#utility.yul\":17088:17114   */\n      swap1\n      pop\n        /* \"#utility.yul\":17160:17169   */\n      dup2\n        /* \"#utility.yul\":17154:17158   */\n      dup2\n        /* \"#utility.yul\":17150:17170   */\n      sub\n        /* \"#utility.yul\":17146:17147   */\n      0x00\n        /* \"#utility.yul\":17135:17144   */\n      dup4\n        /* \"#utility.yul\":17131:17148   */\n      add\n        /* \"#utility.yul\":17124:17171   */\n      mstore\n        /* \"#utility.yul\":17188:17319   */\n      tag_357\n        /* \"#utility.yul\":17314:17318   */\n      dup2\n        /* \"#utility.yul\":17188:17319   */\n      tag_178\n      jump\t// in\n    tag_357:\n        /* \"#utility.yul\":17180:17319   */\n      swap1\n      pop\n        /* \"#utility.yul\":16907:17326   */\n      swap2\n      swap1\n      pop\n      jump\t// out\n        /* \"#utility.yul\":17332:17500   */\n    tag_179:\n        /* \"#utility.yul\":17472:17492   */\n      0x546865726520617265206e6f206c696b65730000000000000000000000000000\n        /* \"#utility.yul\":17468:17469   */\n      0x00\n        /* \"#utility.yul\":17460:17466   */\n      dup3\n        /* \"#utility.yul\":17456:17470   */\n      add\n        /* \"#utility.yul\":17449:17493   */\n      mstore\n        /* \"#utility.yul\":17332:17500   */\n      pop\n      jump\t// out\n        /* \"#utility.yul\":17506:17872   */\n    tag_180:\n        /* \"#utility.yul\":17648:17651   */\n      0x00\n        /* \"#utility.yul\":17669:17736   */\n      tag_360\n        /* \"#utility.yul\":17733:17735   */\n      0x12\n        /* \"#utility.yul\":17728:17731   */\n      dup4\n        /* \"#utility.yul\":17669:17736   */\n      tag_145\n      jump\t// in\n    tag_360:\n        /* \"#utility.yul\":17662:17736   */\n      swap2\n      pop\n        /* \"#utility.yul\":17745:17838   */\n      tag_361\n        /* \"#utility.yul\":17834:17837   */\n      dup3\n        /* \"#utility.yul\":17745:17838   */\n      tag_179\n      jump\t// in\n    tag_361:\n        /* \"#utility.yul\":17863:17865   */\n      0x20\n        /* \"#utility.yul\":17858:17861   */\n      dup3\n        /* \"#utility.yul\":17854:17866   */\n      add\n        /* \"#utility.yul\":17847:17866   */\n      swap1\n      pop\n        /* \"#utility.yul\":17506:17872   */\n      swap2\n      swap1\n      pop\n      jump\t// out\n        /* \"#utility.yul\":17878:18297   */\n    tag_102:\n        /* \"#utility.yul\":18044:18048   */\n      0x00\n        /* \"#utility.yul\":18082:18084   */\n      0x20\n        /* \"#utility.yul\":18071:18080   */\n      dup3\n        /* \"#utility.yul\":18067:18085   */\n      add\n        /* \"#utility.yul\":18059:18085   */\n      swap1\n      pop\n        /* \"#utility.yul\":18131:18140   */\n      dup2\n        /* \"#utility.yul\":18125:18129   */\n      dup2\n        /* \"#utility.yul\":18121:18141   */\n      sub\n        /* \"#utility.yul\":18117:18118   */\n      0x00\n        /* \"#utility.yul\":18106:18115   */\n      dup4\n        /* \"#utility.yul\":18102:18119   */\n      add\n        /* \"#utility.yul\":18095:18142   */\n      mstore\n        /* \"#utility.yul\":18159:18290   */\n      tag_363\n        /* \"#utility.yul\":18285:18289   */\n      dup2\n        /* \"#utility.yul\":18159:18290   */\n      tag_180\n      jump\t// in\n    tag_363:\n        /* \"#utility.yul\":18151:18290   */\n      swap1\n      pop\n        /* \"#utility.yul\":17878:18297   */\n      swap2\n      swap1\n      pop\n      jump\t// out\n        /* \"#utility.yul\":18303:18474   */\n    tag_107:\n        /* \"#utility.yul\":18342:18345   */\n      0x00\n        /* \"#utility.yul\":18365:18389   */\n      tag_365\n        /* \"#utility.yul\":18383:18388   */\n      dup3\n        /* \"#utility.yul\":18365:18389   */\n      tag_139\n      jump\t// in\n    tag_365:\n        /* \"#utility.yul\":18356:18389   */\n      swap2\n      pop\n        /* \"#utility.yul\":18411:18415   */\n      0x00\n        /* \"#utility.yul\":18404:18409   */\n      dup3\n        /* \"#utility.yul\":18401:18416   */\n      sub\n        /* \"#utility.yul\":18398:18439   */\n      tag_366\n      jumpi\n        /* \"#utility.yul\":18419:18437   */\n      tag_367\n      tag_176\n      jump\t// in\n    tag_367:\n        /* \"#utility.yul\":18398:18439   */\n    tag_366:\n        /* \"#utility.yul\":18466:18467   */\n      0x01\n        /* \"#utility.yul\":18459:18464   */\n      dup3\n        /* \"#utility.yul\":18455:18468   */\n      sub\n        /* \"#utility.yul\":18448:18468   */\n      swap1\n      pop\n        /* \"#utility.yul\":18303:18474   */\n      swap2\n      swap1\n      pop\n      jump\t// out\n        /* \"#utility.yul\":18480:18645   */\n    tag_181:\n        /* \"#utility.yul\":18620:18637   */\n      0x547765657420746f6f206c6f6e67210000000000000000000000000000000000\n        /* \"#utility.yul\":18616:18617   */\n      0x00\n        /* \"#utility.yul\":18608:18614   */\n      dup3\n        /* \"#utility.yul\":18604:18618   */\n      add\n        /* \"#utility.yul\":18597:18638   */\n      mstore\n        /* \"#utility.yul\":18480:18645   */\n      pop\n      jump\t// out\n        /* \"#utility.yul\":18651:19017   */\n    tag_182:\n        /* \"#utility.yul\":18793:18796   */\n      0x00\n        /* \"#utility.yul\":18814:18881   */\n      tag_370\n        /* \"#utility.yul\":18878:18880   */\n      0x0f\n        /* \"#utility.yul\":18873:18876   */\n      dup4\n        /* \"#utility.yul\":18814:18881   */\n      tag_145\n      jump\t// in\n    tag_370:\n        /* \"#utility.yul\":18807:18881   */\n      swap2\n      pop\n        /* \"#utility.yul\":18890:18983   */\n      tag_371\n        /* \"#utility.yul\":18979:18982   */\n      dup3\n        /* \"#utility.yul\":18890:18983   */\n      tag_181\n      jump\t// in\n    tag_371:\n        /* \"#utility.yul\":19008:19010   */\n      0x20\n        /* \"#utility.yul\":19003:19006   */\n      dup3\n        /* \"#utility.yul\":18999:19011   */\n      add\n        /* \"#utility.yul\":18992:19011   */\n      swap1\n      pop\n        /* \"#utility.yul\":18651:19017   */\n      swap2\n      swap1\n      pop\n      jump\t// out\n        /* \"#utility.yul\":19023:19442   */\n    tag_115:\n        /* \"#utility.yul\":19189:19193   */\n      0x00\n        /* \"#utility.yul\":19227:19229   */\n      0x20\n        /* \"#utility.yul\":19216:19225   */\n      dup3\n        /* \"#utility.yul\":19212:19230   */\n      add\n        /* \"#utility.yul\":19204:19230   */\n      swap1\n      pop\n        /* \"#utility.yul\":19276:19285   */\n      dup2\n        /* \"#utility.yul\":19270:19274   */\n      dup2\n        /* \"#utility.yul\":19266:19286   */\n      sub\n        /* \"#utility.yul\":19262:19263   */\n      0x00\n        /* \"#utility.yul\":19251:19260   */\n      dup4\n        /* \"#utility.yul\":19247:19264   */\n      add\n        /* \"#utility.yul\":19240:19287   */\n      mstore\n        /* \"#utility.yul\":19304:19435   */\n      tag_373\n        /* \"#utility.yul\":19430:19434   */\n      dup2\n        /* \"#utility.yul\":19304:19435   */\n      tag_182\n      jump\t// in\n    tag_373:\n        /* \"#utility.yul\":19296:19435   */\n      swap1\n      pop\n        /* \"#utility.yul\":19023:19442   */\n      swap2\n      swap1\n      pop\n      jump\t// out\n        /* \"#utility.yul\":19448:19589   */\n    tag_183:\n        /* \"#utility.yul\":19497:19501   */\n      0x00\n        /* \"#utility.yul\":19520:19523   */\n      dup2\n        /* \"#utility.yul\":19512:19523   */\n      swap1\n      pop\n        /* \"#utility.yul\":19543:19546   */\n      dup2\n        /* \"#utility.yul\":19540:19541   */\n      0x00\n        /* \"#utility.yul\":19533:19547   */\n      mstore\n        /* \"#utility.yul\":19577:19581   */\n      0x20\n        /* \"#utility.yul\":19574:19575   */\n      0x00\n        /* \"#utility.yul\":19564:19582   */\n      keccak256\n        /* \"#utility.yul\":19556:19582   */\n      swap1\n      pop\n        /* \"#utility.yul\":19448:19589   */\n      swap2\n      swap1\n      pop\n      jump\t// out\n        /* \"#utility.yul\":19595:19688   */\n    tag_184:\n        /* \"#utility.yul\":19632:19638   */\n      0x00\n        /* \"#utility.yul\":19679:19681   */\n      0x20\n        /* \"#utility.yul\":19674:19676   */\n      0x1f\n        /* \"#utility.yul\":19667:19672   */\n      dup4\n        /* \"#utility.yul\":19663:19677   */\n      add\n        /* \"#utility.yul\":19659:19682   */\n      div\n        /* \"#utility.yul\":19649:19682   */\n      swap1\n      pop\n        /* \"#utility.yul\":19595:19688   */\n      swap2\n      swap1\n      pop\n      jump\t// out\n        /* \"#utility.yul\":19694:19801   */\n    tag_185:\n        /* \"#utility.yul\":19738:19746   */\n      0x00\n        /* \"#utility.yul\":19788:19793   */\n      dup3\n        /* \"#utility.yul\":19782:19786   */\n      dup3\n        /* \"#utility.yul\":19778:19794   */\n      shl\n        /* \"#utility.yul\":19757:19794   */\n      swap1\n      pop\n        /* \"#utility.yul\":19694:19801   */\n      swap3\n      swap2\n      pop\n      pop\n      jump\t// out\n        /* \"#utility.yul\":19807:20200   */\n    tag_186:\n        /* \"#utility.yul\":19876:19882   */\n      0x00\n        /* \"#utility.yul\":19926:19927   */\n      0x08\n        /* \"#utility.yul\":19914:19924   */\n      dup4\n        /* \"#utility.yul\":19910:19928   */\n      mul\n        /* \"#utility.yul\":19949:20046   */\n      tag_378\n        /* \"#utility.yul\":19979:20045   */\n      0xffffffffffffffffffffffffffffffffffffffffffffffffffffffffffffffff\n        /* \"#utility.yul\":19968:19977   */\n      dup3\n        /* \"#utility.yul\":19949:20046   */\n      tag_185\n      jump\t// in\n    tag_378:\n        /* \"#utility.yul\":20067:20106   */\n      tag_379\n        /* \"#utility.yul\":20097:20105   */\n      dup7\n        /* \"#utility.yul\":20086:20095   */\n      dup4\n        /* \"#utility.yul\":20067:20106   */\n      tag_185\n      jump\t// in\n    tag_379:\n        /* \"#utility.yul\":20055:20106   */\n      swap6\n      pop\n        /* \"#utility.yul\":20139:20143   */\n      dup1\n        /* \"#utility.yul\":20135:20144   */\n      not\n        /* \"#utility.yul\":20128:20133   */\n      dup5\n        /* \"#utility.yul\":20124:20145   */\n      and\n        /* \"#utility.yul\":20115:20145   */\n      swap4\n      pop\n        /* \"#utility.yul\":20188:20192   */\n      dup1\n        /* \"#utility.yul\":20178:20186   */\n      dup7\n        /* \"#utility.yul\":20174:20193   */\n      and\n        /* \"#utility.yul\":20167:20172   */\n      dup5\n        /* \"#utility.yul\":20164:20194   */\n      or\n        /* \"#utility.yul\":20154:20194   */\n      swap3\n      pop\n        /* \"#utility.yul\":19883:20200   */\n      pop\n      pop\n        /* \"#utility.yul\":19807:20200   */\n      swap4\n      swap3\n      pop\n      pop\n      pop\n      jump\t// out\n        /* \"#utility.yul\":20206:20266   */\n    tag_187:\n        /* \"#utility.yul\":20234:20237   */\n      0x00\n        /* \"#utility.yul\":20255:20260   */\n      dup2\n        /* \"#utility.yul\":20248:20260   */\n      swap1\n      pop\n        /* \"#utility.yul\":20206:20266   */\n      swap2\n      swap1\n      pop\n      jump\t// out\n        /* \"#utility.yul\":20272:20414   */\n    tag_188:\n        /* \"#utility.yul\":20322:20331   */\n      0x00\n        /* \"#utility.yul\":20355:20408   */\n      tag_382\n        /* \"#utility.yul\":20373:20407   */\n      tag_383\n        /* \"#utility.yul\":20382:20406   */\n      tag_384\n        /* \"#utility.yul\":20400:20405   */\n      dup5\n        /* \"#utility.yul\":20382:20406   */\n      tag_139\n      jump\t// in\n    tag_384:\n        /* \"#utility.yul\":20373:20407   */\n      tag_187\n      jump\t// in\n    tag_383:\n        /* \"#utility.yul\":20355:20408   */\n      tag_139\n      jump\t// in\n    tag_382:\n        /* \"#utility.yul\":20342:20408   */\n      swap1\n      pop\n        /* \"#utility.yul\":20272:20414   */\n      swap2\n      swap1\n      pop\n      jump\t// out\n        /* \"#utility.yul\":20420:20495   */\n    tag_189:\n        /* \"#utility.yul\":20463:20466   */\n      0x00\n        /* \"#utility.yul\":20484:20489   */\n      dup2\n        /* \"#utility.yul\":20477:20489   */\n      swap1\n      pop\n        /* \"#utility.yul\":20420:20495   */\n      swap2\n      swap1\n      pop\n      jump\t// out\n        /* \"#utility.yul\":20501:20770   */\n    tag_190:\n        /* \"#utility.yul\":20611:20650   */\n      tag_387\n        /* \"#utility.yul\":20642:20649   */\n      dup4\n        /* \"#utility.yul\":20611:20650   */\n      tag_188\n      jump\t// in\n    tag_387:\n        /* \"#utility.yul\":20672:20763   */\n      tag_388\n        /* \"#utility.yul\":20721:20762   */\n      tag_389\n        /* \"#utility.yul\":20745:20761   */\n      dup3\n        /* \"#utility.yul\":20721:20762   */\n      tag_189\n      jump\t// in\n    tag_389:\n        /* \"#utility.yul\":20713:20719   */\n      dup5\n        /* \"#utility.yul\":20706:20710   */\n      dup5\n        /* \"#utility.yul\":20700:20711   */\n      sload\n        /* \"#utility.yul\":20672:20763   */\n      tag_186\n      jump\t// in\n    tag_388:\n        /* \"#utility.yul\":20666:20670   */\n      dup3\n        /* \"#utility.yul\":20659:20764   */\n      sstore\n        /* \"#utility.yul\":20577:20770   */\n      pop\n        /* \"#utility.yul\":20501:20770   */\n      pop\n      pop\n      pop\n      jump\t// out\n        /* \"#utility.yul\":20776:20849   */\n    tag_191:\n        /* \"#utility.yul\":20821:20824   */\n      0x00\n        /* \"#utility.yul\":20842:20843   */\n      0x00\n        /* \"#utility.yul\":20835:20843   */\n      swap1\n      pop\n        /* \"#utility.yul\":20776:20849   */\n      swap1\n      jump\t// out\n        /* \"#utility.yul\":20855:21044   */\n    tag_192:\n        /* \"#utility.yul\":20932:20964   */\n      tag_392\n      tag_191\n      jump\t// in\n    tag_392:\n        /* \"#utility.yul\":20973:21038   */\n      tag_393\n        /* \"#utility.yul\":21031:21037   */\n      dup2\n        /* \"#utility.yul\":21023:21029   */\n      dup5\n        /* \"#utility.yul\":21017:21021   */\n      dup5\n        /* \"#utility.yul\":20973:21038   */\n      tag_190\n      jump\t// in\n    tag_393:\n        /* \"#utility.yul\":20908:21044   */\n      pop\n        /* \"#utility.yul\":20855:21044   */\n      pop\n      pop\n      jump\t// out\n        /* \"#utility.yul\":21050:21236   */\n    tag_193:\n        /* \"#utility.yul\":21110:21230   */\n    tag_395:\n        /* \"#utility.yul\":21127:21130   */\n      dup2\n        /* \"#utility.yul\":21120:21125   */\n      dup2\n        /* \"#utility.yul\":21117:21131   */\n      lt\n        /* \"#utility.yul\":21110:21230   */\n      iszero\n      tag_397\n      jumpi\n        /* \"#utility.yul\":21181:21220   */\n      tag_398\n        /* \"#utility.yul\":21218:21219   */\n      0x00\n        /* \"#utility.yul\":21211:21216   */\n      dup3\n        /* \"#utility.yul\":21181:21220   */\n      tag_192\n      jump\t// in\n    tag_398:\n        /* \"#utility.yul\":21154:21155   */\n      0x01\n        /* \"#utility.yul\":21147:21152   */\n      dup2\n        /* \"#utility.yul\":21143:21156   */\n      add\n        /* \"#utility.yul\":21134:21156   */\n      swap1\n      pop\n        /* \"#utility.yul\":21110:21230   */\n      jump(tag_395)\n    tag_397:\n        /* \"#utility.yul\":21050:21236   */\n      pop\n      pop\n      jump\t// out\n        /* \"#utility.yul\":21242:21785   */\n    tag_194:\n        /* \"#utility.yul\":21343:21345   */\n      0x1f\n        /* \"#utility.yul\":21338:21341   */\n      dup3\n        /* \"#utility.yul\":21335:21346   */\n      gt\n        /* \"#utility.yul\":21332:21778   */\n      iszero\n      tag_400\n      jumpi\n        /* \"#utility.yul\":21377:21415   */\n      tag_401\n        /* \"#utility.yul\":21409:21414   */\n      dup2\n        /* \"#utility.yul\":21377:21415   */\n      tag_183\n      jump\t// in\n    tag_401:\n        /* \"#utility.yul\":21461:21490   */\n      tag_402\n        /* \"#utility.yul\":21479:21489   */\n      dup5\n        /* \"#utility.yul\":21461:21490   */\n      tag_184\n      jump\t// in\n    tag_402:\n        /* \"#utility.yul\":21451:21459   */\n      dup2\n        /* \"#utility.yul\":21447:21491   */\n      add\n        /* \"#utility.yul\":21644:21646   */\n      0x20\n        /* \"#utility.yul\":21632:21642   */\n      dup6\n        /* \"#utility.yul\":21629:21647   */\n      lt\n        /* \"#utility.yul\":21626:21675   */\n      iszero\n      tag_403\n      jumpi\n        /* \"#utility.yul\":21665:21673   */\n      dup2\n        /* \"#utility.yul\":21650:21673   */\n      swap1\n      pop\n        /* \"#utility.yul\":21626:21675   */\n    tag_403:\n        /* \"#utility.yul\":21688:21768   */\n      tag_404\n        /* \"#utility.yul\":21744:21766   */\n      tag_405\n        /* \"#utility.yul\":21762:21765   */\n      dup6\n        /* \"#utility.yul\":21744:21766   */\n      tag_184\n      jump\t// in\n    tag_405:\n        /* \"#utility.yul\":21734:21742   */\n      dup4\n        /* \"#utility.yul\":21730:21767   */\n      add\n        /* \"#utility.yul\":21717:21728   */\n      dup3\n        /* \"#utility.yul\":21688:21768   */\n      tag_193\n      jump\t// in\n    tag_404:\n        /* \"#utility.yul\":21347:21778   */\n      pop\n      pop\n        /* \"#utility.yul\":21332:21778   */\n    tag_400:\n        /* \"#utility.yul\":21242:21785   */\n      pop\n      pop\n      pop\n      jump\t// out\n        /* \"#utility.yul\":21791:21908   */\n    tag_195:\n        /* \"#utility.yul\":21845:21853   */\n      0x00\n        /* \"#utility.yul\":21895:21900   */\n      dup3\n        /* \"#utility.yul\":21889:21893   */\n      dup3\n        /* \"#utility.yul\":21885:21901   */\n      shr\n        /* \"#utility.yul\":21864:21901   */\n      swap1\n      pop\n        /* \"#utility.yul\":21791:21908   */\n      swap3\n      swap2\n      pop\n      pop\n      jump\t// out\n        /* \"#utility.yul\":21914:22083   */\n    tag_196:\n        /* \"#utility.yul\":21958:21964   */\n      0x00\n        /* \"#utility.yul\":21991:22042   */\n      tag_408\n        /* \"#utility.yul\":22039:22040   */\n      0x00\n        /* \"#utility.yul\":22035:22041   */\n      not\n        /* \"#utility.yul\":22027:22032   */\n      dup5\n        /* \"#utility.yul\":22024:22025   */\n      0x08\n        /* \"#utility.yul\":22020:22033   */\n      mul\n        /* \"#utility.yul\":21991:22042   */\n      tag_195\n      jump\t// in\n    tag_408:\n        /* \"#utility.yul\":21987:22043   */\n      not\n        /* \"#utility.yul\":22072:22076   */\n      dup1\n        /* \"#utility.yul\":22066:22070   */\n      dup4\n        /* \"#utility.yul\":22062:22077   */\n      and\n        /* \"#utility.yul\":22052:22077   */\n      swap2\n      pop\n        /* \"#utility.yul\":21965:22083   */\n      pop\n        /* \"#utility.yul\":21914:22083   */\n      swap3\n      swap2\n      pop\n      pop\n      jump\t// out\n        /* \"#utility.yul\":22088:22383   */\n    tag_197:\n        /* \"#utility.yul\":22164:22168   */\n      0x00\n        /* \"#utility.yul\":22310:22339   */\n      tag_410\n        /* \"#utility.yul\":22335:22338   */\n      dup4\n        /* \"#utility.yul\":22329:22333   */\n      dup4\n        /* \"#utility.yul\":22310:22339   */\n      tag_196\n      jump\t// in\n    tag_410:\n        /* \"#utility.yul\":22302:22339   */\n      swap2\n      pop\n        /* \"#utility.yul\":22372:22375   */\n      dup3\n        /* \"#utility.yul\":22369:22370   */\n      0x02\n        /* \"#utility.yul\":22365:22376   */\n      mul\n        /* \"#utility.yul\":22359:22363   */\n      dup3\n        /* \"#utility.yul\":22356:22377   */\n      or\n        /* \"#utility.yul\":22348:22377   */\n      swap1\n      pop\n        /* \"#utility.yul\":22088:22383   */\n      swap3\n      swap2\n      pop\n      pop\n      jump\t// out\n        /* \"#utility.yul\":22388:23783   */\n    tag_118:\n        /* \"#utility.yul\":22505:22542   */\n      tag_412\n        /* \"#utility.yul\":22538:22541   */\n      dup3\n        /* \"#utility.yul\":22505:22542   */\n      tag_144\n      jump\t// in\n    tag_412:\n        /* \"#utility.yul\":22607:22625   */\n      0xffffffffffffffff\n        /* \"#utility.yul\":22599:22605   */\n      dup2\n        /* \"#utility.yul\":22596:22626   */\n      gt\n        /* \"#utility.yul\":22593:22649   */\n      iszero\n      tag_413\n      jumpi\n        /* \"#utility.yul\":22629:22647   */\n      tag_414\n      tag_165\n      jump\t// in\n    tag_414:\n        /* \"#utility.yul\":22593:22649   */\n    tag_413:\n        /* \"#utility.yul\":22673:22711   */\n      tag_415\n        /* \"#utility.yul\":22705:22709   */\n      dup3\n        /* \"#utility.yul\":22699:22710   */\n      sload\n        /* \"#utility.yul\":22673:22711   */\n      tag_54\n      jump\t// in\n    tag_415:\n        /* \"#utility.yul\":22758:22825   */\n      tag_416\n        /* \"#utility.yul\":22818:22824   */\n      dup3\n        /* \"#utility.yul\":22810:22816   */\n      dup3\n        /* \"#utility.yul\":22804:22808   */\n      dup6\n        /* \"#utility.yul\":22758:22825   */\n      tag_194\n      jump\t// in\n    tag_416:\n        /* \"#utility.yul\":22852:22853   */\n      0x00\n        /* \"#utility.yul\":22876:22880   */\n      0x20\n        /* \"#utility.yul\":22863:22880   */\n      swap1\n      pop\n        /* \"#utility.yul\":22908:22910   */\n      0x1f\n        /* \"#utility.yul\":22900:22906   */\n      dup4\n        /* \"#utility.yul\":22897:22911   */\n      gt\n        /* \"#utility.yul\":22925:22926   */\n      0x01\n        /* \"#utility.yul\":22920:23538   */\n      dup2\n      eq\n      tag_418\n      jumpi\n        /* \"#utility.yul\":23582:23583   */\n      0x00\n        /* \"#utility.yul\":23599:23605   */\n      dup5\n        /* \"#utility.yul\":23596:23673   */\n      iszero\n      tag_419\n      jumpi\n        /* \"#utility.yul\":23648:23657   */\n      dup3\n        /* \"#utility.yul\":23643:23646   */\n      dup8\n        /* \"#utility.yul\":23639:23658   */\n      add\n        /* \"#utility.yul\":23633:23659   */\n      mload\n        /* \"#utility.yul\":23624:23659   */\n      swap1\n      pop\n        /* \"#utility.yul\":23596:23673   */\n    tag_419:\n        /* \"#utility.yul\":23699:23766   */\n      tag_420\n        /* \"#utility.yul\":23759:23765   */\n      dup6\n        /* \"#utility.yul\":23752:23757   */\n      dup3\n        /* \"#utility.yul\":23699:23766   */\n      tag_197\n      jump\t// in\n    tag_420:\n        /* \"#utility.yul\":23693:23697   */\n      dup7\n        /* \"#utility.yul\":23686:23767   */\n      sstore\n        /* \"#utility.yul\":23555:23777   */\n      pop\n        /* \"#utility.yul\":22890:23777   */\n      jump(tag_417)\n        /* \"#utility.yul\":22920:23538   */\n    tag_418:\n        /* \"#utility.yul\":22972:22976   */\n      0x1f\n        /* \"#utility.yul\":22968:22977   */\n      not\n        /* \"#utility.yul\":22960:22966   */\n      dup5\n        /* \"#utility.yul\":22956:22978   */\n      and\n        /* \"#utility.yul\":23006:23043   */\n      tag_421\n        /* \"#utility.yul\":23038:23042   */\n      dup7\n        /* \"#utility.yul\":23006:23043   */\n      tag_183\n      jump\t// in\n    tag_421:\n        /* \"#utility.yul\":23065:23066   */\n      0x00\n        /* \"#utility.yul\":23079:23287   */\n    tag_422:\n        /* \"#utility.yul\":23093:23100   */\n      dup3\n        /* \"#utility.yul\":23090:23091   */\n      dup2\n        /* \"#utility.yul\":23087:23101   */\n      lt\n        /* \"#utility.yul\":23079:23287   */\n      iszero\n      tag_424\n      jumpi\n        /* \"#utility.yul\":23172:23181   */\n      dup5\n        /* \"#utility.yul\":23167:23170   */\n      dup10\n        /* \"#utility.yul\":23163:23182   */\n      add\n        /* \"#utility.yul\":23157:23183   */\n      mload\n        /* \"#utility.yul\":23149:23155   */\n      dup3\n        /* \"#utility.yul\":23142:23184   */\n      sstore\n        /* \"#utility.yul\":23223:23224   */\n      0x01\n        /* \"#utility.yul\":23215:23221   */\n      dup3\n        /* \"#utility.yul\":23211:23225   */\n      add\n        /* \"#utility.yul\":23201:23225   */\n      swap2\n      pop\n        /* \"#utility.yul\":23270:23272   */\n      0x20\n        /* \"#utility.yul\":23259:23268   */\n      dup6\n        /* \"#utility.yul\":23255:23273   */\n      add\n        /* \"#utility.yul\":23242:23273   */\n      swap5\n      pop\n        /* \"#utility.yul\":23116:23120   */\n      0x20\n        /* \"#utility.yul\":23113:23114   */\n      dup2\n        /* \"#utility.yul\":23109:23121   */\n      add\n        /* \"#utility.yul\":23104:23121   */\n      swap1\n      pop\n        /* \"#utility.yul\":23079:23287   */\n      jump(tag_422)\n    tag_424:\n        /* \"#utility.yul\":23315:23321   */\n      dup7\n        /* \"#utility.yul\":23306:23313   */\n      dup4\n        /* \"#utility.yul\":23303:23322   */\n      lt\n        /* \"#utility.yul\":23300:23479   */\n      iszero\n      tag_425\n      jumpi\n        /* \"#utility.yul\":23373:23382   */\n      dup5\n        /* \"#utility.yul\":23368:23371   */\n      dup10\n        /* \"#utility.yul\":23364:23383   */\n      add\n        /* \"#utility.yul\":23358:23384   */\n      mload\n        /* \"#utility.yul\":23416:23464   */\n      tag_426\n        /* \"#utility.yul\":23458:23462   */\n      0x1f\n        /* \"#utility.yul\":23450:23456   */\n      dup10\n        /* \"#utility.yul\":23446:23463   */\n      and\n        /* \"#utility.yul\":23435:23444   */\n      dup3\n        /* \"#utility.yul\":23416:23464   */\n      tag_196\n      jump\t// in\n    tag_426:\n        /* \"#utility.yul\":23408:23414   */\n      dup4\n        /* \"#utility.yul\":23401:23465   */\n      sstore\n        /* \"#utility.yul\":23323:23479   */\n      pop\n        /* \"#utility.yul\":23300:23479   */\n    tag_425:\n        /* \"#utility.yul\":23525:23526   */\n      0x01\n        /* \"#utility.yul\":23521:23522   */\n      0x02\n        /* \"#utility.yul\":23513:23519   */\n      dup9\n        /* \"#utility.yul\":23509:23523   */\n      mul\n        /* \"#utility.yul\":23505:23527   */\n      add\n        /* \"#utility.yul\":23499:23503   */\n      dup9\n        /* \"#utility.yul\":23492:23528   */\n      sstore\n        /* \"#utility.yul\":22927:23538   */\n      pop\n      pop\n      pop\n        /* \"#utility.yul\":22890:23777   */\n    tag_417:\n      pop\n        /* \"#utility.yul\":22480:23783   */\n      pop\n      pop\n      pop\n        /* \"#utility.yul\":22388:23783   */\n      pop\n      pop\n      jump\t// out\n        /* \"#utility.yul\":23789:24433   */\n    tag_120:\n        /* \"#utility.yul\":23986:23990   */\n      0x00\n        /* \"#utility.yul\":24024:24027   */\n      0x80\n        /* \"#utility.yul\":24013:24022   */\n      dup3\n        /* \"#utility.yul\":24009:24028   */\n      add\n        /* \"#utility.yul\":24001:24028   */\n      swap1\n      pop\n        /* \"#utility.yul\":24038:24109   */\n      tag_428\n        /* \"#utility.yul\":24106:24107   */\n      0x00\n        /* \"#utility.yul\":24095:24104   */\n      dup4\n        /* \"#utility.yul\":24091:24108   */\n      add\n        /* \"#utility.yul\":24082:24088   */\n      dup8\n        /* \"#utility.yul\":24038:24109   */\n      tag_142\n      jump\t// in\n    tag_428:\n        /* \"#utility.yul\":24119:24191   */\n      tag_429\n        /* \"#utility.yul\":24187:24189   */\n      0x20\n        /* \"#utility.yul\":24176:24185   */\n      dup4\n        /* \"#utility.yul\":24172:24190   */\n      add\n        /* \"#utility.yul\":24163:24169   */\n      dup7\n        /* \"#utility.yul\":24119:24191   */\n      tag_143\n      jump\t// in\n    tag_429:\n        /* \"#utility.yul\":24238:24247   */\n      dup2\n        /* \"#utility.yul\":24232:24236   */\n      dup2\n        /* \"#utility.yul\":24228:24248   */\n      sub\n        /* \"#utility.yul\":24223:24225   */\n      0x40\n        /* \"#utility.yul\":24212:24221   */\n      dup4\n        /* \"#utility.yul\":24208:24226   */\n      add\n        /* \"#utility.yul\":24201:24249   */\n      mstore\n        /* \"#utility.yul\":24266:24344   */\n      tag_430\n        /* \"#utility.yul\":24339:24343   */\n      dup2\n        /* \"#utility.yul\":24330:24336   */\n      dup6\n        /* \"#utility.yul\":24266:24344   */\n      tag_148\n      jump\t// in\n    tag_430:\n        /* \"#utility.yul\":24258:24344   */\n      swap1\n      pop\n        /* \"#utility.yul\":24354:24426   */\n      tag_431\n        /* \"#utility.yul\":24422:24424   */\n      0x60\n        /* \"#utility.yul\":24411:24420   */\n      dup4\n        /* \"#utility.yul\":24407:24425   */\n      add\n        /* \"#utility.yul\":24398:24404   */\n      dup5\n        /* \"#utility.yul\":24354:24426   */\n      tag_142\n      jump\t// in\n    tag_431:\n        /* \"#utility.yul\":23789:24433   */\n      swap6\n      swap5\n      pop\n      pop\n      pop\n      pop\n      pop\n      jump\t// out\n\n    auxdata: 0xa2646970667358221220bfb9ffd4160e1c4ff40a3e83bf7cff6871e85ba518a673b68f455231aaf8780c64736f6c634300081e0033\n}\n",
				"bytecode": {
					"linkReferences": {},
					"object": "60806040526101185f553480156013575f5ffd5b503360025f6101000a81548173ffffffffffffffffffffffffffffffffffffffff021916908373ffffffffffffffffffffffffffffffffffffffff1602179055506118f2806100615f395ff3fe608060405234801561000f575f5ffd5b5060043610610091575f3560e01c80635f484677116100645780635f4846771461011f5780636eb107971461013b5780637c9cd2bc146101595780638da5cb5b14610175578063c3ad5ecb1461019357610091565b806305a1b4a91461009557806315bf4006146100c957806353256135146100e557806358bfa4ab14610103575b5f5ffd5b6100af60048036038101906100aa9190610d5e565b6101c3565b6040516100c0959493929190610e2a565b60405180910390f35b6100e360048036038101906100de9190610d5e565b6102b4565b005b6100ed610465565b6040516100fa9190611016565b60405180910390f35b61011d6004803603810190610118919061106d565b6105fe565b005b61013960048036038101906101349190610d5e565b61069a565b005b6101436108eb565b6040516101509190611098565b60405180910390f35b610173600480360381019061016e91906111dd565b6108f0565b005b61017d610ae3565b60405161018a9190611224565b60405180910390f35b6101ad60048036038101906101a8919061123d565b610b08565b6040516101ba91906112db565b60405180910390f35b6001602052815f5260405f2081815481106101dc575f80fd5b905f5260205f2090600502015f9150915050805f015490806001015f9054906101000a900473ffffffffffffffffffffffffffffffffffffffff169080600201805461022790611328565b80601f016020809104026020016040519081016040528092919081815260200182805461025390611328565b801561029e5780601f106102755761010080835404028352916020019161029e565b820191905f5260205f20905b81548152906001019060200180831161028157829003601f168201915b5050505050908060030154908060040154905085565b8060015f8473ffffffffffffffffffffffffffffffffffffffff1673ffffffffffffffffffffffffffffffffffffffff1681526020019081526020015f20828154811061030457610303611358565b5b905f5260205f2090600502015f015414610353576040517f08c379a000000000000000000000000000000000000000000000000000000000815260040161034a906113cf565b60405180910390fd5b60015f8373ffffffffffffffffffffffffffffffffffffffff1673ffffffffffffffffffffffffffffffffffffffff1681526020019081526020015f2081815481106103a2576103a1611358565b5b905f5260205f2090600502016004015f8154809291906103c19061141a565b91905055507fa3c9ad75b0736706936cfe2646da2d2a6539dfdefbe5267580b75d175015198133838360015f8773ffffffffffffffffffffffffffffffffffffffff1673ffffffffffffffffffffffffffffffffffffffff1681526020019081526020015f20858154811061043957610438611358565b5b905f5260205f209060050201600401546040516104599493929190611461565b60405180910390a15050565b606060015f3373ffffffffffffffffffffffffffffffffffffffff1673ffffffffffffffffffffffffffffffffffffffff1681526020019081526020015f20805480602002602001604051908101604052809291908181526020015f905b828210156105f5578382905f5260205f2090600502016040518060a00160405290815f8201548152602001600182015f9054906101000a900473ffffffffffffffffffffffffffffffffffffffff1673ffffffffffffffffffffffffffffffffffffffff1673ffffffffffffffffffffffffffffffffffffffff16815260200160028201805461055290611328565b80601f016020809104026020016040519081016040528092919081815260200182805461057e90611328565b80156105c95780601f106105a0576101008083540402835291602001916105c9565b820191905f5260205f20905b8154815290600101906020018083116105ac57829003601f168201915b5050505050815260200160038201548152602001600482015481525050815260200190600101906104c3565b50505050905090565b3373ffffffffffffffffffffffffffffffffffffffff1660025f9054906101000a900473ffffffffffffffffffffffffffffffffffffffff1673ffffffffffffffffffffffffffffffffffffffff161461068d576040517f08c379a0000000000000000000000000000000000000000000000000000000008152600401610684906114ee565b60405180910390fd5b8061ffff165f8190555050565b8060015f8473ffffffffffffffffffffffffffffffffffffffff1673ffffffffffffffffffffffffffffffffffffffff1681526020019081526020015f2082815481106106ea576106e9611358565b5b905f5260205f2090600502015f015414610739576040517f08c379a0000000000000000000000000000000000000000000000000000000008152600401610730906113cf565b60405180910390fd5b5f60015f8473ffffffffffffffffffffffffffffffffffffffff1673ffffffffffffffffffffffffffffffffffffffff1681526020019081526020015f20828154811061078957610788611358565b5b905f5260205f20906005020160040154116107d9576040517f08c379a00000000000000000000000000000000000000000000000000000000081526004016107d090611556565b60405180910390fd5b60015f8373ffffffffffffffffffffffffffffffffffffffff1673ffffffffffffffffffffffffffffffffffffffff1681526020019081526020015f20818154811061082857610827611358565b5b905f5260205f2090600502016004015f81548092919061084790611574565b91905055507f58269e846e627224af1e738ac3cbb32d4320094d60695e377df7e94cc6392ca333838360015f8773ffffffffffffffffffffffffffffffffffffffff1673ffffffffffffffffffffffffffffffffffffffff1681526020019081526020015f2085815481106108bf576108be611358565b5b905f5260205f209060050201600401546040516108df9493929190611461565b60405180910390a15050565b5f5481565b5f5481511115610935576040517f08c379a000000000000000000000000000000000000000000000000000000000815260040161092c906115e5565b60405180910390fd5b5f6040518060a0016040528060015f3373ffffffffffffffffffffffffffffffffffffffff1673ffffffffffffffffffffffffffffffffffffffff1681526020019081526020015f208054905081526020013373ffffffffffffffffffffffffffffffffffffffff1681526020018381526020014281526020015f815250905060015f3373ffffffffffffffffffffffffffffffffffffffff1673ffffffffffffffffffffffffffffffffffffffff1681526020019081526020015f2081908060018154018082558091505060019003905f5260205f2090600502015f909190919091505f820151815f01556020820151816001015f6101000a81548173ffffffffffffffffffffffffffffffffffffffff021916908373ffffffffffffffffffffffffffffffffffffffff1602179055506040820151816002019081610a7c91906117a3565b50606082015181600301556080820151816004015550507f6e5546a74a8ef6731872256d3bbbf86208675b875b179abed63f4ed747a30cfb815f0151826020015183604001518460600151604051610ad79493929190611872565b60405180910390a15050565b60025f9054906101000a900473ffffffffffffffffffffffffffffffffffffffff1681565b610b10610c7f565b60015f3373ffffffffffffffffffffffffffffffffffffffff1673ffffffffffffffffffffffffffffffffffffffff1681526020019081526020015f208281548110610b5f57610b5e611358565b5b905f5260205f2090600502016040518060a00160405290815f8201548152602001600182015f9054906101000a900473ffffffffffffffffffffffffffffffffffffffff1673ffffffffffffffffffffffffffffffffffffffff1673ffffffffffffffffffffffffffffffffffffffff168152602001600282018054610be490611328565b80601f0160208091040260200160405190810160405280929190818152602001828054610c1090611328565b8015610c5b5780601f10610c3257610100808354040283529160200191610c5b565b820191905f5260205f20905b815481529060010190602001808311610c3e57829003601f168201915b50505050508152602001600382015481526020016004820154815250509050919050565b6040518060a001604052805f81526020015f73ffffffffffffffffffffffffffffffffffffffff168152602001606081526020015f81526020015f81525090565b5f604051905090565b5f5ffd5b5f5ffd5b5f73ffffffffffffffffffffffffffffffffffffffff82169050919050565b5f610cfa82610cd1565b9050919050565b610d0a81610cf0565b8114610d14575f5ffd5b50565b5f81359050610d2581610d01565b92915050565b5f819050919050565b610d3d81610d2b565b8114610d47575f5ffd5b50565b5f81359050610d5881610d34565b92915050565b5f5f60408385031215610d7457610d73610cc9565b5b5f610d8185828601610d17565b9250506020610d9285828601610d4a565b9150509250929050565b610da581610d2b565b82525050565b610db481610cf0565b82525050565b5f81519050919050565b5f82825260208201905092915050565b8281835e5f83830152505050565b5f601f19601f8301169050919050565b5f610dfc82610dba565b610e068185610dc4565b9350610e16818560208601610dd4565b610e1f81610de2565b840191505092915050565b5f60a082019050610e3d5f830188610d9c565b610e4a6020830187610dab565b8181036040830152610e5c8186610df2565b9050610e6b6060830185610d9c565b610e786080830184610d9c565b9695505050505050565b5f81519050919050565b5f82825260208201905092915050565b5f819050602082019050919050565b610eb481610d2b565b82525050565b610ec381610cf0565b82525050565b5f82825260208201905092915050565b5f610ee382610dba565b610eed8185610ec9565b9350610efd818560208601610dd4565b610f0681610de2565b840191505092915050565b5f60a083015f830151610f265f860182610eab565b506020830151610f396020860182610eba565b5060408301518482036040860152610f518282610ed9565b9150506060830151610f666060860182610eab565b506080830151610f796080860182610eab565b508091505092915050565b5f610f8f8383610f11565b905092915050565b5f602082019050919050565b5f610fad82610e82565b610fb78185610e8c565b935083602082028501610fc985610e9c565b805f5b858110156110045784840389528151610fe58582610f84565b9450610ff083610f97565b925060208a01995050600181019050610fcc565b50829750879550505050505092915050565b5f6020820190508181035f83015261102e8184610fa3565b905092915050565b5f61ffff82169050919050565b61104c81611036565b8114611056575f5ffd5b50565b5f8135905061106781611043565b92915050565b5f6020828403121561108257611081610cc9565b5b5f61108f84828501611059565b91505092915050565b5f6020820190506110ab5f830184610d9c565b92915050565b5f5ffd5b5f5ffd5b7f4e487b71000000000000000000000000000000000000000000000000000000005f52604160045260245ffd5b6110ef82610de2565b810181811067ffffffffffffffff8211171561110e5761110d6110b9565b5b80604052505050565b5f611120610cc0565b905061112c82826110e6565b919050565b5f67ffffffffffffffff82111561114b5761114a6110b9565b5b61115482610de2565b9050602081019050919050565b828183375f83830152505050565b5f61118161117c84611131565b611117565b90508281526020810184848401111561119d5761119c6110b5565b5b6111a8848285611161565b509392505050565b5f82601f8301126111c4576111c36110b1565b5b81356111d484826020860161116f565b91505092915050565b5f602082840312156111f2576111f1610cc9565b5b5f82013567ffffffffffffffff81111561120f5761120e610ccd565b5b61121b848285016111b0565b91505092915050565b5f6020820190506112375f830184610dab565b92915050565b5f6020828403121561125257611251610cc9565b5b5f61125f84828501610d4a565b91505092915050565b5f60a083015f83015161127d5f860182610eab565b5060208301516112906020860182610eba565b50604083015184820360408601526112a88282610ed9565b91505060608301516112bd6060860182610eab565b5060808301516112d06080860182610eab565b508091505092915050565b5f6020820190508181035f8301526112f38184611268565b905092915050565b7f4e487b71000000000000000000000000000000000000000000000000000000005f52602260045260245ffd5b5f600282049050600182168061133f57607f821691505b602082108103611352576113516112fb565b5b50919050565b7f4e487b71000000000000000000000000000000000000000000000000000000005f52603260045260245ffd5b7f547765657420646f6573206e6f742065786974210000000000000000000000005f82015250565b5f6113b9601483610dc4565b91506113c482611385565b602082019050919050565b5f6020820190508181035f8301526113e6816113ad565b9050919050565b7f4e487b71000000000000000000000000000000000000000000000000000000005f52601160045260245ffd5b5f61142482610d2b565b91507fffffffffffffffffffffffffffffffffffffffffffffffffffffffffffffffff8203611456576114556113ed565b5b600182019050919050565b5f6080820190506114745f830187610dab565b6114816020830186610dab565b61148e6040830185610d9c565b61149b6060830184610d9c565b95945050505050565b7f596f7520617265206e6f7420746865206f776e657221000000000000000000005f82015250565b5f6114d8601683610dc4565b91506114e3826114a4565b602082019050919050565b5f6020820190508181035f830152611505816114cc565b9050919050565b7f546865726520617265206e6f206c696b657300000000000000000000000000005f82015250565b5f611540601283610dc4565b915061154b8261150c565b602082019050919050565b5f6020820190508181035f83015261156d81611534565b9050919050565b5f61157e82610d2b565b91505f82036115905761158f6113ed565b5b600182039050919050565b7f547765657420746f6f206c6f6e672100000000000000000000000000000000005f82015250565b5f6115cf600f83610dc4565b91506115da8261159b565b602082019050919050565b5f6020820190508181035f8301526115fc816115c3565b9050919050565b5f819050815f5260205f209050919050565b5f6020601f8301049050919050565b5f82821b905092915050565b5f6008830261165f7fffffffffffffffffffffffffffffffffffffffffffffffffffffffffffffffff82611624565b6116698683611624565b95508019841693508086168417925050509392505050565b5f819050919050565b5f6116a461169f61169a84610d2b565b611681565b610d2b565b9050919050565b5f819050919050565b6116bd8361168a565b6116d16116c9826116ab565b848454611630565b825550505050565b5f5f905090565b6116e86116d9565b6116f38184846116b4565b505050565b5b818110156117165761170b5f826116e0565b6001810190506116f9565b5050565b601f82111561175b5761172c81611603565b61173584611615565b81016020851015611744578190505b61175861175085611615565b8301826116f8565b50505b505050565b5f82821c905092915050565b5f61177b5f1984600802611760565b1980831691505092915050565b5f611793838361176c565b9150826002028217905092915050565b6117ac82610dba565b67ffffffffffffffff8111156117c5576117c46110b9565b5b6117cf8254611328565b6117da82828561171a565b5f60209050601f83116001811461180b575f84156117f9578287015190505b6118038582611788565b86555061186a565b601f19841661181986611603565b5f5b828110156118405784890151825560018201915060208501945060208101905061181b565b8683101561185d5784890151611859601f89168261176c565b8355505b6001600288020188555050505b505050505050565b5f6080820190506118855f830187610d9c565b6118926020830186610dab565b81810360408301526118a48185610df2565b90506118b36060830184610d9c565b9594505050505056fea2646970667358221220bfb9ffd4160e1c4ff40a3e83bf7cff6871e85ba518a673b68f455231aaf8780c64736f6c634300081e0033",
					"opcodes": "PUSH1 0x80 PUSH1 0x40 MSTORE PUSH2 0x118 PUSH0 SSTORE CALLVALUE DUP1 ISZERO PUSH1 0x13 JUMPI PUSH0 PUSH0 REVERT JUMPDEST POP CALLER PUSH1 0x2 PUSH0 PUSH2 0x100 EXP DUP2 SLOAD DUP2 PUSH20 0xFFFFFFFFFFFFFFFFFFFFFFFFFFFFFFFFFFFFFFFF MUL NOT AND SWAP1 DUP4 PUSH20 0xFFFFFFFFFFFFFFFFFFFFFFFFFFFFFFFFFFFFFFFF AND MUL OR SWAP1 SSTORE POP PUSH2 0x18F2 DUP1 PUSH2 0x61 PUSH0 CODECOPY PUSH0 RETURN INVALID PUSH1 0x80 PUSH1 0x40 MSTORE CALLVALUE DUP1 ISZERO PUSH2 0xF JUMPI PUSH0 PUSH0 REVERT JUMPDEST POP PUSH1 0x4 CALLDATASIZE LT PUSH2 0x91 JUMPI PUSH0 CALLDATALOAD PUSH1 0xE0 SHR DUP1 PUSH4 0x5F484677 GT PUSH2 0x64 JUMPI DUP1 PUSH4 0x5F484677 EQ PUSH2 0x11F JUMPI DUP1 PUSH4 0x6EB10797 EQ PUSH2 0x13B JUMPI DUP1 PUSH4 0x7C9CD2BC EQ PUSH2 0x159 JUMPI DUP1 PUSH4 0x8DA5CB5B EQ PUSH2 0x175 JUMPI DUP1 PUSH4 0xC3AD5ECB EQ PUSH2 0x193 JUMPI PUSH2 0x91 JUMP JUMPDEST DUP1 PUSH4 0x5A1B4A9 EQ PUSH2 0x95 JUMPI DUP1 PUSH4 0x15BF4006 EQ PUSH2 0xC9 JUMPI DUP1 PUSH4 0x53256135 EQ PUSH2 0xE5 JUMPI DUP1 PUSH4 0x58BFA4AB EQ PUSH2 0x103 JUMPI JUMPDEST PUSH0 PUSH0 REVERT JUMPDEST PUSH2 0xAF PUSH1 0x4 DUP1 CALLDATASIZE SUB DUP2 ADD SWAP1 PUSH2 0xAA SWAP2 SWAP1 PUSH2 0xD5E JUMP JUMPDEST PUSH2 0x1C3 JUMP JUMPDEST PUSH1 0x40 MLOAD PUSH2 0xC0 SWAP6 SWAP5 SWAP4 SWAP3 SWAP2 SWAP1 PUSH2 0xE2A JUMP JUMPDEST PUSH1 0x40 MLOAD DUP1 SWAP2 SUB SWAP1 RETURN JUMPDEST PUSH2 0xE3 PUSH1 0x4 DUP1 CALLDATASIZE SUB DUP2 ADD SWAP1 PUSH2 0xDE SWAP2 SWAP1 PUSH2 0xD5E JUMP JUMPDEST PUSH2 0x2B4 JUMP JUMPDEST STOP JUMPDEST PUSH2 0xED PUSH2 0x465 JUMP JUMPDEST PUSH1 0x40 MLOAD PUSH2 0xFA SWAP2 SWAP1 PUSH2 0x1016 JUMP JUMPDEST PUSH1 0x40 MLOAD DUP1 SWAP2 SUB SWAP1 RETURN JUMPDEST PUSH2 0x11D PUSH1 0x4 DUP1 CALLDATASIZE SUB DUP2 ADD SWAP1 PUSH2 0x118 SWAP2 SWAP1 PUSH2 0x106D JUMP JUMPDEST PUSH2 0x5FE JUMP JUMPDEST STOP JUMPDEST PUSH2 0x139 PUSH1 0x4 DUP1 CALLDATASIZE SUB DUP2 ADD SWAP1 PUSH2 0x134 SWAP2 SWAP1 PUSH2 0xD5E JUMP JUMPDEST PUSH2 0x69A JUMP JUMPDEST STOP JUMPDEST PUSH2 0x143 PUSH2 0x8EB JUMP JUMPDEST PUSH1 0x40 MLOAD PUSH2 0x150 SWAP2 SWAP1 PUSH2 0x1098 JUMP JUMPDEST PUSH1 0x40 MLOAD DUP1 SWAP2 SUB SWAP1 RETURN JUMPDEST PUSH2 0x173 PUSH1 0x4 DUP1 CALLDATASIZE SUB DUP2 ADD SWAP1 PUSH2 0x16E SWAP2 SWAP1 PUSH2 0x11DD JUMP JUMPDEST PUSH2 0x8F0 JUMP JUMPDEST STOP JUMPDEST PUSH2 0x17D PUSH2 0xAE3 JUMP JUMPDEST PUSH1 0x40 MLOAD PUSH2 0x18A SWAP2 SWAP1 PUSH2 0x1224 JUMP JUMPDEST PUSH1 0x40 MLOAD DUP1 SWAP2 SUB SWAP1 RETURN JUMPDEST PUSH2 0x1AD PUSH1 0x4 DUP1 CALLDATASIZE SUB DUP2 ADD SWAP1 PUSH2 0x1A8 SWAP2 SWAP1 PUSH2 0x123D JUMP JUMPDEST PUSH2 0xB08 JUMP JUMPDEST PUSH1 0x40 MLOAD PUSH2 0x1BA SWAP2 SWAP1 PUSH2 0x12DB JUMP JUMPDEST PUSH1 0x40 MLOAD DUP1 SWAP2 SUB SWAP1 RETURN JUMPDEST PUSH1 0x1 PUSH1 0x20 MSTORE DUP2 PUSH0 MSTORE PUSH1 0x40 PUSH0 KECCAK256 DUP2 DUP2 SLOAD DUP2 LT PUSH2 0x1DC JUMPI PUSH0 DUP1 REVERT JUMPDEST SWAP1 PUSH0 MSTORE PUSH1 0x20 PUSH0 KECCAK256 SWAP1 PUSH1 0x5 MUL ADD PUSH0 SWAP2 POP SWAP2 POP POP DUP1 PUSH0 ADD SLOAD SWAP1 DUP1 PUSH1 0x1 ADD PUSH0 SWAP1 SLOAD SWAP1 PUSH2 0x100 EXP SWAP1 DIV PUSH20 0xFFFFFFFFFFFFFFFFFFFFFFFFFFFFFFFFFFFFFFFF AND SWAP1 DUP1 PUSH1 0x2 ADD DUP1 SLOAD PUSH2 0x227 SWAP1 PUSH2 0x1328 JUMP JUMPDEST DUP1 PUSH1 0x1F ADD PUSH1 0x20 DUP1 SWAP2 DIV MUL PUSH1 0x20 ADD PUSH1 0x40 MLOAD SWAP1 DUP2 ADD PUSH1 0x40 MSTORE DUP1 SWAP3 SWAP2 SWAP1 DUP2 DUP2 MSTORE PUSH1 0x20 ADD DUP3 DUP1 SLOAD PUSH2 0x253 SWAP1 PUSH2 0x1328 JUMP JUMPDEST DUP1 ISZERO PUSH2 0x29E JUMPI DUP1 PUSH1 0x1F LT PUSH2 0x275 JUMPI PUSH2 0x100 DUP1 DUP4 SLOAD DIV MUL DUP4 MSTORE SWAP2 PUSH1 0x20 ADD SWAP2 PUSH2 0x29E JUMP JUMPDEST DUP3 ADD SWAP2 SWAP1 PUSH0 MSTORE PUSH1 0x20 PUSH0 KECCAK256 SWAP1 JUMPDEST DUP2 SLOAD DUP2 MSTORE SWAP1 PUSH1 0x1 ADD SWAP1 PUSH1 0x20 ADD DUP1 DUP4 GT PUSH2 0x281 JUMPI DUP3 SWAP1 SUB PUSH1 0x1F AND DUP3 ADD SWAP2 JUMPDEST POP POP POP POP POP SWAP1 DUP1 PUSH1 0x3 ADD SLOAD SWAP1 DUP1 PUSH1 0x4 ADD SLOAD SWAP1 POP DUP6 JUMP JUMPDEST DUP1 PUSH1 0x1 PUSH0 DUP5 PUSH20 0xFFFFFFFFFFFFFFFFFFFFFFFFFFFFFFFFFFFFFFFF AND PUSH20 0xFFFFFFFFFFFFFFFFFFFFFFFFFFFFFFFFFFFFFFFF AND DUP2 MSTORE PUSH1 0x20 ADD SWAP1 DUP2 MSTORE PUSH1 0x20 ADD PUSH0 KECCAK256 DUP3 DUP2 SLOAD DUP2 LT PUSH2 0x304 JUMPI PUSH2 0x303 PUSH2 0x1358 JUMP JUMPDEST JUMPDEST SWAP1 PUSH0 MSTORE PUSH1 0x20 PUSH0 KECCAK256 SWAP1 PUSH1 0x5 MUL ADD PUSH0 ADD SLOAD EQ PUSH2 0x353 JUMPI PUSH1 0x40 MLOAD PUSH32 0x8C379A000000000000000000000000000000000000000000000000000000000 DUP2 MSTORE PUSH1 0x4 ADD PUSH2 0x34A SWAP1 PUSH2 0x13CF JUMP JUMPDEST PUSH1 0x40 MLOAD DUP1 SWAP2 SUB SWAP1 REVERT JUMPDEST PUSH1 0x1 PUSH0 DUP4 PUSH20 0xFFFFFFFFFFFFFFFFFFFFFFFFFFFFFFFFFFFFFFFF AND PUSH20 0xFFFFFFFFFFFFFFFFFFFFFFFFFFFFFFFFFFFFFFFF AND DUP2 MSTORE PUSH1 0x20 ADD SWAP1 DUP2 MSTORE PUSH1 0x20 ADD PUSH0 KECCAK256 DUP2 DUP2 SLOAD DUP2 LT PUSH2 0x3A2 JUMPI PUSH2 0x3A1 PUSH2 0x1358 JUMP JUMPDEST JUMPDEST SWAP1 PUSH0 MSTORE PUSH1 0x20 PUSH0 KECCAK256 SWAP1 PUSH1 0x5 MUL ADD PUSH1 0x4 ADD PUSH0 DUP2 SLOAD DUP1 SWAP3 SWAP2 SWAP1 PUSH2 0x3C1 SWAP1 PUSH2 0x141A JUMP JUMPDEST SWAP2 SWAP1 POP SSTORE POP PUSH32 0xA3C9AD75B0736706936CFE2646DA2D2A6539DFDEFBE5267580B75D1750151981 CALLER DUP4 DUP4 PUSH1 0x1 PUSH0 DUP8 PUSH20 0xFFFFFFFFFFFFFFFFFFFFFFFFFFFFFFFFFFFFFFFF AND PUSH20 0xFFFFFFFFFFFFFFFFFFFFFFFFFFFFFFFFFFFFFFFF AND DUP2 MSTORE PUSH1 0x20 ADD SWAP1 DUP2 MSTORE PUSH1 0x20 ADD PUSH0 KECCAK256 DUP6 DUP2 SLOAD DUP2 LT PUSH2 0x439 JUMPI PUSH2 0x438 PUSH2 0x1358 JUMP JUMPDEST JUMPDEST SWAP1 PUSH0 MSTORE PUSH1 0x20 PUSH0 KECCAK256 SWAP1 PUSH1 0x5 MUL ADD PUSH1 0x4 ADD SLOAD PUSH1 0x40 MLOAD PUSH2 0x459 SWAP5 SWAP4 SWAP3 SWAP2 SWAP1 PUSH2 0x1461 JUMP JUMPDEST PUSH1 0x40 MLOAD DUP1 SWAP2 SUB SWAP1 LOG1 POP POP JUMP JUMPDEST PUSH1 0x60 PUSH1 0x1 PUSH0 CALLER PUSH20 0xFFFFFFFFFFFFFFFFFFFFFFFFFFFFFFFFFFFFFFFF AND PUSH20 0xFFFFFFFFFFFFFFFFFFFFFFFFFFFFFFFFFFFFFFFF AND DUP2 MSTORE PUSH1 0x20 ADD SWAP1 DUP2 MSTORE PUSH1 0x20 ADD PUSH0 KECCAK256 DUP1 SLOAD DUP1 PUSH1 0x20 MUL PUSH1 0x20 ADD PUSH1 0x40 MLOAD SWAP1 DUP2 ADD PUSH1 0x40 MSTORE DUP1 SWAP3 SWAP2 SWAP1 DUP2 DUP2 MSTORE PUSH1 0x20 ADD PUSH0 SWAP1 JUMPDEST DUP3 DUP3 LT ISZERO PUSH2 0x5F5 JUMPI DUP4 DUP3 SWAP1 PUSH0 MSTORE PUSH1 0x20 PUSH0 KECCAK256 SWAP1 PUSH1 0x5 MUL ADD PUSH1 0x40 MLOAD DUP1 PUSH1 0xA0 ADD PUSH1 0x40 MSTORE SWAP1 DUP2 PUSH0 DUP3 ADD SLOAD DUP2 MSTORE PUSH1 0x20 ADD PUSH1 0x1 DUP3 ADD PUSH0 SWAP1 SLOAD SWAP1 PUSH2 0x100 EXP SWAP1 DIV PUSH20 0xFFFFFFFFFFFFFFFFFFFFFFFFFFFFFFFFFFFFFFFF AND PUSH20 0xFFFFFFFFFFFFFFFFFFFFFFFFFFFFFFFFFFFFFFFF AND PUSH20 0xFFFFFFFFFFFFFFFFFFFFFFFFFFFFFFFFFFFFFFFF AND DUP2 MSTORE PUSH1 0x20 ADD PUSH1 0x2 DUP3 ADD DUP1 SLOAD PUSH2 0x552 SWAP1 PUSH2 0x1328 JUMP JUMPDEST DUP1 PUSH1 0x1F ADD PUSH1 0x20 DUP1 SWAP2 DIV MUL PUSH1 0x20 ADD PUSH1 0x40 MLOAD SWAP1 DUP2 ADD PUSH1 0x40 MSTORE DUP1 SWAP3 SWAP2 SWAP1 DUP2 DUP2 MSTORE PUSH1 0x20 ADD DUP3 DUP1 SLOAD PUSH2 0x57E SWAP1 PUSH2 0x1328 JUMP JUMPDEST DUP1 ISZERO PUSH2 0x5C9 JUMPI DUP1 PUSH1 0x1F LT PUSH2 0x5A0 JUMPI PUSH2 0x100 DUP1 DUP4 SLOAD DIV MUL DUP4 MSTORE SWAP2 PUSH1 0x20 ADD SWAP2 PUSH2 0x5C9 JUMP JUMPDEST DUP3 ADD SWAP2 SWAP1 PUSH0 MSTORE PUSH1 0x20 PUSH0 KECCAK256 SWAP1 JUMPDEST DUP2 SLOAD DUP2 MSTORE SWAP1 PUSH1 0x1 ADD SWAP1 PUSH1 0x20 ADD DUP1 DUP4 GT PUSH2 0x5AC JUMPI DUP3 SWAP1 SUB PUSH1 0x1F AND DUP3 ADD SWAP2 JUMPDEST POP POP POP POP POP DUP2 MSTORE PUSH1 0x20 ADD PUSH1 0x3 DUP3 ADD SLOAD DUP2 MSTORE PUSH1 0x20 ADD PUSH1 0x4 DUP3 ADD SLOAD DUP2 MSTORE POP POP DUP2 MSTORE PUSH1 0x20 ADD SWAP1 PUSH1 0x1 ADD SWAP1 PUSH2 0x4C3 JUMP JUMPDEST POP POP POP POP SWAP1 POP SWAP1 JUMP JUMPDEST CALLER PUSH20 0xFFFFFFFFFFFFFFFFFFFFFFFFFFFFFFFFFFFFFFFF AND PUSH1 0x2 PUSH0 SWAP1 SLOAD SWAP1 PUSH2 0x100 EXP SWAP1 DIV PUSH20 0xFFFFFFFFFFFFFFFFFFFFFFFFFFFFFFFFFFFFFFFF AND PUSH20 0xFFFFFFFFFFFFFFFFFFFFFFFFFFFFFFFFFFFFFFFF AND EQ PUSH2 0x68D JUMPI PUSH1 0x40 MLOAD PUSH32 0x8C379A000000000000000000000000000000000000000000000000000000000 DUP2 MSTORE PUSH1 0x4 ADD PUSH2 0x684 SWAP1 PUSH2 0x14EE JUMP JUMPDEST PUSH1 0x40 MLOAD DUP1 SWAP2 SUB SWAP1 REVERT JUMPDEST DUP1 PUSH2 0xFFFF AND PUSH0 DUP2 SWAP1 SSTORE POP POP JUMP JUMPDEST DUP1 PUSH1 0x1 PUSH0 DUP5 PUSH20 0xFFFFFFFFFFFFFFFFFFFFFFFFFFFFFFFFFFFFFFFF AND PUSH20 0xFFFFFFFFFFFFFFFFFFFFFFFFFFFFFFFFFFFFFFFF AND DUP2 MSTORE PUSH1 0x20 ADD SWAP1 DUP2 MSTORE PUSH1 0x20 ADD PUSH0 KECCAK256 DUP3 DUP2 SLOAD DUP2 LT PUSH2 0x6EA JUMPI PUSH2 0x6E9 PUSH2 0x1358 JUMP JUMPDEST JUMPDEST SWAP1 PUSH0 MSTORE PUSH1 0x20 PUSH0 KECCAK256 SWAP1 PUSH1 0x5 MUL ADD PUSH0 ADD SLOAD EQ PUSH2 0x739 JUMPI PUSH1 0x40 MLOAD PUSH32 0x8C379A000000000000000000000000000000000000000000000000000000000 DUP2 MSTORE PUSH1 0x4 ADD PUSH2 0x730 SWAP1 PUSH2 0x13CF JUMP JUMPDEST PUSH1 0x40 MLOAD DUP1 SWAP2 SUB SWAP1 REVERT JUMPDEST PUSH0 PUSH1 0x1 PUSH0 DUP5 PUSH20 0xFFFFFFFFFFFFFFFFFFFFFFFFFFFFFFFFFFFFFFFF AND PUSH20 0xFFFFFFFFFFFFFFFFFFFFFFFFFFFFFFFFFFFFFFFF AND DUP2 MSTORE PUSH1 0x20 ADD SWAP1 DUP2 MSTORE PUSH1 0x20 ADD PUSH0 KECCAK256 DUP3 DUP2 SLOAD DUP2 LT PUSH2 0x789 JUMPI PUSH2 0x788 PUSH2 0x1358 JUMP JUMPDEST JUMPDEST SWAP1 PUSH0 MSTORE PUSH1 0x20 PUSH0 KECCAK256 SWAP1 PUSH1 0x5 MUL ADD PUSH1 0x4 ADD SLOAD GT PUSH2 0x7D9 JUMPI PUSH1 0x40 MLOAD PUSH32 0x8C379A000000000000000000000000000000000000000000000000000000000 DUP2 MSTORE PUSH1 0x4 ADD PUSH2 0x7D0 SWAP1 PUSH2 0x1556 JUMP JUMPDEST PUSH1 0x40 MLOAD DUP1 SWAP2 SUB SWAP1 REVERT JUMPDEST PUSH1 0x1 PUSH0 DUP4 PUSH20 0xFFFFFFFFFFFFFFFFFFFFFFFFFFFFFFFFFFFFFFFF AND PUSH20 0xFFFFFFFFFFFFFFFFFFFFFFFFFFFFFFFFFFFFFFFF AND DUP2 MSTORE PUSH1 0x20 ADD SWAP1 DUP2 MSTORE PUSH1 0x20 ADD PUSH0 KECCAK256 DUP2 DUP2 SLOAD DUP2 LT PUSH2 0x828 JUMPI PUSH2 0x827 PUSH2 0x1358 JUMP JUMPDEST JUMPDEST SWAP1 PUSH0 MSTORE PUSH1 0x20 PUSH0 KECCAK256 SWAP1 PUSH1 0x5 MUL ADD PUSH1 0x4 ADD PUSH0 DUP2 SLOAD DUP1 SWAP3 SWAP2 SWAP1 PUSH2 0x847 SWAP1 PUSH2 0x1574 JUMP JUMPDEST SWAP2 SWAP1 POP SSTORE POP PUSH32 0x58269E846E627224AF1E738AC3CBB32D4320094D60695E377DF7E94CC6392CA3 CALLER DUP4 DUP4 PUSH1 0x1 PUSH0 DUP8 PUSH20 0xFFFFFFFFFFFFFFFFFFFFFFFFFFFFFFFFFFFFFFFF AND PUSH20 0xFFFFFFFFFFFFFFFFFFFFFFFFFFFFFFFFFFFFFFFF AND DUP2 MSTORE PUSH1 0x20 ADD SWAP1 DUP2 MSTORE PUSH1 0x20 ADD PUSH0 KECCAK256 DUP6 DUP2 SLOAD DUP2 LT PUSH2 0x8BF JUMPI PUSH2 0x8BE PUSH2 0x1358 JUMP JUMPDEST JUMPDEST SWAP1 PUSH0 MSTORE PUSH1 0x20 PUSH0 KECCAK256 SWAP1 PUSH1 0x5 MUL ADD PUSH1 0x4 ADD SLOAD PUSH1 0x40 MLOAD PUSH2 0x8DF SWAP5 SWAP4 SWAP3 SWAP2 SWAP1 PUSH2 0x1461 JUMP JUMPDEST PUSH1 0x40 MLOAD DUP1 SWAP2 SUB SWAP1 LOG1 POP POP JUMP JUMPDEST PUSH0 SLOAD DUP2 JUMP JUMPDEST PUSH0 SLOAD DUP2 MLOAD GT ISZERO PUSH2 0x935 JUMPI PUSH1 0x40 MLOAD PUSH32 0x8C379A000000000000000000000000000000000000000000000000000000000 DUP2 MSTORE PUSH1 0x4 ADD PUSH2 0x92C SWAP1 PUSH2 0x15E5 JUMP JUMPDEST PUSH1 0x40 MLOAD DUP1 SWAP2 SUB SWAP1 REVERT JUMPDEST PUSH0 PUSH1 0x40 MLOAD DUP1 PUSH1 0xA0 ADD PUSH1 0x40 MSTORE DUP1 PUSH1 0x1 PUSH0 CALLER PUSH20 0xFFFFFFFFFFFFFFFFFFFFFFFFFFFFFFFFFFFFFFFF AND PUSH20 0xFFFFFFFFFFFFFFFFFFFFFFFFFFFFFFFFFFFFFFFF AND DUP2 MSTORE PUSH1 0x20 ADD SWAP1 DUP2 MSTORE PUSH1 0x20 ADD PUSH0 KECCAK256 DUP1 SLOAD SWAP1 POP DUP2 MSTORE PUSH1 0x20 ADD CALLER PUSH20 0xFFFFFFFFFFFFFFFFFFFFFFFFFFFFFFFFFFFFFFFF AND DUP2 MSTORE PUSH1 0x20 ADD DUP4 DUP2 MSTORE PUSH1 0x20 ADD TIMESTAMP DUP2 MSTORE PUSH1 0x20 ADD PUSH0 DUP2 MSTORE POP SWAP1 POP PUSH1 0x1 PUSH0 CALLER PUSH20 0xFFFFFFFFFFFFFFFFFFFFFFFFFFFFFFFFFFFFFFFF AND PUSH20 0xFFFFFFFFFFFFFFFFFFFFFFFFFFFFFFFFFFFFFFFF AND DUP2 MSTORE PUSH1 0x20 ADD SWAP1 DUP2 MSTORE PUSH1 0x20 ADD PUSH0 KECCAK256 DUP2 SWAP1 DUP1 PUSH1 0x1 DUP2 SLOAD ADD DUP1 DUP3 SSTORE DUP1 SWAP2 POP POP PUSH1 0x1 SWAP1 SUB SWAP1 PUSH0 MSTORE PUSH1 0x20 PUSH0 KECCAK256 SWAP1 PUSH1 0x5 MUL ADD PUSH0 SWAP1 SWAP2 SWAP1 SWAP2 SWAP1 SWAP2 POP PUSH0 DUP3 ADD MLOAD DUP2 PUSH0 ADD SSTORE PUSH1 0x20 DUP3 ADD MLOAD DUP2 PUSH1 0x1 ADD PUSH0 PUSH2 0x100 EXP DUP2 SLOAD DUP2 PUSH20 0xFFFFFFFFFFFFFFFFFFFFFFFFFFFFFFFFFFFFFFFF MUL NOT AND SWAP1 DUP4 PUSH20 0xFFFFFFFFFFFFFFFFFFFFFFFFFFFFFFFFFFFFFFFF AND MUL OR SWAP1 SSTORE POP PUSH1 0x40 DUP3 ADD MLOAD DUP2 PUSH1 0x2 ADD SWAP1 DUP2 PUSH2 0xA7C SWAP2 SWAP1 PUSH2 0x17A3 JUMP JUMPDEST POP PUSH1 0x60 DUP3 ADD MLOAD DUP2 PUSH1 0x3 ADD SSTORE PUSH1 0x80 DUP3 ADD MLOAD DUP2 PUSH1 0x4 ADD SSTORE POP POP PUSH32 0x6E5546A74A8EF6731872256D3BBBF86208675B875B179ABED63F4ED747A30CFB DUP2 PUSH0 ADD MLOAD DUP3 PUSH1 0x20 ADD MLOAD DUP4 PUSH1 0x40 ADD MLOAD DUP5 PUSH1 0x60 ADD MLOAD PUSH1 0x40 MLOAD PUSH2 0xAD7 SWAP5 SWAP4 SWAP3 SWAP2 SWAP1 PUSH2 0x1872 JUMP JUMPDEST PUSH1 0x40 MLOAD DUP1 SWAP2 SUB SWAP1 LOG1 POP POP JUMP JUMPDEST PUSH1 0x2 PUSH0 SWAP1 SLOAD SWAP1 PUSH2 0x100 EXP SWAP1 DIV PUSH20 0xFFFFFFFFFFFFFFFFFFFFFFFFFFFFFFFFFFFFFFFF AND DUP2 JUMP JUMPDEST PUSH2 0xB10 PUSH2 0xC7F JUMP JUMPDEST PUSH1 0x1 PUSH0 CALLER PUSH20 0xFFFFFFFFFFFFFFFFFFFFFFFFFFFFFFFFFFFFFFFF AND PUSH20 0xFFFFFFFFFFFFFFFFFFFFFFFFFFFFFFFFFFFFFFFF AND DUP2 MSTORE PUSH1 0x20 ADD SWAP1 DUP2 MSTORE PUSH1 0x20 ADD PUSH0 KECCAK256 DUP3 DUP2 SLOAD DUP2 LT PUSH2 0xB5F JUMPI PUSH2 0xB5E PUSH2 0x1358 JUMP JUMPDEST JUMPDEST SWAP1 PUSH0 MSTORE PUSH1 0x20 PUSH0 KECCAK256 SWAP1 PUSH1 0x5 MUL ADD PUSH1 0x40 MLOAD DUP1 PUSH1 0xA0 ADD PUSH1 0x40 MSTORE SWAP1 DUP2 PUSH0 DUP3 ADD SLOAD DUP2 MSTORE PUSH1 0x20 ADD PUSH1 0x1 DUP3 ADD PUSH0 SWAP1 SLOAD SWAP1 PUSH2 0x100 EXP SWAP1 DIV PUSH20 0xFFFFFFFFFFFFFFFFFFFFFFFFFFFFFFFFFFFFFFFF AND PUSH20 0xFFFFFFFFFFFFFFFFFFFFFFFFFFFFFFFFFFFFFFFF AND PUSH20 0xFFFFFFFFFFFFFFFFFFFFFFFFFFFFFFFFFFFFFFFF AND DUP2 MSTORE PUSH1 0x20 ADD PUSH1 0x2 DUP3 ADD DUP1 SLOAD PUSH2 0xBE4 SWAP1 PUSH2 0x1328 JUMP JUMPDEST DUP1 PUSH1 0x1F ADD PUSH1 0x20 DUP1 SWAP2 DIV MUL PUSH1 0x20 ADD PUSH1 0x40 MLOAD SWAP1 DUP2 ADD PUSH1 0x40 MSTORE DUP1 SWAP3 SWAP2 SWAP1 DUP2 DUP2 MSTORE PUSH1 0x20 ADD DUP3 DUP1 SLOAD PUSH2 0xC10 SWAP1 PUSH2 0x1328 JUMP JUMPDEST DUP1 ISZERO PUSH2 0xC5B JUMPI DUP1 PUSH1 0x1F LT PUSH2 0xC32 JUMPI PUSH2 0x100 DUP1 DUP4 SLOAD DIV MUL DUP4 MSTORE SWAP2 PUSH1 0x20 ADD SWAP2 PUSH2 0xC5B JUMP JUMPDEST DUP3 ADD SWAP2 SWAP1 PUSH0 MSTORE PUSH1 0x20 PUSH0 KECCAK256 SWAP1 JUMPDEST DUP2 SLOAD DUP2 MSTORE SWAP1 PUSH1 0x1 ADD SWAP1 PUSH1 0x20 ADD DUP1 DUP4 GT PUSH2 0xC3E JUMPI DUP3 SWAP1 SUB PUSH1 0x1F AND DUP3 ADD SWAP2 JUMPDEST POP POP POP POP POP DUP2 MSTORE PUSH1 0x20 ADD PUSH1 0x3 DUP3 ADD SLOAD DUP2 MSTORE PUSH1 0x20 ADD PUSH1 0x4 DUP3 ADD SLOAD DUP2 MSTORE POP POP SWAP1 POP SWAP2 SWAP1 POP JUMP JUMPDEST PUSH1 0x40 MLOAD DUP1 PUSH1 0xA0 ADD PUSH1 0x40 MSTORE DUP1 PUSH0 DUP2 MSTORE PUSH1 0x20 ADD PUSH0 PUSH20 0xFFFFFFFFFFFFFFFFFFFFFFFFFFFFFFFFFFFFFFFF AND DUP2 MSTORE PUSH1 0x20 ADD PUSH1 0x60 DUP2 MSTORE PUSH1 0x20 ADD PUSH0 DUP2 MSTORE PUSH1 0x20 ADD PUSH0 DUP2 MSTORE POP SWAP1 JUMP JUMPDEST PUSH0 PUSH1 0x40 MLOAD SWAP1 POP SWAP1 JUMP JUMPDEST PUSH0 PUSH0 REVERT JUMPDEST PUSH0 PUSH0 REVERT JUMPDEST PUSH0 PUSH20 0xFFFFFFFFFFFFFFFFFFFFFFFFFFFFFFFFFFFFFFFF DUP3 AND SWAP1 POP SWAP2 SWAP1 POP JUMP JUMPDEST PUSH0 PUSH2 0xCFA DUP3 PUSH2 0xCD1 JUMP JUMPDEST SWAP1 POP SWAP2 SWAP1 POP JUMP JUMPDEST PUSH2 0xD0A DUP2 PUSH2 0xCF0 JUMP JUMPDEST DUP2 EQ PUSH2 0xD14 JUMPI PUSH0 PUSH0 REVERT JUMPDEST POP JUMP JUMPDEST PUSH0 DUP2 CALLDATALOAD SWAP1 POP PUSH2 0xD25 DUP2 PUSH2 0xD01 JUMP JUMPDEST SWAP3 SWAP2 POP POP JUMP JUMPDEST PUSH0 DUP2 SWAP1 POP SWAP2 SWAP1 POP JUMP JUMPDEST PUSH2 0xD3D DUP2 PUSH2 0xD2B JUMP JUMPDEST DUP2 EQ PUSH2 0xD47 JUMPI PUSH0 PUSH0 REVERT JUMPDEST POP JUMP JUMPDEST PUSH0 DUP2 CALLDATALOAD SWAP1 POP PUSH2 0xD58 DUP2 PUSH2 0xD34 JUMP JUMPDEST SWAP3 SWAP2 POP POP JUMP JUMPDEST PUSH0 PUSH0 PUSH1 0x40 DUP4 DUP6 SUB SLT ISZERO PUSH2 0xD74 JUMPI PUSH2 0xD73 PUSH2 0xCC9 JUMP JUMPDEST JUMPDEST PUSH0 PUSH2 0xD81 DUP6 DUP3 DUP7 ADD PUSH2 0xD17 JUMP JUMPDEST SWAP3 POP POP PUSH1 0x20 PUSH2 0xD92 DUP6 DUP3 DUP7 ADD PUSH2 0xD4A JUMP JUMPDEST SWAP2 POP POP SWAP3 POP SWAP3 SWAP1 POP JUMP JUMPDEST PUSH2 0xDA5 DUP2 PUSH2 0xD2B JUMP JUMPDEST DUP3 MSTORE POP POP JUMP JUMPDEST PUSH2 0xDB4 DUP2 PUSH2 0xCF0 JUMP JUMPDEST DUP3 MSTORE POP POP JUMP JUMPDEST PUSH0 DUP2 MLOAD SWAP1 POP SWAP2 SWAP1 POP JUMP JUMPDEST PUSH0 DUP3 DUP3 MSTORE PUSH1 0x20 DUP3 ADD SWAP1 POP SWAP3 SWAP2 POP POP JUMP JUMPDEST DUP3 DUP2 DUP4 MCOPY PUSH0 DUP4 DUP4 ADD MSTORE POP POP POP JUMP JUMPDEST PUSH0 PUSH1 0x1F NOT PUSH1 0x1F DUP4 ADD AND SWAP1 POP SWAP2 SWAP1 POP JUMP JUMPDEST PUSH0 PUSH2 0xDFC DUP3 PUSH2 0xDBA JUMP JUMPDEST PUSH2 0xE06 DUP2 DUP6 PUSH2 0xDC4 JUMP JUMPDEST SWAP4 POP PUSH2 0xE16 DUP2 DUP6 PUSH1 0x20 DUP7 ADD PUSH2 0xDD4 JUMP JUMPDEST PUSH2 0xE1F DUP2 PUSH2 0xDE2 JUMP JUMPDEST DUP5 ADD SWAP2 POP POP SWAP3 SWAP2 POP POP JUMP JUMPDEST PUSH0 PUSH1 0xA0 DUP3 ADD SWAP1 POP PUSH2 0xE3D PUSH0 DUP4 ADD DUP9 PUSH2 0xD9C JUMP JUMPDEST PUSH2 0xE4A PUSH1 0x20 DUP4 ADD DUP8 PUSH2 0xDAB JUMP JUMPDEST DUP2 DUP2 SUB PUSH1 0x40 DUP4 ADD MSTORE PUSH2 0xE5C DUP2 DUP7 PUSH2 0xDF2 JUMP JUMPDEST SWAP1 POP PUSH2 0xE6B PUSH1 0x60 DUP4 ADD DUP6 PUSH2 0xD9C JUMP JUMPDEST PUSH2 0xE78 PUSH1 0x80 DUP4 ADD DUP5 PUSH2 0xD9C JUMP JUMPDEST SWAP7 SWAP6 POP POP POP POP POP POP JUMP JUMPDEST PUSH0 DUP2 MLOAD SWAP1 POP SWAP2 SWAP1 POP JUMP JUMPDEST PUSH0 DUP3 DUP3 MSTORE PUSH1 0x20 DUP3 ADD SWAP1 POP SWAP3 SWAP2 POP POP JUMP JUMPDEST PUSH0 DUP2 SWAP1 POP PUSH1 0x20 DUP3 ADD SWAP1 POP SWAP2 SWAP1 POP JUMP JUMPDEST PUSH2 0xEB4 DUP2 PUSH2 0xD2B JUMP JUMPDEST DUP3 MSTORE POP POP JUMP JUMPDEST PUSH2 0xEC3 DUP2 PUSH2 0xCF0 JUMP JUMPDEST DUP3 MSTORE POP POP JUMP JUMPDEST PUSH0 DUP3 DUP3 MSTORE PUSH1 0x20 DUP3 ADD SWAP1 POP SWAP3 SWAP2 POP POP JUMP JUMPDEST PUSH0 PUSH2 0xEE3 DUP3 PUSH2 0xDBA JUMP JUMPDEST PUSH2 0xEED DUP2 DUP6 PUSH2 0xEC9 JUMP JUMPDEST SWAP4 POP PUSH2 0xEFD DUP2 DUP6 PUSH1 0x20 DUP7 ADD PUSH2 0xDD4 JUMP JUMPDEST PUSH2 0xF06 DUP2 PUSH2 0xDE2 JUMP JUMPDEST DUP5 ADD SWAP2 POP POP SWAP3 SWAP2 POP POP JUMP JUMPDEST PUSH0 PUSH1 0xA0 DUP4 ADD PUSH0 DUP4 ADD MLOAD PUSH2 0xF26 PUSH0 DUP7 ADD DUP3 PUSH2 0xEAB JUMP JUMPDEST POP PUSH1 0x20 DUP4 ADD MLOAD PUSH2 0xF39 PUSH1 0x20 DUP7 ADD DUP3 PUSH2 0xEBA JUMP JUMPDEST POP PUSH1 0x40 DUP4 ADD MLOAD DUP5 DUP3 SUB PUSH1 0x40 DUP7 ADD MSTORE PUSH2 0xF51 DUP3 DUP3 PUSH2 0xED9 JUMP JUMPDEST SWAP2 POP POP PUSH1 0x60 DUP4 ADD MLOAD PUSH2 0xF66 PUSH1 0x60 DUP7 ADD DUP3 PUSH2 0xEAB JUMP JUMPDEST POP PUSH1 0x80 DUP4 ADD MLOAD PUSH2 0xF79 PUSH1 0x80 DUP7 ADD DUP3 PUSH2 0xEAB JUMP JUMPDEST POP DUP1 SWAP2 POP POP SWAP3 SWAP2 POP POP JUMP JUMPDEST PUSH0 PUSH2 0xF8F DUP4 DUP4 PUSH2 0xF11 JUMP JUMPDEST SWAP1 POP SWAP3 SWAP2 POP POP JUMP JUMPDEST PUSH0 PUSH1 0x20 DUP3 ADD SWAP1 POP SWAP2 SWAP1 POP JUMP JUMPDEST PUSH0 PUSH2 0xFAD DUP3 PUSH2 0xE82 JUMP JUMPDEST PUSH2 0xFB7 DUP2 DUP6 PUSH2 0xE8C JUMP JUMPDEST SWAP4 POP DUP4 PUSH1 0x20 DUP3 MUL DUP6 ADD PUSH2 0xFC9 DUP6 PUSH2 0xE9C JUMP JUMPDEST DUP1 PUSH0 JUMPDEST DUP6 DUP2 LT ISZERO PUSH2 0x1004 JUMPI DUP5 DUP5 SUB DUP10 MSTORE DUP2 MLOAD PUSH2 0xFE5 DUP6 DUP3 PUSH2 0xF84 JUMP JUMPDEST SWAP5 POP PUSH2 0xFF0 DUP4 PUSH2 0xF97 JUMP JUMPDEST SWAP3 POP PUSH1 0x20 DUP11 ADD SWAP10 POP POP PUSH1 0x1 DUP2 ADD SWAP1 POP PUSH2 0xFCC JUMP JUMPDEST POP DUP3 SWAP8 POP DUP8 SWAP6 POP POP POP POP POP POP SWAP3 SWAP2 POP POP JUMP JUMPDEST PUSH0 PUSH1 0x20 DUP3 ADD SWAP1 POP DUP2 DUP2 SUB PUSH0 DUP4 ADD MSTORE PUSH2 0x102E DUP2 DUP5 PUSH2 0xFA3 JUMP JUMPDEST SWAP1 POP SWAP3 SWAP2 POP POP JUMP JUMPDEST PUSH0 PUSH2 0xFFFF DUP3 AND SWAP1 POP SWAP2 SWAP1 POP JUMP JUMPDEST PUSH2 0x104C DUP2 PUSH2 0x1036 JUMP JUMPDEST DUP2 EQ PUSH2 0x1056 JUMPI PUSH0 PUSH0 REVERT JUMPDEST POP JUMP JUMPDEST PUSH0 DUP2 CALLDATALOAD SWAP1 POP PUSH2 0x1067 DUP2 PUSH2 0x1043 JUMP JUMPDEST SWAP3 SWAP2 POP POP JUMP JUMPDEST PUSH0 PUSH1 0x20 DUP3 DUP5 SUB SLT ISZERO PUSH2 0x1082 JUMPI PUSH2 0x1081 PUSH2 0xCC9 JUMP JUMPDEST JUMPDEST PUSH0 PUSH2 0x108F DUP5 DUP3 DUP6 ADD PUSH2 0x1059 JUMP JUMPDEST SWAP2 POP POP SWAP3 SWAP2 POP POP JUMP JUMPDEST PUSH0 PUSH1 0x20 DUP3 ADD SWAP1 POP PUSH2 0x10AB PUSH0 DUP4 ADD DUP5 PUSH2 0xD9C JUMP JUMPDEST SWAP3 SWAP2 POP POP JUMP JUMPDEST PUSH0 PUSH0 REVERT JUMPDEST PUSH0 PUSH0 REVERT JUMPDEST PUSH32 0x4E487B7100000000000000000000000000000000000000000000000000000000 PUSH0 MSTORE PUSH1 0x41 PUSH1 0x4 MSTORE PUSH1 0x24 PUSH0 REVERT JUMPDEST PUSH2 0x10EF DUP3 PUSH2 0xDE2 JUMP JUMPDEST DUP2 ADD DUP2 DUP2 LT PUSH8 0xFFFFFFFFFFFFFFFF DUP3 GT OR ISZERO PUSH2 0x110E JUMPI PUSH2 0x110D PUSH2 0x10B9 JUMP JUMPDEST JUMPDEST DUP1 PUSH1 0x40 MSTORE POP POP POP JUMP JUMPDEST PUSH0 PUSH2 0x1120 PUSH2 0xCC0 JUMP JUMPDEST SWAP1 POP PUSH2 0x112C DUP3 DUP3 PUSH2 0x10E6 JUMP JUMPDEST SWAP2 SWAP1 POP JUMP JUMPDEST PUSH0 PUSH8 0xFFFFFFFFFFFFFFFF DUP3 GT ISZERO PUSH2 0x114B JUMPI PUSH2 0x114A PUSH2 0x10B9 JUMP JUMPDEST JUMPDEST PUSH2 0x1154 DUP3 PUSH2 0xDE2 JUMP JUMPDEST SWAP1 POP PUSH1 0x20 DUP2 ADD SWAP1 POP SWAP2 SWAP1 POP JUMP JUMPDEST DUP3 DUP2 DUP4 CALLDATACOPY PUSH0 DUP4 DUP4 ADD MSTORE POP POP POP JUMP JUMPDEST PUSH0 PUSH2 0x1181 PUSH2 0x117C DUP5 PUSH2 0x1131 JUMP JUMPDEST PUSH2 0x1117 JUMP JUMPDEST SWAP1 POP DUP3 DUP2 MSTORE PUSH1 0x20 DUP2 ADD DUP5 DUP5 DUP5 ADD GT ISZERO PUSH2 0x119D JUMPI PUSH2 0x119C PUSH2 0x10B5 JUMP JUMPDEST JUMPDEST PUSH2 0x11A8 DUP5 DUP3 DUP6 PUSH2 0x1161 JUMP JUMPDEST POP SWAP4 SWAP3 POP POP POP JUMP JUMPDEST PUSH0 DUP3 PUSH1 0x1F DUP4 ADD SLT PUSH2 0x11C4 JUMPI PUSH2 0x11C3 PUSH2 0x10B1 JUMP JUMPDEST JUMPDEST DUP2 CALLDATALOAD PUSH2 0x11D4 DUP5 DUP3 PUSH1 0x20 DUP7 ADD PUSH2 0x116F JUMP JUMPDEST SWAP2 POP POP SWAP3 SWAP2 POP POP JUMP JUMPDEST PUSH0 PUSH1 0x20 DUP3 DUP5 SUB SLT ISZERO PUSH2 0x11F2 JUMPI PUSH2 0x11F1 PUSH2 0xCC9 JUMP JUMPDEST JUMPDEST PUSH0 DUP3 ADD CALLDATALOAD PUSH8 0xFFFFFFFFFFFFFFFF DUP2 GT ISZERO PUSH2 0x120F JUMPI PUSH2 0x120E PUSH2 0xCCD JUMP JUMPDEST JUMPDEST PUSH2 0x121B DUP5 DUP3 DUP6 ADD PUSH2 0x11B0 JUMP JUMPDEST SWAP2 POP POP SWAP3 SWAP2 POP POP JUMP JUMPDEST PUSH0 PUSH1 0x20 DUP3 ADD SWAP1 POP PUSH2 0x1237 PUSH0 DUP4 ADD DUP5 PUSH2 0xDAB JUMP JUMPDEST SWAP3 SWAP2 POP POP JUMP JUMPDEST PUSH0 PUSH1 0x20 DUP3 DUP5 SUB SLT ISZERO PUSH2 0x1252 JUMPI PUSH2 0x1251 PUSH2 0xCC9 JUMP JUMPDEST JUMPDEST PUSH0 PUSH2 0x125F DUP5 DUP3 DUP6 ADD PUSH2 0xD4A JUMP JUMPDEST SWAP2 POP POP SWAP3 SWAP2 POP POP JUMP JUMPDEST PUSH0 PUSH1 0xA0 DUP4 ADD PUSH0 DUP4 ADD MLOAD PUSH2 0x127D PUSH0 DUP7 ADD DUP3 PUSH2 0xEAB JUMP JUMPDEST POP PUSH1 0x20 DUP4 ADD MLOAD PUSH2 0x1290 PUSH1 0x20 DUP7 ADD DUP3 PUSH2 0xEBA JUMP JUMPDEST POP PUSH1 0x40 DUP4 ADD MLOAD DUP5 DUP3 SUB PUSH1 0x40 DUP7 ADD MSTORE PUSH2 0x12A8 DUP3 DUP3 PUSH2 0xED9 JUMP JUMPDEST SWAP2 POP POP PUSH1 0x60 DUP4 ADD MLOAD PUSH2 0x12BD PUSH1 0x60 DUP7 ADD DUP3 PUSH2 0xEAB JUMP JUMPDEST POP PUSH1 0x80 DUP4 ADD MLOAD PUSH2 0x12D0 PUSH1 0x80 DUP7 ADD DUP3 PUSH2 0xEAB JUMP JUMPDEST POP DUP1 SWAP2 POP POP SWAP3 SWAP2 POP POP JUMP JUMPDEST PUSH0 PUSH1 0x20 DUP3 ADD SWAP1 POP DUP2 DUP2 SUB PUSH0 DUP4 ADD MSTORE PUSH2 0x12F3 DUP2 DUP5 PUSH2 0x1268 JUMP JUMPDEST SWAP1 POP SWAP3 SWAP2 POP POP JUMP JUMPDEST PUSH32 0x4E487B7100000000000000000000000000000000000000000000000000000000 PUSH0 MSTORE PUSH1 0x22 PUSH1 0x4 MSTORE PUSH1 0x24 PUSH0 REVERT JUMPDEST PUSH0 PUSH1 0x2 DUP3 DIV SWAP1 POP PUSH1 0x1 DUP3 AND DUP1 PUSH2 0x133F JUMPI PUSH1 0x7F DUP3 AND SWAP2 POP JUMPDEST PUSH1 0x20 DUP3 LT DUP2 SUB PUSH2 0x1352 JUMPI PUSH2 0x1351 PUSH2 0x12FB JUMP JUMPDEST JUMPDEST POP SWAP2 SWAP1 POP JUMP JUMPDEST PUSH32 0x4E487B7100000000000000000000000000000000000000000000000000000000 PUSH0 MSTORE PUSH1 0x32 PUSH1 0x4 MSTORE PUSH1 0x24 PUSH0 REVERT JUMPDEST PUSH32 0x547765657420646F6573206E6F74206578697421000000000000000000000000 PUSH0 DUP3 ADD MSTORE POP JUMP JUMPDEST PUSH0 PUSH2 0x13B9 PUSH1 0x14 DUP4 PUSH2 0xDC4 JUMP JUMPDEST SWAP2 POP PUSH2 0x13C4 DUP3 PUSH2 0x1385 JUMP JUMPDEST PUSH1 0x20 DUP3 ADD SWAP1 POP SWAP2 SWAP1 POP JUMP JUMPDEST PUSH0 PUSH1 0x20 DUP3 ADD SWAP1 POP DUP2 DUP2 SUB PUSH0 DUP4 ADD MSTORE PUSH2 0x13E6 DUP2 PUSH2 0x13AD JUMP JUMPDEST SWAP1 POP SWAP2 SWAP1 POP JUMP JUMPDEST PUSH32 0x4E487B7100000000000000000000000000000000000000000000000000000000 PUSH0 MSTORE PUSH1 0x11 PUSH1 0x4 MSTORE PUSH1 0x24 PUSH0 REVERT JUMPDEST PUSH0 PUSH2 0x1424 DUP3 PUSH2 0xD2B JUMP JUMPDEST SWAP2 POP PUSH32 0xFFFFFFFFFFFFFFFFFFFFFFFFFFFFFFFFFFFFFFFFFFFFFFFFFFFFFFFFFFFFFFFF DUP3 SUB PUSH2 0x1456 JUMPI PUSH2 0x1455 PUSH2 0x13ED JUMP JUMPDEST JUMPDEST PUSH1 0x1 DUP3 ADD SWAP1 POP SWAP2 SWAP1 POP JUMP JUMPDEST PUSH0 PUSH1 0x80 DUP3 ADD SWAP1 POP PUSH2 0x1474 PUSH0 DUP4 ADD DUP8 PUSH2 0xDAB JUMP JUMPDEST PUSH2 0x1481 PUSH1 0x20 DUP4 ADD DUP7 PUSH2 0xDAB JUMP JUMPDEST PUSH2 0x148E PUSH1 0x40 DUP4 ADD DUP6 PUSH2 0xD9C JUMP JUMPDEST PUSH2 0x149B PUSH1 0x60 DUP4 ADD DUP5 PUSH2 0xD9C JUMP JUMPDEST SWAP6 SWAP5 POP POP POP POP POP JUMP JUMPDEST PUSH32 0x596F7520617265206E6F7420746865206F776E65722100000000000000000000 PUSH0 DUP3 ADD MSTORE POP JUMP JUMPDEST PUSH0 PUSH2 0x14D8 PUSH1 0x16 DUP4 PUSH2 0xDC4 JUMP JUMPDEST SWAP2 POP PUSH2 0x14E3 DUP3 PUSH2 0x14A4 JUMP JUMPDEST PUSH1 0x20 DUP3 ADD SWAP1 POP SWAP2 SWAP1 POP JUMP JUMPDEST PUSH0 PUSH1 0x20 DUP3 ADD SWAP1 POP DUP2 DUP2 SUB PUSH0 DUP4 ADD MSTORE PUSH2 0x1505 DUP2 PUSH2 0x14CC JUMP JUMPDEST SWAP1 POP SWAP2 SWAP1 POP JUMP JUMPDEST PUSH32 0x546865726520617265206E6F206C696B65730000000000000000000000000000 PUSH0 DUP3 ADD MSTORE POP JUMP JUMPDEST PUSH0 PUSH2 0x1540 PUSH1 0x12 DUP4 PUSH2 0xDC4 JUMP JUMPDEST SWAP2 POP PUSH2 0x154B DUP3 PUSH2 0x150C JUMP JUMPDEST PUSH1 0x20 DUP3 ADD SWAP1 POP SWAP2 SWAP1 POP JUMP JUMPDEST PUSH0 PUSH1 0x20 DUP3 ADD SWAP1 POP DUP2 DUP2 SUB PUSH0 DUP4 ADD MSTORE PUSH2 0x156D DUP2 PUSH2 0x1534 JUMP JUMPDEST SWAP1 POP SWAP2 SWAP1 POP JUMP JUMPDEST PUSH0 PUSH2 0x157E DUP3 PUSH2 0xD2B JUMP JUMPDEST SWAP2 POP PUSH0 DUP3 SUB PUSH2 0x1590 JUMPI PUSH2 0x158F PUSH2 0x13ED JUMP JUMPDEST JUMPDEST PUSH1 0x1 DUP3 SUB SWAP1 POP SWAP2 SWAP1 POP JUMP JUMPDEST PUSH32 0x547765657420746F6F206C6F6E67210000000000000000000000000000000000 PUSH0 DUP3 ADD MSTORE POP JUMP JUMPDEST PUSH0 PUSH2 0x15CF PUSH1 0xF DUP4 PUSH2 0xDC4 JUMP JUMPDEST SWAP2 POP PUSH2 0x15DA DUP3 PUSH2 0x159B JUMP JUMPDEST PUSH1 0x20 DUP3 ADD SWAP1 POP SWAP2 SWAP1 POP JUMP JUMPDEST PUSH0 PUSH1 0x20 DUP3 ADD SWAP1 POP DUP2 DUP2 SUB PUSH0 DUP4 ADD MSTORE PUSH2 0x15FC DUP2 PUSH2 0x15C3 JUMP JUMPDEST SWAP1 POP SWAP2 SWAP1 POP JUMP JUMPDEST PUSH0 DUP2 SWAP1 POP DUP2 PUSH0 MSTORE PUSH1 0x20 PUSH0 KECCAK256 SWAP1 POP SWAP2 SWAP1 POP JUMP JUMPDEST PUSH0 PUSH1 0x20 PUSH1 0x1F DUP4 ADD DIV SWAP1 POP SWAP2 SWAP1 POP JUMP JUMPDEST PUSH0 DUP3 DUP3 SHL SWAP1 POP SWAP3 SWAP2 POP POP JUMP JUMPDEST PUSH0 PUSH1 0x8 DUP4 MUL PUSH2 0x165F PUSH32 0xFFFFFFFFFFFFFFFFFFFFFFFFFFFFFFFFFFFFFFFFFFFFFFFFFFFFFFFFFFFFFFFF DUP3 PUSH2 0x1624 JUMP JUMPDEST PUSH2 0x1669 DUP7 DUP4 PUSH2 0x1624 JUMP JUMPDEST SWAP6 POP DUP1 NOT DUP5 AND SWAP4 POP DUP1 DUP7 AND DUP5 OR SWAP3 POP POP POP SWAP4 SWAP3 POP POP POP JUMP JUMPDEST PUSH0 DUP2 SWAP1 POP SWAP2 SWAP1 POP JUMP JUMPDEST PUSH0 PUSH2 0x16A4 PUSH2 0x169F PUSH2 0x169A DUP5 PUSH2 0xD2B JUMP JUMPDEST PUSH2 0x1681 JUMP JUMPDEST PUSH2 0xD2B JUMP JUMPDEST SWAP1 POP SWAP2 SWAP1 POP JUMP JUMPDEST PUSH0 DUP2 SWAP1 POP SWAP2 SWAP1 POP JUMP JUMPDEST PUSH2 0x16BD DUP4 PUSH2 0x168A JUMP JUMPDEST PUSH2 0x16D1 PUSH2 0x16C9 DUP3 PUSH2 0x16AB JUMP JUMPDEST DUP5 DUP5 SLOAD PUSH2 0x1630 JUMP JUMPDEST DUP3 SSTORE POP POP POP POP JUMP JUMPDEST PUSH0 PUSH0 SWAP1 POP SWAP1 JUMP JUMPDEST PUSH2 0x16E8 PUSH2 0x16D9 JUMP JUMPDEST PUSH2 0x16F3 DUP2 DUP5 DUP5 PUSH2 0x16B4 JUMP JUMPDEST POP POP POP JUMP JUMPDEST JUMPDEST DUP2 DUP2 LT ISZERO PUSH2 0x1716 JUMPI PUSH2 0x170B PUSH0 DUP3 PUSH2 0x16E0 JUMP JUMPDEST PUSH1 0x1 DUP2 ADD SWAP1 POP PUSH2 0x16F9 JUMP JUMPDEST POP POP JUMP JUMPDEST PUSH1 0x1F DUP3 GT ISZERO PUSH2 0x175B JUMPI PUSH2 0x172C DUP2 PUSH2 0x1603 JUMP JUMPDEST PUSH2 0x1735 DUP5 PUSH2 0x1615 JUMP JUMPDEST DUP2 ADD PUSH1 0x20 DUP6 LT ISZERO PUSH2 0x1744 JUMPI DUP2 SWAP1 POP JUMPDEST PUSH2 0x1758 PUSH2 0x1750 DUP6 PUSH2 0x1615 JUMP JUMPDEST DUP4 ADD DUP3 PUSH2 0x16F8 JUMP JUMPDEST POP POP JUMPDEST POP POP POP JUMP JUMPDEST PUSH0 DUP3 DUP3 SHR SWAP1 POP SWAP3 SWAP2 POP POP JUMP JUMPDEST PUSH0 PUSH2 0x177B PUSH0 NOT DUP5 PUSH1 0x8 MUL PUSH2 0x1760 JUMP JUMPDEST NOT DUP1 DUP4 AND SWAP2 POP POP SWAP3 SWAP2 POP POP JUMP JUMPDEST PUSH0 PUSH2 0x1793 DUP4 DUP4 PUSH2 0x176C JUMP JUMPDEST SWAP2 POP DUP3 PUSH1 0x2 MUL DUP3 OR SWAP1 POP SWAP3 SWAP2 POP POP JUMP JUMPDEST PUSH2 0x17AC DUP3 PUSH2 0xDBA JUMP JUMPDEST PUSH8 0xFFFFFFFFFFFFFFFF DUP2 GT ISZERO PUSH2 0x17C5 JUMPI PUSH2 0x17C4 PUSH2 0x10B9 JUMP JUMPDEST JUMPDEST PUSH2 0x17CF DUP3 SLOAD PUSH2 0x1328 JUMP JUMPDEST PUSH2 0x17DA DUP3 DUP3 DUP6 PUSH2 0x171A JUMP JUMPDEST PUSH0 PUSH1 0x20 SWAP1 POP PUSH1 0x1F DUP4 GT PUSH1 0x1 DUP2 EQ PUSH2 0x180B JUMPI PUSH0 DUP5 ISZERO PUSH2 0x17F9 JUMPI DUP3 DUP8 ADD MLOAD SWAP1 POP JUMPDEST PUSH2 0x1803 DUP6 DUP3 PUSH2 0x1788 JUMP JUMPDEST DUP7 SSTORE POP PUSH2 0x186A JUMP JUMPDEST PUSH1 0x1F NOT DUP5 AND PUSH2 0x1819 DUP7 PUSH2 0x1603 JUMP JUMPDEST PUSH0 JUMPDEST DUP3 DUP2 LT ISZERO PUSH2 0x1840 JUMPI DUP5 DUP10 ADD MLOAD DUP3 SSTORE PUSH1 0x1 DUP3 ADD SWAP2 POP PUSH1 0x20 DUP6 ADD SWAP5 POP PUSH1 0x20 DUP2 ADD SWAP1 POP PUSH2 0x181B JUMP JUMPDEST DUP7 DUP4 LT ISZERO PUSH2 0x185D JUMPI DUP5 DUP10 ADD MLOAD PUSH2 0x1859 PUSH1 0x1F DUP10 AND DUP3 PUSH2 0x176C JUMP JUMPDEST DUP4 SSTORE POP JUMPDEST PUSH1 0x1 PUSH1 0x2 DUP9 MUL ADD DUP9 SSTORE POP POP POP JUMPDEST POP POP POP POP POP POP JUMP JUMPDEST PUSH0 PUSH1 0x80 DUP3 ADD SWAP1 POP PUSH2 0x1885 PUSH0 DUP4 ADD DUP8 PUSH2 0xD9C JUMP JUMPDEST PUSH2 0x1892 PUSH1 0x20 DUP4 ADD DUP7 PUSH2 0xDAB JUMP JUMPDEST DUP2 DUP2 SUB PUSH1 0x40 DUP4 ADD MSTORE PUSH2 0x18A4 DUP2 DUP6 PUSH2 0xDF2 JUMP JUMPDEST SWAP1 POP PUSH2 0x18B3 PUSH1 0x60 DUP4 ADD DUP5 PUSH2 0xD9C JUMP JUMPDEST SWAP6 SWAP5 POP POP POP POP POP JUMP INVALID LOG2 PUSH5 0x6970667358 0x22 SLT KECCAK256 0xBF 0xB9 SELFDESTRUCT 0xD4 AND 0xE SHR 0x4F DELEGATECALL EXP RETURNDATACOPY DUP4 0xBF PUSH29 0xFF6871E85BA518A673B68F455231AAF8780C64736F6C634300081E0033 "
				},
				"gasEstimates": {
					"creation": {
						"codeDepositCost": "1277200",
						"executionCost": "47697",
						"totalCost": "1324897"
					},
					"external": {
						"MAX_TWEET_LENGTH()": "2446",
						"addLikes(address,uint256)": "infinite",
						"changeTweetLength(uint16)": "24762",
						"createTweet(string)": "infinite",
						"getAllTweets()": "infinite",
						"getTweet(uint256)": "infinite",
						"owner()": "2574",
						"removeLikes(address,uint256)": "infinite",
						"tweets(address,uint256)": "infinite"
					}
				},
				"methodIdentifiers": {
					"MAX_TWEET_LENGTH()": "6eb10797",
					"addLikes(address,uint256)": "15bf4006",
					"changeTweetLength(uint16)": "58bfa4ab",
					"createTweet(string)": "7c9cd2bc",
					"getAllTweets()": "53256135",
					"getTweet(uint256)": "c3ad5ecb",
					"owner()": "8da5cb5b",
					"removeLikes(address,uint256)": "5f484677",
					"tweets(address,uint256)": "05a1b4a9"
				}
			},
			"storageLayout": {
				"storage": [
					{
						"astId": 4,
						"contract": "contracts/twitter.sol:Twitter",
						"label": "MAX_TWEET_LENGTH",
						"offset": 0,
						"slot": "0",
						"type": "t_uint256"
					},
					{
						"astId": 21,
						"contract": "contracts/twitter.sol:Twitter",
						"label": "tweets",
						"offset": 0,
						"slot": "1",
						"type": "t_mapping(t_address,t_array(t_struct(Tweet)15_storage)dyn_storage)"
					},
					{
						"astId": 23,
						"contract": "contracts/twitter.sol:Twitter",
						"label": "owner",
						"offset": 0,
						"slot": "2",
						"type": "t_address"
					}
				],
				"types": {
					"t_address": {
						"encoding": "inplace",
						"label": "address",
						"numberOfBytes": "20"
					},
					"t_array(t_struct(Tweet)15_storage)dyn_storage": {
						"base": "t_struct(Tweet)15_storage",
						"encoding": "dynamic_array",
						"label": "struct Twitter.Tweet[]",
						"numberOfBytes": "32"
					},
					"t_mapping(t_address,t_array(t_struct(Tweet)15_storage)dyn_storage)": {
						"encoding": "mapping",
						"key": "t_address",
						"label": "mapping(address => struct Twitter.Tweet[])",
						"numberOfBytes": "32",
						"value": "t_array(t_struct(Tweet)15_storage)dyn_storage"
					},
					"t_string_storage": {
						"encoding": "bytes",
						"label": "string",
						"numberOfBytes": "32"
					},
					"t_struct(Tweet)15_storage": {
						"encoding": "inplace",
						"label": "struct Twitter.Tweet",
						"members": [
							{
								"astId": 6,
								"contract": "contracts/twitter.sol:Twitter",
								"label": "id",
								"offset": 0,
								"slot": "0",
								"type": "t_uint256"
							},
							{
								"astId": 8,
								"contract": "contracts/twitter.sol:Twitter",
								"label": "author",
								"offset": 0,
								"slot": "1",
								"type": "t_address"
							},
							{
								"astId": 10,
								"contract": "contracts/twitter.sol:Twitter",
								"label": "content",
								"offset": 0,
								"slot": "2",
								"type": "t_string_storage"
							},
							{
								"astId": 12,
								"contract": "contracts/twitter.sol:Twitter",
								"label": "timestamp",
								"offset": 0,
								"slot": "3",
								"type": "t_uint256"
							},
							{
								"astId": 14,
								"contract": "contracts/twitter.sol:Twitter",
								"label": "likes",
								"offset": 0,
								"slot": "4",
								"type": "t_uint256"
							}
						],
						"numberOfBytes": "160"
					},
					"t_uint256": {
						"encoding": "inplace",
						"label": "uint256",
						"numberOfBytes": "32"
					}
				}
			},
			"userdoc": {
				"kind": "user",
				"methods": {},
				"version": 1
			}
		}
	}
}