{
	"data": {
		"bytecode": {
			"linkReferences": {},
			"object": "6080604052348015600e575f5ffd5b506103388061001c5f395ff3fe608060405234801561000f575f5ffd5b5060043610610055575f3560e01c80633fa4f245146100595780634881ae73146100775780635bd9d0b3146100935780637af1b0d8146100af578063de292789146100cb575b5f5ffd5b6100616100e9565b60405161006e91906101aa565b60405180910390f35b610091600480360381019061008c91906101f1565b6100fb565b005b6100ad60048036038101906100a891906101f1565b610125565b005b6100c960048036038101906100c491906101f1565b61014f565b005b6100d3610179565b6040516100e091906101aa565b60405180910390f35b5f5f9054906101000a900461ffff1681565b8082610107919061025c565b5f5f6101000a81548161ffff021916908361ffff1602179055505050565b80826101319190610291565b5f5f6101000a81548161ffff021916908361ffff1602179055505050565b808261015b91906102c6565b5f5f6101000a81548161ffff021916908361ffff1602179055505050565b5f5f5f9054906101000a900461ffff16905090565b5f61ffff82169050919050565b6101a48161018e565b82525050565b5f6020820190506101bd5f83018461019b565b92915050565b5f5ffd5b6101d08161018e565b81146101da575f5ffd5b50565b5f813590506101eb816101c7565b92915050565b5f5f60408385031215610207576102066101c3565b5b5f610214858286016101dd565b9250506020610225858286016101dd565b9150509250929050565b7f4e487b71000000000000000000000000000000000000000000000000000000005f52601160045260245ffd5b5f6102668261018e565b91506102718361018e565b9250828201905061ffff81111561028b5761028a61022f565b5b92915050565b5f61029b8261018e565b91506102a68361018e565b9250828203905061ffff8111156102c0576102bf61022f565b5b92915050565b5f6102d08261018e565b91506102db8361018e565b92508282026102e98161018e565b91508082146102fb576102fa61022f565b5b509291505056fea26469706673582212206edaa71fb2c0284804b1512260f74f176fc76650f250f5c59fffc427d15c988764736f6c634300081e0033",
			"opcodes": "PUSH1 0x80 PUSH1 0x40 MSTORE CALLVALUE DUP1 ISZERO PUSH1 0xE JUMPI PUSH0 PUSH0 REVERT JUMPDEST POP PUSH2 0x338 DUP1 PUSH2 0x1C PUSH0 CODECOPY PUSH0 RETURN INVALID PUSH1 0x80 PUSH1 0x40 MSTORE CALLVALUE DUP1 ISZERO PUSH2 0xF JUMPI PUSH0 PUSH0 REVERT JUMPDEST POP PUSH1 0x4 CALLDATASIZE LT PUSH2 0x55 JUMPI PUSH0 CALLDATALOAD PUSH1 0xE0 SHR DUP1 PUSH4 0x3FA4F245 EQ PUSH2 0x59 JUMPI DUP1 PUSH4 0x4881AE73 EQ PUSH2 0x77 JUMPI DUP1 PUSH4 0x5BD9D0B3 EQ PUSH2 0x93 JUMPI DUP1 PUSH4 0x7AF1B0D8 EQ PUSH2 0xAF JUMPI DUP1 PUSH4 0xDE292789 EQ PUSH2 0xCB JUMPI JUMPDEST PUSH0 PUSH0 REVERT JUMPDEST PUSH2 0x61 PUSH2 0xE9 JUMP JUMPDEST PUSH1 0x40 MLOAD PUSH2 0x6E SWAP2 SWAP1 PUSH2 0x1AA JUMP JUMPDEST PUSH1 0x40 MLOAD DUP1 SWAP2 SUB SWAP1 RETURN JUMPDEST PUSH2 0x91 PUSH1 0x4 DUP1 CALLDATASIZE SUB DUP2 ADD SWAP1 PUSH2 0x8C SWAP2 SWAP1 PUSH2 0x1F1 JUMP JUMPDEST PUSH2 0xFB JUMP JUMPDEST STOP JUMPDEST PUSH2 0xAD PUSH1 0x4 DUP1 CALLDATASIZE SUB DUP2 ADD SWAP1 PUSH2 0xA8 SWAP2 SWAP1 PUSH2 0x1F1 JUMP JUMPDEST PUSH2 0x125 JUMP JUMPDEST STOP JUMPDEST PUSH2 0xC9 PUSH1 0x4 DUP1 CALLDATASIZE SUB DUP2 ADD SWAP1 PUSH2 0xC4 SWAP2 SWAP1 PUSH2 0x1F1 JUMP JUMPDEST PUSH2 0x14F JUMP JUMPDEST STOP JUMPDEST PUSH2 0xD3 PUSH2 0x179 JUMP JUMPDEST PUSH1 0x40 MLOAD PUSH2 0xE0 SWAP2 SWAP1 PUSH2 0x1AA JUMP JUMPDEST PUSH1 0x40 MLOAD DUP1 SWAP2 SUB SWAP1 RETURN JUMPDEST PUSH0 PUSH0 SWAP1 SLOAD SWAP1 PUSH2 0x100 EXP SWAP1 DIV PUSH2 0xFFFF AND DUP2 JUMP JUMPDEST DUP1 DUP3 PUSH2 0x107 SWAP2 SWAP1 PUSH2 0x25C JUMP JUMPDEST PUSH0 PUSH0 PUSH2 0x100 EXP DUP2 SLOAD DUP2 PUSH2 0xFFFF MUL NOT AND SWAP1 DUP4 PUSH2 0xFFFF AND MUL OR SWAP1 SSTORE POP POP POP JUMP JUMPDEST DUP1 DUP3 PUSH2 0x131 SWAP2 SWAP1 PUSH2 0x291 JUMP JUMPDEST PUSH0 PUSH0 PUSH2 0x100 EXP DUP2 SLOAD DUP2 PUSH2 0xFFFF MUL NOT AND SWAP1 DUP4 PUSH2 0xFFFF AND MUL OR SWAP1 SSTORE POP POP POP JUMP JUMPDEST DUP1 DUP3 PUSH2 0x15B SWAP2 SWAP1 PUSH2 0x2C6 JUMP JUMPDEST PUSH0 PUSH0 PUSH2 0x100 EXP DUP2 SLOAD DUP2 PUSH2 0xFFFF MUL NOT AND SWAP1 DUP4 PUSH2 0xFFFF AND MUL OR SWAP1 SSTORE POP POP POP JUMP JUMPDEST PUSH0 PUSH0 PUSH0 SWAP1 SLOAD SWAP1 PUSH2 0x100 EXP SWAP1 DIV PUSH2 0xFFFF AND SWAP1 POP SWAP1 JUMP JUMPDEST PUSH0 PUSH2 0xFFFF DUP3 AND SWAP1 POP SWAP2 SWAP1 POP JUMP JUMPDEST PUSH2 0x1A4 DUP2 PUSH2 0x18E JUMP JUMPDEST DUP3 MSTORE POP POP JUMP JUMPDEST PUSH0 PUSH1 0x20 DUP3 ADD SWAP1 POP PUSH2 0x1BD PUSH0 DUP4 ADD DUP5 PUSH2 0x19B JUMP JUMPDEST SWAP3 SWAP2 POP POP JUMP JUMPDEST PUSH0 PUSH0 REVERT JUMPDEST PUSH2 0x1D0 DUP2 PUSH2 0x18E JUMP JUMPDEST DUP2 EQ PUSH2 0x1DA JUMPI PUSH0 PUSH0 REVERT JUMPDEST POP JUMP JUMPDEST PUSH0 DUP2 CALLDATALOAD SWAP1 POP PUSH2 0x1EB DUP2 PUSH2 0x1C7 JUMP JUMPDEST SWAP3 SWAP2 POP POP JUMP JUMPDEST PUSH0 PUSH0 PUSH1 0x40 DUP4 DUP6 SUB SLT ISZERO PUSH2 0x207 JUMPI PUSH2 0x206 PUSH2 0x1C3 JUMP JUMPDEST JUMPDEST PUSH0 PUSH2 0x214 DUP6 DUP3 DUP7 ADD PUSH2 0x1DD JUMP JUMPDEST SWAP3 POP POP PUSH1 0x20 PUSH2 0x225 DUP6 DUP3 DUP7 ADD PUSH2 0x1DD JUMP JUMPDEST SWAP2 POP POP SWAP3 POP SWAP3 SWAP1 POP JUMP JUMPDEST PUSH32 0x4E487B7100000000000000000000000000000000000000000000000000000000 PUSH0 MSTORE PUSH1 0x11 PUSH1 0x4 MSTORE PUSH1 0x24 PUSH0 REVERT JUMPDEST PUSH0 PUSH2 0x266 DUP3 PUSH2 0x18E JUMP JUMPDEST SWAP2 POP PUSH2 0x271 DUP4 PUSH2 0x18E JUMP JUMPDEST SWAP3 POP DUP3 DUP3 ADD SWAP1 POP PUSH2 0xFFFF DUP2 GT ISZERO PUSH2 0x28B JUMPI PUSH2 0x28A PUSH2 0x22F JUMP JUMPDEST JUMPDEST SWAP3 SWAP2 POP POP JUMP JUMPDEST PUSH0 PUSH2 0x29B DUP3 PUSH2 0x18E JUMP JUMPDEST SWAP2 POP PUSH2 0x2A6 DUP4 PUSH2 0x18E JUMP JUMPDEST SWAP3 POP DUP3 DUP3 SUB SWAP1 POP PUSH2 0xFFFF DUP2 GT ISZERO PUSH2 0x2C0 JUMPI PUSH2 0x2BF PUSH2 0x22F JUMP JUMPDEST JUMPDEST SWAP3 SWAP2 POP POP JUMP JUMPDEST PUSH0 PUSH2 0x2D0 DUP3 PUSH2 0x18E JUMP JUMPDEST SWAP2 POP PUSH2 0x2DB DUP4 PUSH2 0x18E JUMP JUMPDEST SWAP3 POP DUP3 DUP3 MUL PUSH2 0x2E9 DUP2 PUSH2 0x18E JUMP JUMPDEST SWAP2 POP DUP1 DUP3 EQ PUSH2 0x2FB JUMPI PUSH2 0x2FA PUSH2 0x22F JUMP JUMPDEST JUMPDEST POP SWAP3 SWAP2 POP POP JUMP INVALID LOG2 PUSH5 0x6970667358 0x22 SLT KECCAK256 PUSH15 0xDAA71FB2C0284804B1512260F74F17 PUSH16 0xC76650F250F5C59FFFC427D15C988764 PUSH20 0x6F6C634300081E00330000000000000000000000 "
		},
		"gasEstimates": {
			"creation": {
				"codeDepositCost": "164800",
				"executionCost": "206",
				"totalCost": "165006"
			},
			"external": {
				"add(uint16,uint16)": "infinite",
				"getResult()": "2538",
				"multiply(uint16,uint16)": "infinite",
				"subtract(uint16,uint16)": "infinite",
				"value()": "2443"
			}
		},
		"methodIdentifiers": {
			"add(uint16,uint16)": "4881ae73",
			"getResult()": "de292789",
			"multiply(uint16,uint16)": "7af1b0d8",
			"subtract(uint16,uint16)": "5bd9d0b3",
			"value()": "3fa4f245"
		}
	},
	"abi": [
		{
			"inputs": [
				{
					"internalType": "uint16",
					"name": "_num1",
					"type": "uint16"
				},
				{
					"internalType": "uint16",
					"name": "_num2",
					"type": "uint16"
				}
			],
			"name": "add",
			"outputs": [],
			"stateMutability": "nonpayable",
			"type": "function"
		},
		{
			"inputs": [],
			"name": "getResult",
			"outputs": [
				{
					"internalType": "uint16",
					"name": "",
					"type": "uint16"
				}
			],
			"stateMutability": "view",
			"type": "function"
		},
		{
			"inputs": [
				{
					"internalType": "uint16",
					"name": "_num1",
					"type": "uint16"
				},
				{
					"internalType": "uint16",
					"name": "_num2",
					"type": "uint16"
				}
			],
			"name": "multiply",
			"outputs": [],
			"stateMutability": "nonpayable",
			"type": "function"
		},
		{
			"inputs": [
				{
					"internalType": "uint16",
					"name": "_num1",
					"type": "uint16"
				},
				{
					"internalType": "uint16",
					"name": "_num2",
					"type": "uint16"
				}
			],
			"name": "subtract",
			"outputs": [],
			"stateMutability": "nonpayable",
			"type": "function"
		},
		{
			"inputs": [],
			"name": "value",
			"outputs": [
				{
					"internalType": "uint16",
					"name": "",
					"type": "uint16"
				}
			],
			"stateMutability": "view",
			"type": "function"
		}
	]
}